:020000040801F1
:10000000A031002045010108E52F0108092501085C
:10001000E12F0108F3050108494401080000000030
:100020000000000000000000000000002B37010865
:10003000850E010800000000213101088D3D0108F6
:100040005F0101085F0101085F0101085F0101080C
:100050005F0101085F0101085F010108D91A010869
:100060005F0101085F0101081D1B0108F90B010870
:10007000390C01085F0101085F0101085F010108F7
:100080005F0101085F010108E90101085F01010842
:100090005F0101085F0101085F0101085F010108BC
:1000A0005F0101085F0101085F0101085F010108AC
:1000B000AD3E0108B13E01085F0101085F01010882
:1000C0005F0101085F0101085F010108E5340108D3
:1000D000F93501083D410108B94101082D420108E7
:1000E000911A01085F0101085F0101085F01010821
:1000F0005F0101085F0101085F0101085F0101085C
:100100005F0101085F0101085F0101085F0101084B
:100110005F0101085F0101085F0101085F0101083B
:100120005F0101085F0101085F0101085F0101082B
:10013000DFF80CD000F018F800480047419C010897
:10014000A03100200648804706480047FEE7FEE74A
:10015000FEE7FEE7FEE7FEE7FEE7FEE7FEE7FEE777
:100160004D3E010831010108064C074D06E0E068EC
:1001700040F0010394E8070098471034AC42F6D3EE
:10018000FFF7DAFF9C0A0508BC0A050870B501EB09
:10019000020410F8015B15F0070301D110F8013BD0
:1001A0002A1106D110F8012B03E010F8016B01F8B9
:1001B000016B5B1EF9D12B0705D40023521E0FD40F
:1001C00001F8013BFAE710F8013B02F10202A1EB52
:1001D000030303E013F8015B01F8015B521EF9D53C
:1001E000A142D6D3002070BD10B54FF40871364837
:1001F00000F03EF9002855D04FF40871324800F065
:10020000D5F8314800F030F930490880304800888E
:100210003049098888422ADA2C4800882E49096822
:100220002B4A128821F8120029480088401C2849CE
:1002300008802A48407C401C284948740846407C75
:10024000032814DB0846007C401C08740846007C28
:1002500000F00F0008740846007C0A46115C072372
:100260000122194800F054F900201C49487418482C
:100270000088182816DB1A48007840F00100184959
:1002800008700F20124908800520144908740020C6
:1002900048740846007C0A46115C072301220A487C
:1002A00000F036F94FF408710E4800F0E1F848B15B
:1002B0004FF408710B4800F079F80A4800F0D4F8C0
:1002C0000949088010BD00000024014046010020BB
:1002D00042010020400100203C01002034000020A9
:1002E00044010020002801405201002000B587B0E1
:1002F00001214FF4047002F051FF0120ADF8180005
:1003000000208DF81B0006A9244802F005F82448B7
:1003100000F072F80020019001208DF80800002004
:100320008DF809004FF46020039000200490012014
:100330008DF8140001A91A4800F0C2F84FF44040AB
:1003400002F0F0FE002017490880052016490874C5
:100350000846007C0A46115C07230122104800F081
:10036000D7F801210E4800F026F80D4800F02CF9CE
:1003700000BF0B4800F08EF80028FAD1084800F0C2
:1003800033F900BF064800F065F80028FAD10121D2
:10039000034800F01EF907B000BD00000010014046
:1003A00000240140420100203400002000220A12F3
:1003B000D3430360704721B1826842F0010282603A
:1003C00003E0826822F001028260704710B506489F
:1003D000064908604FF4A0700549088000200549CF
:1003E0000880FFF783FF10BD622A00203C01002037
:1003F000400100204201002010B50446124884420A
:1004000008D10121401502F0D9FE0021601502F04B
:10041000D5FE17E00D48844208D10121001502F0F5
:10042000CDFE0021201502F0C9FE0BE008488442F1
:1004300008D10121C80302F0C1FE00214FF40040A1
:1004400002F0BCFE10BD0000002401400028014065
:10045000003C0140014600208A6812F0040F01D0E0
:10046000012000E0002070470146C86C80B2704750
:1004700070B502460020002300240B125568CEB24E
:1004800005EA060415681D4202D00CB1012000E007
:10049000002070BD014600208A6812F0080F01D0CC
:1004A000012000E00020704710B50023CBB21AB144
:1004B00044681C43446002E044689C43446010BDAF
:1004C00030B502460020002350680F4C20400D79C3
:1004D0000C6844EA05242043506090680B4C20408F
:1004E000D1E902542C434D7944EA450420439060FD
:1004F000D06A20F470000C7C641EE4B2234340EA0E
:100500000350D06230BD0000FFFEF0FFFDF7F1FFA9
:10051000F0B504460D4600200021092D11DDE068EC
:10052000A5F10A0606EB4607072606FA07F18843F7
:10053000A5F10A0606EB460603FA06F10843E06059
:100540000CE0206905EB4507072606FA07F188430A
:1005500005EB450603FA06F108432061072A0FDA86
:10056000606B561E06EB86071F2606FA07F18843C6
:10057000561E06EB860605FA06F10843606322E084
:100580000D2A0FDA206BD61F06EB86071F2606FA08
:1005900007F18843D61F06EB860605FA06F10843E5
:1005A000206310E0E06AA2F10D0606EB86071F2625
:1005B00006FA07F18843A2F10D0606EB860605FA56
:1005C00006F10843E062F0BD816841F008018160F6
:1005D000704721B1826842F4A002826003E0826821
:1005E00022F4A00282607047816841F004018160BA
:1005F000704700BFFEE700002DE9F047AB227049CD
:100600004FF4710001F006FB6D4890F8730001286B
:1006100005D102026B49002001F0FCFA2DE0684888
:1006200090F87300022805D1C2016649800401F0E8
:10063000F1FA22E0624890F87300032806D14FF4E3
:1006400080726049100301F0E5FA16E05C4890F80A
:100650007300042805D182015A49000501F0DAFA35
:100660000BE0574890F87300052806D14FF48072CC
:1006700054494FF4600001F0CDFA0026002551489E
:1006800040780D2802DD0D204E494870002446E0D8
:100690004C480078672800D045E004EBC4004000D7
:1006A000401D4849095C464890F87400814235D1A4
:1006B00004EBC4004000801D42490D5C2D0204EB98
:1006C000C4004000C01D085C05442D0204EBC400BA
:1006D00040000830085C05442D0204EBC4004000D3
:1006E0000930085C054404EBC400400012300E5C85
:1006F000360204EBC40040001330085C06443602A6
:1007000004EBC40040001430085C0644360204EBDD
:10071000C40040001530085C064404E0641C29480D
:100720004078A042B4D800BF002D46D001F070FC44
:10073000352001F0FDFBDFF88CA0234F00240CE0F6
:1007400007E0381901F0FAFB8046B8F1040F00D138
:1007500000E0F6E700BF04F50064AC42F0D90024E5
:1007600020E0F80AC002B84208D1022101FB04606F
:100770008A02144901F04EFA4FF000094FF00108C7
:1007800005E03AF81910384601F022FC8046B8F12D
:10079000040FF6D1352001F0CBFB641C09F10109EF
:1007A000BF1CAD1E002DDCD101F008FC4FF47A74A3
:1007B00000BF2000A4F10104FBD1BDE8F0870000D8
:1007C0007E020020C20400200000010870B5FF2551
:1007D0003748008800280DDD00BF002408E03548B8
:1007E000005D00F00C000C2800D12546601CC4B24E
:1007F000032CF4DBB5B904212F4801F06EFE102163
:100800002D4801F06AFE4FF400712C4801F063FEA0
:100810004FF48071294801F060FE0821264801F05C
:100820005AFE43E0012D14D10821234801F055FE62
:100830001021214801F051FE6902204801F04DFECF
:1008400029021E4801F047FE04211B4801F043FE27
:100850002CE0022D14D10821174801F03EFE04219E
:10086000154801F03AFE2902144801F036FEE9016C
:10087000124801F032FE10210F4801F02CFE15E065
:100880004FF400710D4801F026FE4FF480710B48C3
:1008900001F021FE0821084801F01FFE042106484E
:1008A00001F01BFE1021044801F017FE70BD00008E
:1008B0000C0100201401002000100140000C014038
:1008C00070B5FF253548408800280DDD00BF0324A2
:1008D00008E03348005D00F00C000C2800D12546EC
:1008E000601CC4B2062CF4DB032D14D101212D4869
:1008F00001F0F3FD02212B4801F0EFFD02212A480F
:1009000001F0EBFD0121284801F0E5FD20212748F9
:1009100001F0E1FD41E0042D14D12021234801F034
:10092000DCFD02211F4801F0D8FD02211E4801F024
:10093000D4FD01211C4801F0D0FD0121194801F02E
:10094000CAFD2AE0052D14D12021184801F0C5FD6B
:100950000121144801F0C1FD0221134801F0BBFD43
:100960000121114801F0B9FD02210E4801F0B3FD4B
:1009700013E002210C4801F0AEFD01210A4801F00C
:10098000AAFD2021094801F0A8FD0121054801F038
:10099000A4FD0221034801F0A0FD70BD0C01002060
:1009A00014010020000C014000180140001001401B
:1009B00070B50025002400208B490870AB228B49BC
:1009C0004FF4710001F026F9884890F86F0015285F
:1009D00072D1864890F870000428F9D184480079D3
:1009E00042286AD1814890F87200032804DA7F48CF
:1009F00090F87100E02842D115207C4981F86F0001
:100A000004217A4880F87010002405E0002177481E
:100A100071300155601CC4B2042CF7DB0F20734900
:100A200081F85D000021714880F85E10002405E027
:100A3000FF216E485F300155601CC4B2102CF7DBFB
:100A40004FF4710001F0B2F9AB2268494FF4710024
:100A500001F008FA01F0DCFA352001F069FA06E04D
:100A6000644801F06BFA0546042D00D100E0F7E779
:100A700000BF01F0A3FA00205B490870B3E05B48B7
:100A800090F87100012819D1584890F87200401C64
:100A9000C1B2564880F872104FF4710001F086F927
:100AA000AB2252494FF4710001F0DCF9FFF7A4FDCD
:100AB00001204D49087096E03BE015E04D48006884
:100AC0006FF31300B0F1005F0AD14A4840686FF33A
:100AD0001300B0F1006F03D101204349087082E098
:100AE0000020414908707EE0404890F871000128DC
:100AF0001BD115203D4981F86F0004213B4880F847
:100B00007010002405E00021384871300155601C48
:100B1000C4B2042CF7DB4FF4710001F047F9AB22AB
:100B200032494FF4710001F09DF900202E49087000
:100B300059E02F480079422831D115202B4981F8FE
:100B40006F000421294880F87010002405E000217E
:100B5000264871300155601CC4B2042CF7DB4FF4F9
:100B6000710001F023F9AB2220494FF4710001F02C
:100B700079F9204800686FF31300B0F1005F0AD1E3
:100B80001C4840686FF31300B0F1006F03D10120DF
:100B90001549087027E000201349087023E0134826
:100BA00090F8710001281BD11520104981F86F00C1
:100BB00004210E4880F87010002405E000210B4845
:100BC00071300155601CC4B2042CF7DB4FF4710086
:100BD00001F0ECF8AB2205494FF4710001F042F945
:100BE00000200149087070BD400200207E020020F4
:100BF000480200200000010810B501200A490870D1
:100C00000A48007840F0010008490870012000F00F
:100C100053F800210648FFF7CEFB0648C06880F075
:100C200008000449C86010BD58010020440100209C
:100C3000002401400010014010B501200549087052
:100C400000F03AF80448808820F0010002498880CA
:100C500010BD0000580100200030014030B58BB0BD
:100C600005460C460121084602F068FA104800F0DB
:100C700045F81048009001950020029003940490DC
:100C8000802005904000069080000790002008908A
:100C90004FF40050099000200A906946044800F083
:100CA000D3F80121024800F015F80BB030BD000068
:100CB0001C0002400C30014010F0805F02D003495C
:100CC000086001E0024948607047000004040240E7
:100CD0000000024021B1026842F00102026004E01B
:100CE00002684FF6FE731A400260704710B510217B
:100CF0000148FFF7B3FF10BDE229002001684FF65D
:100D0000FE72114001600021016041608160C1609C
:100D10004B49884208D14A490839496841F00F01D6
:100D2000474A083A51608AE045491431884208D15F
:100D300043490839496841F0F001414A083A516095
:100D40007DE03F492831884208D13D49083949684A
:100D500041F470613A4A083A516070E038493C31D8
:100D6000884208D136490839496841F47041344A0B
:100D7000083A516063E032495031884208D1304925
:100D80000839496841F470212D4A083A516056E00B
:100D90002B496431884208D129490839496841F40E
:100DA0007001274A083A516049E025497831884264
:100DB00008D123490839496841F07061204A083A4E
:100DC00051603CE01F49884206D1011F096841F08B
:100DD0000F01021F116032E01A491431884208D114
:100DE0001849091F096841F0F001164A121F1160E5
:100DF00025E014492831884208D11249091F0968A1
:100E000041F470610F4A121F116018E00D493C3126
:100E1000884208D10B49091F096841F47041094A09
:100E2000121F11600BE007495031884207D1054974
:100E3000091F096841F47021024A121F11607047AE
:100E4000080002400804024010B50022026847F67C
:100E5000F0739A430C6A8B6823430C6923434C69F3
:100E600023438C692343CC6923434C6A23438C6A14
:100E700023431A430260CB6843600B6883604B686E
:100E8000C36010BD704708B50021009102E00099D1
:100E9000491C009100EBC00101EB0011009AB2EB7C
:100EA000411FF4D308BD000001B50849009808604F
:100EB0004FF0E020006940F001004FF0E0210861B0
:100EC00000BF024800680028FBD108BD28000020B0
:100ED00002F014F92DE9F0470746884691469A46F4
:100EE0004FF480723349002000F094FE0025002664
:100EF000304840780D2802DD0D202E49487000242E
:100F000049E02C480078672800D048E004EBC40191
:100F10004900491D274A505C00EBD0714910A0EBF5
:100F20004101494535D104EBC4004000801D114604
:100F30000E5C360204EBC4004000C01D085C064491
:100F4000360204EBC40040000830085C0644360258
:100F500004EBC40040000930085C064404EBC40004
:100F6000400012300D5C2D0204EBC4004000133031
:100F7000085C05442D0204EBC40040001430085CFA
:100F800005442D0204EBC40040001530085C054404
:100F900005E0601C84B207484078A042B1DC00BF85
:100FA00036B11FFA88F1B8B253462A4608F044FB1E
:100FB000BDE8F087C204002010B5044624B908211A
:100FC000134801F08AFA21E0012C04D104211048D1
:100FD00001F083FA1AE0022C04D110210C4801F030
:100FE0007CFA13E0032C04D12021094801F075FAA2
:100FF0000CE0042C04D10121064801F06EFA05E052
:10100000052C03D10221034801F067FA10BD00004E
:1010100000100140000C014010B5044624B908211D
:10102000134801F058FA21E0012C04D104211048A2
:1010300001F051FA1AE0022C04D110210C4801F001
:101040004AFA13E0032C04D12021094801F043FAA5
:101050000CE0042C04D10121064801F03CFA05E023
:10106000052C03D10221034801F035FA10BD000020
:1010700000100140000C014070B5FC4800880028B9
:101080006FDDFB48007810F0F00F1BD1F9480068C5
:10109000F94908601F20F64908700846007800F0FA
:1010A0000F040120F549087048708870FFF78EFB27
:1010B0000020FFF7B1FF0120FFF7AEFF0220FFF78E
:1010C000ABFF4FE2EA48007800F0F000102821D191
:1010D000E8480068E8490968401AC828F1D3E5489B
:1010E0000068E5490860E248007800F00F04E44831
:1010F000018DE448808980308142E2DD00240C20AB
:10110000DE49085504F12000D94908702046FFF750
:1011100053FF27E2D648007800F0F000202831D1B4
:10112000D4480068D4490968401AB0F5FA7FC8D39A
:10113000D0480068D0490860CD48007800F00F041E
:10114000CF48018DCF488089803081420ADA0C2057
:10115000CA49085504F13000C5490870FFF736FB4D
:1011600000E224E10020C5490855022C02DBC049F9
:101170000870F7E104F12100BD490870601CFFF719
:101180001BFFEFE1BA48007800F0F000302825D1CD
:10119000B8480068B8490968401A40F2DC518842F2
:1011A0008FD3B4480068B4490860B148007800F0B3
:1011B0000F04B348018DB34880898030814207DD38
:1011C0000C20AE49085504F14000A9490870C9E156
:1011D0000020AA490855A6490870C3E1A448007830
:1011E00000F0F00040283ED1A2480068A2490968FA
:1011F000401A64288DD39F4800689F4908609C4826
:10120000007800F00F049E48018D9E488089603070
:1012100081421DDA9C480078401C9B4908700846B2
:10122000007803289CDD032094490870487088707A
:101230000C20085504F150008D4908700020FFF77C
:10124000EBFE0120FFF7E8FE0220FFF7E5FE89E153
:1012500002208A490870487088700C2008550020C8
:10126000894908707EE18248007800F0F00050283B
:101270002ED18048006880490968401A3228A6D3D8
:101280007C4800687C4908607948007800F00F04C9
:101290007B48018D7B4880898030814297DD0C201E
:1012A0007649085504F160007149087000250CE08A
:1012B0007248405D032806D12846FFF77DFE0420D2
:1012C0006E49485503E0681CC5B2032DF0DB49E1C7
:1012D0006748007800F0F000602864D16548006835
:1012E00065490968401A3228B1D3624800686249EA
:1012F00008605F48007800F00F046148018D614884
:1013000080896030814222DA00251DE05B48405D23
:10131000042817D12C460620584908704870887058
:101320000C20085504F1100051490870FFF74EFADF
:101330000020FFF771FE0120FFF76EFE0220FFF78D
:101340006BFE03E0681CC5B2032DDFDB0AE100255C
:1013500008E04A48405D042802D105204749485525
:10136000681CC5B2032DF4DB00250CE04348405D4A
:10137000032806D12846FFF71FFE04203F494855A1
:1013800003E0681CC5B2032DF0DB00BF032D9EDB1C
:101390000C203A4908552046FFF73EFE04F1400074
:1013A00033490870DEE0002031490870DAE0304847
:1013B000007810F0F00F14D12E4800682E49086014
:1013C00010202B4908700846007800F00F04012017
:1013D0002A490870487088700C200855FFF7F6F904
:1013E000C0E02348007800F0F00010284ED12148DA
:1013F000006821490968401A40F2DC518842A5D3AF
:101400001C4800681C4908601948007800F00F0467
:101410001B48018D1B4880898030814209DD0C20EA
:101420001649085504F1300011490870FFF7CEF94C
:1014300098E0022C0EDA0120104908550C210F4AC1
:10144000601C11540A480078401C09490870FFF7D5
:10145000BDF987E00120094908550C2008701020CB
:1014600003490870FFF7B2F97CE00000100100208A
:101470001A0100202C000020DC00002014010020B4
:10148000622A0020E22C00201C010020364800784F
:1014900000F0F000302824D134480068344909684D
:1014A000401AB0F5FA7F5DD33048006830490860D3
:1014B0002D48007800F00F042E48018D2E488089B9
:1014C0008030814207DD0C202C49085504F1400092
:1014D0002549087046E0002028490855224908702F
:1014E00040E02148007800F0F000402837D11F4844
:1014F00000681F490968401A642833D31B480068F4
:101500001B4908601848007800F00F041948018D45
:10151000194880896030814216DA19480078401CE9
:10152000174908700846007803281BDD032013497B
:101530000870487088700C20085504F110000A49A2
:101540000870FFF743F90DE002200C49087048705D
:1015500088700C20085500200949087002E000201E
:101560000149087070BD00001A0100202C00002005
:10157000DC000020622A0020E22C00201401002060
:101580001C01002070B5F748408800286FDDF64840
:10159000007810F0F00F1BD1F4480068F44908609F
:1015A0001F20F14908700846007800F00F04012060
:1015B000F049C87008714871FFF782F90320FFF7FE
:1015C0002BFD0420FFF728FD0520FFF725FD50E245
:1015D000E548007800F0F000102821D1E3480068C9
:1015E000E3490968401AC828F1D3E0480068E04997
:1015F0000860DD48007800F00F04DF48C18DDF4847
:10160000C08980308142E2DD03240C20D94908558D
:1016100004F12000D44908702046FFF7CDFC28E2F1
:10162000D148007800F0F000202832D1CF4800687F
:10163000CF490968401AB0F5FA7FC8D3CB48006893
:10164000CB490860C848007800F00F04CA48C18D33
:10165000CA48C089803081420ADA0C20C549085541
:1016600004F13000C0490870FFF72AF901E226E1D1
:101670000020C0490855052C03DB0320BA49087037
:10168000F7E104F12100B8490870601CFFF794FCF1
:10169000EFE1B548007800F0F000302826D1B348DB
:1016A0000068B3490968401A40F2DC5188428ED381
:1016B000AE480068AE490860AB48007800F00F04FF
:1016C000AD48C18DAD48C0898030814207DD0C2016
:1016D000A849085504F14000A3490870C9E1002059
:1016E000A44908550320A0490870C2E19E4800782B
:1016F00000F0F00040283ED19C4800689C490968F1
:10170000401A64288BD39948006899490860964824
:10171000007800F00F049848C18D9848C089603067
:1017200081421DDA96480078401C954908700846A9
:10173000007803289ADD03208E49C870087148712B
:101740000C20085504F15000874908700320FFF76A
:1017500063FC0420FFF760FC0520FFF75DFC88E1D7
:1017600002208449C870087148710C200855002077
:10177000834908707DE17C48007800F0F000502833
:101780002ED17A4800687A490968401A3228A5D3D0
:1017900076480068764908607348007800F00F04C6
:1017A0007548C18D7548C0898030814296DD0C2016
:1017B0007049085504F160006B49087003250CE07E
:1017C0006C48405D032806D12846FFF7F5FB04204E
:1017D0006849485503E0681CC5B2062DF0DB48E1B6
:1017E0006148007800F0F000602864D15F4800682C
:1017F0005F490968401A3228B1D35C4800685C49E7
:1018000008605948007800F00F045B48C18D5B48C0
:10181000C0896030814222DA03251DE05548405DD1
:10182000042817D12C4606205249C8700871487107
:101830000C20085504F110004B490870FFF740F8E0
:101840000320FFF7E9FB0420FFF7E6FB0520FFF785
:10185000E3FB03E0681CC5B2062DDFDB09E10325CD
:1018600008E04448405D042802D10520414948551C
:10187000681CC5B2062DF4DB03250CE03D48405D35
:10188000032806D12846FFF797FB0420394948551D
:1018900003E0681CC5B2062DF0DB00BF062D9EDB01
:1018A0000C20344908552046FFF7B6FB04F14000F0
:1018B0002D490870DDE000202B490870D9E02A4846
:1018C000007810F0F00F14D128480068284908600B
:1018D0001320254908700846007800F00F04012005
:1018E0002449C870087148710C200855FEF7E8FFBC
:1018F000BFE01D48007800F0F00010284DD11B48D3
:1019000000681B490968401A40F2DC518842A5D39F
:1019100016480068164908601348007800F00F0464
:101920001548C18D1548C0898030814209DD0C20E1
:101930001049085504F130000B490870FEF7C0FF4C
:1019400097E0052C1EDA01200A4908550C21094AA6
:10195000601C115404480078401C03490870FEF7CD
:10196000AFFF86E0100100201B0100202C000020AA
:10197000E000002014010020622A0020E22C002058
:101980001D01002001203B4908550C20C870132080
:1019900039490870FEF794FF6BE03748007800F093
:1019A000F000302824D13548006835490968401ACC
:1019B000B0F5FA7F5DD331480068314908602E48A0
:1019C000007800F00F042F48C18D2F48C089803067
:1019D000814207DD0C202749085504F140002649C3
:1019E000087046E00020234908552349087040E06C
:1019F0002148007800F0F000402837D11F480068E7
:101A00001F490968401A642833D31C4800681C49E0
:101A100008601948007800F00F041A48C18D1A4870
:101A2000C0896030814216DA18480078401C174996
:101A300008700846007803281BDD03200D49C87094
:101A4000087148710C20085504F110000A4908700B
:101A5000FEF736FF0DE002200649C8700871487194
:101A60000C20085500200949087002E000200249B6
:101A7000087070BD140100201B0100202C00002004
:101A8000E0000020622A0020E22C00201D0100203E
:101A900010B54FF4805000F055F8B8B14FF48050B5
:101AA00000F04AF80A48C06884B214F0080F04D164
:101AB0000821074800F011FD03E00821044800F068
:101AC0000AFD04480088401C0249088010BD00003F
:101AD000001001409201002010B5022000F032F801
:101AE000B0B1022000F028F80A48C06884B214F0AF
:101AF000080F04D10821074800F0EFFC03E008219B
:101B0000044800F0E8FC04480088401C02490880B2
:101B100010BD0000001001408A01002010B5102007
:101B200000F010F828B1012002490870102000F0E0
:101B300003F810BDFC000020014908607047000058
:101B400014040140014600200022074B1B6803EAF1
:101B50000102054B14331B680B4202D00AB101206D
:101B600000E00020704700000004014010B504466A
:101B7000012C04D11021044800F0ADFC03E0102139
:101B8000014800F0AAFC10BD0008014010B500BFDC
:101B90000120FFF7EBFF0A2007F046FD1B48808974
:101BA0001B49087000BF0221184801F07DFD002884
:101BB000F9D005201549888100BF0121134801F0A3
:101BC00073FD0028F9D0114880891149087000BFC1
:101BD00002210E4801F068FD0028F9D005200B49CC
:101BE000888100BF0121094801F05EFD0028F9D07D
:101BF00006488089064908700020FFF7B7FF0448AF
:101C0000007810F0010FC3D110BD0000003001407A
:101C1000D80100202DE9F04704460E461546C4F3CE
:101C20000747C4F3072804F0FF090120FFF79EFFD0
:101C300000BF02212D4801F037FD0028F9D0032014
:101C40002A49888100BF0221284801F02DFD002883
:101C5000F9D02648878100BF0221244801F024FDE5
:101C60000028F9D02148A0F80C8000BF02211F48AD
:101C700001F01AFD0028F9D01C48A0F80C904FF490
:101C8000FA7007F0D1FC00BF0121184801F00CFDEB
:101C90000028F9D015488089154908702946304632
:101CA00001F004FC0AE000BF0221104801F0FCFC36
:101CB0000028F9D000200D4988816D1E002DF2D139
:101CC0004FF4FA7007F0B0FC0848808820F001005B
:101CD000064988804FF4FA7007F0A6FC022007F04E
:101CE000A3FC0020FFF742FFBDE8F0870030014071
:101CF000D80100202DE9F0410446C4F30745C4F3A0
:101D00000726E7B20120FFF731FF00BF0221264876
:101D100001F0CAFC0028F9D00620234988814FF43D
:101D20007A7007F081FC0020FFF720FF0120FFF709
:101D30001DFF00BF02211C4801F0B6FC0028F9D0AD
:101D4000D8201949888100BF0221174801F0ACFC56
:101D50000028F9D01448858100BF0221124801F003
:101D6000A3FC0028F9D01048868100BF02210E484C
:101D700001F09AFC0028F9D00B48878100BF0121AF
:101D8000094801F091FC0028F9D04FF47A7007F06F
:101D90004BFC0020FFF7EAFEFFF7F8FE022007F0F9
:101DA00043FCBDE8F0810000003001402DE9F04126
:101DB0000446C4F30745C4F30726E7B20120FFF742
:101DC000D5FE00BF0221264801F06EFC0028F9D0A4
:101DD0000620234988814FF47A7007F025FC002003
:101DE000FFF7C4FE0120FFF7C1FE00BF02211C481F
:101DF00001F05AFC0028F9D020201949888100BF41
:101E00000221174801F050FC0028F9D014488581C0
:101E100000BF0221124801F047FC0028F9D0104809
:101E2000868100BF02210E4801F03EFC0028F9D057
:101E30000B48878100BF0121094801F035FC0028CB
:101E4000F9D04FF47A7007F0EFFB0020FFF78EFE19
:101E5000FFF79CFE022007F0E7FBBDE8F0810000E1
:101E6000003001402DE9F04704460D461646C4F304
:101E70000747C4F3072804F0FF090120FFF776FEA7
:101E800000BF0221294801F00FFC0028F9D00620EC
:101E9000264988814FF4FA7007F0C6FB0020FFF74F
:101EA00065FE0120FFF762FE00BF02211F4801F01E
:101EB000FBFB0028F9D002201C49888100BF0221C9
:101EC0001A4801F0F1FB0028F9D01848878100BFBB
:101ED0000221164801F0E8FB0028F9D01348A0F8C9
:101EE0000C8000BF0221114801F0DEFB0028F9D070
:101EF0000E48A0F80C900BE000BF02210B4801F047
:101F0000D3FB0028F9D02878084988816D1C761EFB
:101F1000002EF1D14FF4FA7007F086FB0020FFF796
:101F200025FEFFF733FEBDE8F087000000300140DA
:101F30000149C860704700000020024030B50446E7
:101F400004254FF4302000F06FF80546042D17D11A
:101F50000C48006940F002000A49086108464461E3
:101F6000006940F0400008614FF4302000F05CF858
:101F700005460448006941F6FD71084001490861C1
:101F8000284630BD0020024004200B49C96811F0EA
:101F9000010F01D001200EE00749C96811F0040FBC
:101FA00001D0022007E00449C96811F0100F01D0E8
:101FB000032000E00420704700200240034800692D
:101FC00040F0800001490861704700000020024095
:101FD00070B504460D460426F00200F025F80646CA
:101FE000042E11D10948006940F001000749086139
:101FF0002580F00200F018F806460448006941F612
:10200000FE71084001490861304670BD0020024061
:102010000248034948600348486070472301674508
:1020200000200240AB89EFCD00B502460423FFF744
:10203000ABFF034603E0FFF7A7FF0346521E012B49
:1020400001D1002AF7D102B90523184600BD00B519
:102050009DB00121080201F071F80120079008905D
:102060000320099000200A900B9003200C904FF061
:1020700080500D90012000900190072002900020D8
:1020800003900490072005904FF0805006900020A8
:102090000E900F90082010901020119000201290A8
:1020A0001490159016904FF48050179000201890BF
:1020B0004FF48040199000201A90CDF86CD007A8FA
:1020C0001C900EA800F020F80121002000F002F87A
:1020D0001DB000BD51B14FF0204252F8202042F017
:1020E00001024FF0204343F8202009E04FF0204246
:1020F00052F82020034B1A404FF0204343F8202091
:1021000070470000FEFF0F00D0E901121143C268C2
:102110001143026911434269114382691143C26943
:102120001143026A1143426A1143826A1143C26A2F
:102130001143026B11434FF02043026843F8221011
:102140008168082908D11A46016852F8211041F027
:102150004001026843F82210416B0968426B5268E3
:1021600041EA0211426B926841EA0221426B928974
:1021700041EA0241426B128A41EA0251426B127DEE
:1021800041EA0261426B926911430268521C4FF0AE
:10219000204343F82210C16AB1F5804F1AD1816BF8
:1021A0000968826B526841EA0211826B926841EAC7
:1021B0000221826B128A41EA0251826B127D41EA4E
:1021C0000261826B92691143026803EB8202C2F8DA
:1021D000041108E06FF070414FF02043026803EBF8
:1021E0008202C2F8041170472DE9F047074688467D
:1021F0009146022F5ED142022F498004FFF70AFD6B
:10220000002600252C484078342802DD34202A4955
:102210004870002443E028480078672800D042E056
:1022200004EBC4004000401D2349085C404534D104
:1022300004EBC4004000801D0D5C2D0204EBC400C3
:102240004000C01D085C05442D0204EBC4004000A2
:102250000830085C05442D0204EBC400400009303E
:10226000085C054404EBC400400012300E5C3602EA
:1022700004EBC40040001330085C0644360204EB53
:10228000C40040001430085C0644360204EBC4006D
:1022900040001530085C064405E0601C84B2064826
:1022A0004078A042B7DC00BF25B12A4649463046F7
:1022B000FFF7B0FCBDE8F087C204002010B5144B56
:1022C0001B885B1CC3F30803124CE25C4FF6FF73E0
:1022D00003EA4202002001210AE00D4B1B880B4457
:1022E000C3F308030B4CE35C0344D8B24B1C99B214
:1022F000931E8B42F1DC064B1B880B44C3F308038F
:10230000044CE35C834201D1FF2000E0002010BDBB
:1023100030000020E22500202DE9F0410246002592
:102320000026002000230024002791F803C00CF0B1
:102330000F0591F803C01CF0100F03D091F802C0F4
:102340004CEA050591F800C0BCF1000F31D01468CB
:1023500000202BE04FF0010C0CFA00F3B1F800C0A4
:102360000CEA03069E4220D183004FF00F0C0CFABA
:1023700003F7BC4305FA03FC4CEA040491F803C0DC
:10238000BCF1280F06D14FF0010C0CFA00FCC2F88A
:1023900014C00AE091F803C0BCF1480F05D14FF01A
:1023A000010C0CFA00FCC2F810C0401C0828D1D364
:1023B0001460B1F800C0BCF1FF0F34DD5468002098
:1023C0002EE000F1080C4FF0010808FA0CF3B1F808
:1023D00000C00CEA03069E4221D183004FF00F0C8F
:1023E0000CFA03F7BC4305FA03FC4CEA040491F829
:1023F00003C0BCF1280F05D100F1080C08FA0CF855
:10240000C2F8148091F803C0BCF1480F07D100F165
:10241000080C4FF0010808FA0CF8C2F81080401CB4
:102420000828CED35460BDE8F081C2684A40C2603B
:1024300070470000F0B50A46002300240021002563
:1024400000F00046B6F1004F02D11D4EF16901E0E7
:102450001B4E7168C0F3034583B200F44016B6F515
:10246000401F08D121F07061154E766826F0706625
:10247000134F7E6012E000F48016B6F5801F06D17F
:10248000032606FA05F4A14341F0706106E0460D0B
:10249000360103FA06F6B14341F0706122B1460DF0
:1024A000360103FA06F6314300F00046B6F1004F5C
:1024B00002D1034EF16101E0014E7160F0BD0000F8
:1024C000000001400246002093680B4201D0012029
:1024D00000E00020704741617047016170470000D3
:1024E00000200AE000EB4001891C054A32F8111077
:1024F000044A22F81010411CC8B20828F2DB7047C9
:10250000622A0020E22C002000BFFEE74CF6CC40FF
:1025100001490860704700000030004070B5054672
:102520000C4645F2555000F01FF8284600F010F810
:10253000204600F013F800F003F8FFF7E7FF70BD46
:102540004AF6AA20014908607047000000300040A8
:102550000149486070470000003000400149886030
:1025600070470000003000400149086070470000DB
:102570000030004070B50446F026EF2340F23F12D1
:102580000021084600F06EFC00F08EFC08E00025FB
:1025900003E006480480681C85B2B5F5A07FF8DB2F
:1025A0003000A6F101018EB2F1D170BD00000260D1
:1025B0002DE9F04304460D4616461F46DDF81C8003
:1025C0003B4632462946204600F04CFC00F06CFCAD
:1025D000781B401C311B491C00FB01F902E0084834
:1025E000A0F800805FEA0900A9F10109F7D1F02302
:1025F0004FF4A0720021084600F034FCBDE8F083DF
:102600000000026008B50121612000F0C7FD4CF216
:102610003370ADF8000003208DF8020018208DF80B
:10262000030069460948FFF777FE4FF68070ADF862
:10263000000069460648FFF76FFE4FF40060ADF8F2
:10264000000069460148FFF767FE08BD001401401D
:102650000018014000B53220FEF715FCE2204FF0D3
:10266000C04108800120FEF70EFC2320C6490880E7
:102670000120FEF708FC0220C34908800120FEF774
:1026800002FC0420C04908804FF4FA70FEF7FBFBFF
:10269000E0204FF0C04108800120FEF7F4FB01204C
:1026A000B94908804FF4FA70FEF7EDFBE0204FF0D7
:1026B000C04108800120FEF7E6FB0320B2490880F4
:1026C0000520FEF7E0FB01204FF0C0410880052007
:1026D000FEF7D9FBE620010708800120FEF7D3FBB7
:1026E0000020A94908800120FEF7CDFBDB20A64988
:1026F00008800120FEF7C7FB0020A3490880B02016
:10270000410608800120FEF7BEFB20209E4908807C
:102710000120FEF7B8FB00209B4908800120FEF74E
:10272000B2FB012098490880FEF7ADFB3F20964997
:1027300008800120FEF7A7FB0020934908800120B4
:10274000FEF7A1FBEF20904908800120FEF79BFBDC
:1027500000208D4908800120FEF795FBB4204FF042
:10276000C04108800120FEF78EFB012086490880C9
:10277000FEF789FB9820844908800120FEF783FB3F
:102780000020814908800120FEF77DFB46207E491C
:1027900008800120FEF777FB01207B490880FEF7C7
:1027A00072FB0020784908800120FEF76CFB0020B6
:1027B000754908800120FEF766FB002072490880F9
:1027C0000120FEF760FBB620010708800120FEF71C
:1027D0005AFB01206C490880FEF755FB07206A4927
:1027E00008800120FEF74FFB002067490880012088
:1027F000FEF749FB0D20644908800120FEF743FBEA
:10280000012061490880FEF73EFB00205E490880F8
:102810000120FEF738FB00205B4908800120FEF70D
:1028200032FB2A204FF0C04108800120FEF72BFB2D
:102830000020554908800120FEF725FB0020524961
:1028400008800120FEF71FFB01204F490880FEF79A
:102850001AFB3F204C4908800120FEF714FB2B2077
:10286000410708800120FEF70EFB00204649088042
:102870000120FEF708FB0020434908800120FEF7F5
:1028800002FB0020404908800120FEF7FCFAEF20FF
:102890003D4908800120FEF7F6FABA204FF0C0410A
:1028A00008800120FEF7EFFA052037490880012053
:1028B000FEF7E9FAB8204FF0C04108800120FEF78A
:1028C000E2FA0720304908800120FEF7DCFA0120F7
:1028D0002D490880FEF7D7FA36200107088001202D
:1028E000FEF7D1FA3020284908800120FEF7CBFA04
:1028F000F0204FF0C04108800120FEF7C4FA032009
:10290000214908800520FEF7BEFA29204FF0C0417A
:1029100008800120FEF7B7FABE204FF0C0410880C2
:102920000120FEF7B0FA0620174908800120FEF7C3
:10293000AAFA8020144908800120FEF7A4FA012099
:1029400011490880FEF79FFAF0200F490880012006
:10295000FEF799FA00200C4908800120FEF793FA4F
:102960000020094908800120FEF78DFAD0204FF0A1
:10297000C04108800120FEF786FA0D200249088038
:102980000520FEF780FA00BD0000026010B580212E
:102990000748FFF7A2FD4FF400510648FFF79BFDE3
:1029A000FFF758FE4FF400510248FFF796FD10BDA7
:1029B000001001400014014010B580210748FFF7C6
:1029C0008CFD4FF400510648FFF785FDFFF742FEEE
:1029D0004FF400510248FFF780FD10BD0010014088
:1029E0000014014010B54FF480511A48FFF773FDF1
:1029F0004FF400511748FFF76EFD80211648FFF78E
:102A00006AFDC820FEF750FA80211348FFF765FDE4
:102A10004FF480510F48FFF760FD4FF400510D480F
:102A2000FFF75BFD4FF480510A48FFF754FD4FF468
:102A300000510848FFF74FFDFFF70CFE4FF480519F
:102A40000448FFF74AFD4FF400510248FFF745FDE7
:102A500010BD000000140140001001402DE9FC47AA
:102A60000020F849487080468146F748807931282F
:102A70007ED14FF48051F548FFF72DFDB7204FF080
:102A8000C04108800A2400BF2000A4F10101CCB29B
:102A9000FAD1EF4807884FF6FF7000EA0727EC48A5
:102AA0000088384487B24FF48051E848FFF715FD9D
:102AB0000A2400BF2000A4F10101CCB2FAD14FF4E6
:102AC0008051E248FFF707FDE320410708806424B6
:102AD00000BF2000A4F10101CCB2FAD1DC48058886
:102AE0002D02008805442D02D948008805444FF482
:102AF0008051D648FFF7F1FC0A2400BF2000A4F162
:102B00000101CCB2FAD14FF48051D048FFF7E3FC79
:102B1000E7204FF0C0410880642400BF2000A4F1EA
:102B20000101CCB2FAD1CA480688360200880644B0
:102B30003602C748008806444FF48051C348FFF767
:102B4000CCFCA7F58070073805D1C248854202D178
:102B5000B6F55B4F14D04FF0FF08C146B948407836
:102B600040F00100B7494870FFF73CFFB54800E06E
:102B700006E00089B8490860B2484089B749086052
:102B8000B048007B022804D1AE480089B2490860F1
:102B900013E0AC48C088032190FBF1F0A9490989F2
:102BA000AD4A1268891A884207D24FF0FF08FFF732
:102BB000EDFEA4480089A8490860A348807931281F
:102BC0007ED14FF40051A148FFF785FCB7204FF0AC
:102BD000C04108800A2400BF2000A4F10101CCB24A
:102BE000FAD19B4807884FF6FF7000EA07279848FC
:102BF0000088384487B24FF400519448FFF76DFCC9
:102C00000A2400BF2000A4F10101CCB2FAD14FF494
:102C100000518E48FFF75FFCE320410708806424E1
:102C200000BF2000A4F10101CCB2FAD18848058888
:102C30002D02008805442D028548008805444FF484
:102C400000518248FFF749FC0A2400BF2000A4F18C
:102C50000101CCB2FAD14FF400517C48FFF73BFCA4
:102C6000E7204FF0C0410880642400BF2000A4F199
:102C70000101CCB2FAD176480688360200880644B3
:102C800036027348008806444FF400516F48FFF73E
:102C900024FCA7F58070073805D16E48854202D123
:102CA000B6F55B4F14D04FF0FF08C1466548407839
:102CB00040F0020063494870FFF794FE614800E06D
:102CC00006E00089644908605E48408963490860FD
:102CD0005C48407B022804D15A4840895F4908601B
:102CE00013E05848C088032190FBF1F05549498909
:102CF0005A4A1268891A884207D24FF0FF09FFF733
:102D00005BFE5048408955490860B8F1FF0F49D132
:102D10004C48007B012819D100904A48037B0322CC
:102D20000021084606F0F0FD01230022382173201F
:102D3000FEF7D0F801204FF6FF710023484ACDE995
:102D400000107D210F2008F01FF82BE03D48007B8C
:102D5000D8B9012000903B48037B0322002108469C
:102D600006F0D2FD0123002238215020FEF7B2F8F0
:102D700001204FF6FF710023394ACDE900107D2173
:102D80004FF4877008F000F80CE02E48007B022812
:102D900008D1012000902B48037B03220021084624
:102DA00006F0B2FDB9F1FF0F49D12648407B01285A
:102DB0001AD1022000902348437B032200210846B9
:102DC00006F0A2FD0223012238217320FEF782F8CB
:102DD00002204FF6FF710023214ACDE900107D212A
:102DE0000F2007F0D1FF2AE01648407BD8B9022017
:102DF00000901448437B03220021084606F084FD1E
:102E00000223012238215020FEF764F802204FF6F9
:102E1000FF710023124ACDE900107D214FF4877025
:102E200007F0B2FF0BE00748407B022807D1009073
:102E30000448437B03220021084606F065FDBDE8F7
:102E4000FC8700002A0300204802002000140140F3
:102E50000000026004022300E4000020E8000020DB
:102E6000062D002030B52A244FF0C0452C80C0F339
:102E70000F240C4D2C80C4B22C80C2F30F242C8064
:102E8000D4B22C802B2465072C80C1F30F24054D70
:102E90002C80CCB22C80C3F30F242C80DCB22C808D
:102EA00030BD0000000002602C20C1060880704781
:102EB00008B50121084600F071F901214248FFF7E9
:102EC000B9FA01217C2000F069F910208DF8030087
:102ED00003208DF80200B820ADF8000069463B4899
:102EE000FFF71AFA44F26730ADF800006946384837
:102EF000FFF712FA42F2BC00ADF80000694635480F
:102F0000FFF70AFA4FF44050ADF800006946324826
:102F1000FFF702FA7B20ADF8000069462F48FFF763
:102F2000FBF904208DF8030003208DF802004020F7
:102F3000ADF8000069462548FFF7EEF900208DF84E
:102F4000030003208DF802000720ADF80000694659
:102F50001E48FFF7E1F928208DF8030048208DF87E
:102F600003000420ADF8000069461C48FFF7D4F9BF
:102F700020211748FFF7B1FA40211548FFF7ADFAB5
:102F800020211648FFF7A9FA4FF400511148FFF726
:102F9000A4FA08210D48FFF79EFA4FF480410C482F
:102FA000FFF799FA10210948FFF797FA08210B4813
:102FB000FFF791FA40210948FFF78DFA10210748E1
:102FC000FFF789FA08BD0000000230000008014048
:102FD000000C0140001001400014014000180140A5
:102FE00000BFFEE7704708B525208DF800000120DE
:102FF0008DF8010000208DF8020001208DF80300FB
:10300000684600F02FF826208DF8000001208DF88A
:10301000010000208DF8020001208DF803006846B1
:1030200000F020F827208DF8000001208DF8010025
:1030300000208DF8020001208DF80300684600F0A2
:1030400011F812208DF8000001208DF801000020F9
:103050008DF8020001208DF80300684600F002F8A8
:1030600008BD000070B5002100230F22C4780CB306
:10307000164C246804F4E064C4F5E064210AC1F14C
:103080000403CA40447804FA03F1847814402143CD
:1030900009010F4C0678A155047804F01F0501249E
:1030A000AC4005786D114FF0E02606EB8505C5F8BC
:1030B000004109E0047804F01F050124AC40054DEF
:1030C0000678761145F8264070BD00000CED00E052
:1030D00000E400E080E100E00648006800F4E06001
:1030E00005490843001D03490860BFF3408F00BF36
:1030F000FEE700000CED00E00000FA05064800685D
:1031000000F4E06005490843001D03490860BFF36F
:10311000408F00BFFEE700000CED00E00000FA0564
:103120007047000001460020034A506820F44040E8
:1031300008435060704700000010024029B1064A61
:1031400052690243044B5A6104E0034A52698243C4
:10315000014B5A61704700000010024029B1064A35
:10316000D2690243044BDA6104E0034AD269824324
:10317000014BDA61704700000010024029B1064A95
:1031800012690243044B1A6104E0034A1269824344
:10319000014B1A61704700000010024029B1064A35
:1031A00092690243044B9A6104E0034A92698243A4
:1031B000014B9A61704700000010024029B1064A95
:1031C000D2680243044BDA6004E0034AD2688243C7
:1031D000014BDA60704700000010024030B500215A
:1031E0000022002400232D4D6D6805F00C0121B153
:1031F000042905D0082923D105E0294D056022E0E6
:10320000274D05601FE0254D6D6805F47012234DB4
:103210006D6805F48034022505EB92421CB9214DFE
:10322000554305600BE01D4D6D6815F4003F03D05C
:103230001C4D5543056002E0194D5543056002E001
:10324000174D056000BF00BF144D6D6805F0F0011B
:103250000909154D6B5C0568DD4045600F4D6D68D3
:1032600005F4E061090A104D6B5C4568DD4085603E
:103270000A4D6D6805F46051C90A0B4D6B5C4568D9
:10328000DD40C560054D6D6805F44041890B074D73
:103290006B5CC568B5FBF3F5056130BD00100240FD
:1032A00000127A0000093D001400002024000020D4
:1032B0002DE9F14F0027BB46402279490098FEF7DF
:1032C000A9FC7748007F18287ED1754890F80D80BA
:1032D0004FEA0828007B80444FEA08287048C07AEB
:1032E00080444FEA08286E48807A80446C48447DC8
:1032F0002402007D044424026948C07C0444240262
:103300006748807C044414F0010F04D004F1020AE1
:103310002AF0010A00E0A2466148467E3602007E9D
:10332000064436025E48C07D064436025C48807D15
:1033300006445B480078422803D1594840784D281C
:1033400000D00024B6F5A07F00D900240AFB06F0C7
:10335000422101EB400752498F70380AC870380C7F
:103360000871380E487142208872102008770320B7
:103370008877002081F83600F82081F83700002097
:1033800081F8380081F83900E02081F83A00072000
:1033900081F83B00002081F83C0081F83D001F20AF
:1033A00081F83E00002081F83F0081F8400081F85C
:1033B000410042213A4800F001FE002C6DD0F02C73
:1033C0006BD83748374900E067E00860002758E0CD
:1033D0004FF0000B52E007FB0AB5A805800D10D195
:1033E00025B14FF400612E4800F0E8FD00994144FA
:1033F00005EB450288184FF440622949FEF70AFCA4
:10340000A946A5EB090000EB4000801C2449085C9C
:10341000C01025490880084600884FF6FF7101EA70
:10342000801021490880A5EB090000EB4000401CFA
:103430001B49085C1C49098801EBA0001A49088057
:10344000084600884FF6FF7101EA401016490880CF
:10345000A5EB090000EB40001149085C12490988FE
:1034600001EBE0001049088008460088A5EB09013F
:103470000C4A126822F811000BF1010BA345AAD3E4
:103480007F1CB742A4D3A5EB0900401C4FF6FF7286
:1034900002EA4001024800F091FDBDE8F88F00000B
:1034A000C2040020F8000020F40000200B4AD2697A
:1034B00022F00102094BDA61094A928842F00102C6
:1034C000074B9A80064A0C32044B5A621A469062A5
:1034D000116242F28302DA6170470000000002408C
:1034E0000030014010B57121144800F0E6F818B31F
:1034F00013480088002818DD12480068124909881E
:10350000405C0E49888108468089104909680E4A46
:10351000128888540A480088401E094908800A48D1
:103520000088401C0849088002E001200849087012
:103530007121024800F082F810BD00000030014007
:10354000EA010020E4010020E2010020DC0100206B
:10355000EC01002000B587B0012141F20400FFF723
:103560001DFEE020ADF8040018208DF807000320B0
:103570008DF8060001A91E48FEF7CEFE1020ADF81A
:1035800004008DF8070003208DF8060001A91848F3
:10359000FEF7C2FE10211648FEF79FFF154800F007
:1035A00057F80020ADF808004FF48270ADF80A001B
:1035B0000020ADF80C000220ADF80E000120ADF89F
:1035C00010004002ADF812001820ADF814000020E1
:1035D000ADF816000720ADF8180002A9054800F064
:1035E00086F80121034800F008F807B000BD00008C
:1035F0000008014000300140704721B1028842F0CC
:103600004002028004E002884FF6BF731A40028035
:103610007047000010B50548054908600549086075
:10362000FFF798FF80200449088010BDE2290020A0
:10363000DC010020E4010020E001002010B50022A0
:1036400001F00F040123A3409AB2D343038110BDBC
:1036500010B504461148844208D101218014FFF7B7
:10366000ADFD0021A014FFF7A9FD16E00C4884422F
:1036700008D101210014FFF781FD00212014FFF77C
:103680007DFD0AE00748844207D10121C013FFF7FE
:1036900075FD0021E013FFF771FD10BD0030014002
:1036A00000380040003C00400246002013890B42D5
:1036B00001D0012000E000207047F0B50246002054
:1036C00000240023002501F00F070126BE40B4B2FC
:1036D0000B1101269E40B3B2968806EA03051689AF
:1036E000264202D00DB1012000E00020F0BD10B54F
:1036F0000022028802F441520B884C8823438C88B4
:103700002343CC8823430C8923434C8923438C894E
:103710002343CC8923431A430280838B4FF2FF74E7
:10372000234083830B8A038210BD704710B500F0DD
:1037300001F810BD0CB500200190009032480068DF
:1037400040F480303049086000BF2F48006800F422
:10375000003000900198401C0190009818B9019821
:10376000B0F5A06FF1D12848006810F4003F02D0F6
:103770000120009001E0002000900098012842D133
:103780002248006840F010002049086008460068A0
:1037900020F0030008600846006840F0020008605E
:1037A000194840681849486008464068486008461B
:1037B000406840F4806048600846406820F47C100F
:1037C00048600846406840F4E810486008460068D1
:1037D00040F08070086000BF0B48006810F0007F68
:1037E000FAD00948406820F00300074948600846BD
:1037F000406840F00200486000BF0348406800F0A5
:103800000C000828F9D10CBD001002400020024035
:103810002DE9FC5F82468B46174698460C9C032098
:103820004FF6FF7106230522CDE900100121022089
:1038300007F08AFAFE484078052190FBF1F201FB7F
:1038400012001FFA80F903204FF4784101234A4601
:10385000CDE900101946022007F076FAF548006815
:10386000F5490968401A47F23051884261D3F3485C
:10387000407800F00F00052190FBF1F01FFA80F96D
:1038800003204CF2186101234A46CDE900100221C1
:10389000062007F059FAE948407800F00F000521AA
:1038A00090FBF1F201FB12001FFA80F903204CF2A9
:1038B000186101234A46CDE900100221084607F0AD
:1038C00043FA03204CF2186101231A46CDE9001097
:1038D0000146022007F038FA03204CF21861012358
:1038E0001A46CDE900100421022007F02DFA03202A
:1038F0004CF2186101230522CDE900101146022087
:1039000007F022FA03204CF2186101230246CDE9A8
:1039100000100621042007F017FA03204CF218616A
:1039200001231A46CDE900100721022007F00CFA06
:1039300060E0C248407800F00F00052190FBF1F0F4
:103940001FFA80F903204FF4FC6101234A46CDE9B8
:1039500000100221062007F0F7F9B848407800F07F
:103960000F00052190FBF1F201FB12001FFA80F914
:1039700003204FF4FC6101234A46CDE900100221E7
:10398000084607F0E1F903204FF4FC6101231A46D1
:10399000CDE900100146022007F0D6F903204FF4CC
:1039A000FC6101231A46CDE900100421022007F032
:1039B000CBF903204FF4FC6101230522CDE900106F
:1039C0001146022007F0C0F903204FF4FC610123E7
:1039D0000246CDE900100621042007F0B5F90320C6
:1039E0004FF4FC6101231A46CDE9001007210220A3
:1039F00007F0AAF91FB30320012305220C21CDE90A
:103A00000070002007F0A0F90320052301220A21FD
:103A1000CDE90070184607F097F90320034601220C
:103A20000B21CDE90070062007F08EF90320012359
:103A30001A460C21CDE90070072007F085F9B8F18E
:103A4000000F22D00320012305221321CDE900809D
:103A500007F07AF90320052301221121CDE9008026
:103A6000022007F071F90320034601221221CDE95B
:103A70000080104607F068F9032001231A4613213D
:103A8000CDE90080002007F05FF96D48018D6D4899
:103A900080898030814202DD4FF4FC6401E04CF209
:103AA00018640120034602461A21CDE90040002097
:103AB00007F04AF90120022302461A21CDE900400D
:103AC00007F042F90120032302461A21CDE9004004
:103AD000022007F039F90120042302461A21CDE91A
:103AE0000040032007F030F901200423024617218B
:103AF000CDE90040184607F027F9012003230246CC
:103B00001821CDE90040052007F01EF9012002230D
:103B100002461921CDE90040062007F015F90120E1
:103B2000034602461A21CDE90040072007F00CF9B0
:103B30004348C18D4348C0898030814202DD4FF443
:103B4000FC6401E04CF21864022001231A461A2199
:103B5000CDE90040002007F0F7F8022003460122DB
:103B60001A21CDE90040104607F0EEF802200323A9
:103B700001221A21CDE9004007F0E6F802200423D3
:103B800001221A21CDE90040032007F0DDF80220D0
:103B9000042301221721CDE90040184607F0D4F88C
:103BA0000220032301221821CDE90040052007F05F
:103BB000CBF80220034601221921CDE9004006205E
:103BC00007F0C2F8022001231A461A21CDE900406D
:103BD000072007F0B9F81C4800881C490988401ADA
:103BE000052842DB55201A4908706E2048706C2069
:103BF00088706920C8703A200871104840783021D8
:103C000001EB2010124948710C48407800F00F0079
:103C1000303088710020C8710E48007D01281FD106
:103C200003204FF6FF710023094ACDE9001013E08D
:103C30002A0300202C000020000100204802002060
:103C4000622A0020E22C0020C4000020C8000020CE
:103C5000E22400207E0200202321184607F094F879
:103C600008214548FEF737FC28E04C2043490870FE
:103C7000692048706E2088706B20C8703A200871E7
:103C80003F484078302101EB20103C4948713C48C6
:103C9000407800F00F00303088710020C87139483A
:103CA000007D01280AD103204FF6FF710023334A1B
:103CB000CDE900102321184607F066F800253122CF
:103CC00029466D1C2D4842543A2229466D1C425407
:103CD00000260AE02C48805D3030C2B22846691CBC
:103CE000CDB226490A54701CC6B2032EF2DB002264
:103CF0002846691CCDB221490A542248C07C0128BB
:103D000009D14FF6FF7100231C4ACDE90010632151
:103D1000184607F039F80025322229466D1C17484D
:103D200042543A2229466D1C425400260BE0F01CF6
:103D30001549085C3030C2B22846691CCDB20F4923
:103D40000A54701CC6B2032EF1DB00222846691CFF
:103D5000CDB20A490A540B48C07C01280AD102207E
:103D60004FF6FF710023054ACDE900106321184684
:103D700007F00AF8BDE8FC9F00080140E22400209B
:103D8000480200207E0200201401002010B500F03F
:103D9000C3F80C480068401C0A49086008210A481A
:103DA000FEF799FB01210948FCF713FC0548006860
:103DB00007490968401A0749884201D2FEF7C0FB4B
:103DC00010BD00002C00002000180140002401401C
:103DD0003001002020BF020030B5194800684FF4C0
:103DE0007A72B0FBF2F1B1F1807F01D301201BE0C8
:103DF00021F07F40401E4FF0E022506150170F220B
:103E0000002806DA13010F4C00F00F052D1F635533
:103E100002E013010C4C235400BF00204FF0E022BD
:103E2000906107201061002008B100BFFEE74FF04D
:103E3000E020006920F001004FF0E021086130BD72
:103E40000000002018ED00E000E400E010B512488A
:103E5000006840F0010010490860084640680F49BA
:103E600008400D494860084600680D4908400A4965
:103E700008600846006820F4802008600846406812
:103E800020F4FE0048604FF41F008860FFF74EFCEE
:103E900004480549086010BD001002400000FFF80A
:103EA000FFFFF6FE0000010808ED00E0704700008B
:103EB00010B501210A4800F01EF880B14FF40061EE
:103EC0000848FEF708FB01200749087007480088EA
:103ED000401C064908800121014800F009F810BD86
:103EE00000040040000801407C0100208001002007
:103EF000CA430282704730B50246002000230024E6
:103F0000158A05EA0103958905EA010413B10CB18C
:103F1000012000E0002030BD0448006820B10348C3
:103F20000068401E0149086070470000280000201A
:103F300000B585B0012144F20500FFF72FF94FF4D9
:103F40000070ADF8100018208DF8130003208DF8D4
:103F5000120004A91748FEF7DFF94FF48060ADF8AE
:103F6000100004208DF8130003208DF8120004A91E
:103F70001048FEF7D1F94FF4E13000900020ADF881
:103F80000400ADF80600ADF80800ADF80C000C20F8
:103F9000ADF80A006946084800F0EAF90121064830
:103FA00000F08BF940F22661034800F077F905B084
:103FB00000BD00000008014000380140F8B505468A
:103FC0000E46002400BF1848006818490968401AC6
:103FD0000228F8D3002003464FF4FC62014600900B
:103FE000FFF716FC4FF480411148FEF776FA1148AE
:103FF0000488FF2400BF2000A4F10104FBD10024A9
:104000000AE0285D0B49091D088000BF09480088A7
:1040100010F0400FFAD0641CB442F2D34FF4804148
:104020000348FEF758FAF8BD2C00002000010020DC
:10403000000C01400038014000B585B00121880422
:10404000FFF78CF801210820FFF7A8F84FF48060F3
:10405000ADF8100018208DF8130003208DF8120021
:1040600004A91A48FEF758F94FF40060ADF81000A3
:1040700004208DF8130003208DF8120004A91348C2
:10408000FEF74AF94FF4E13000900020ADF804004B
:10409000ADF80600ADF80800ADF80C000C20ADF846
:1040A0000A0069460A4800F063F9012240F22551EE
:1040B000074800F038F90121054800F0FEF840F209
:1040C0002661034800F0EAF805B000BD000C01408D
:1040D0000048004010B502460020094B1888002017
:1040E0000AE0135C064C241D238000BF044B1B8890
:1040F00013F0400FFAD0401C8842F2D310BD0000EC
:104100000048004010B507480749086007480849BB
:104110000860084808490860FFF70AFFFFF78CFFAE
:1041200010BD0000E2250020A4010020622800202C
:10413000B401002062290020C801002010B51848F1
:1041400000681849086008211748FEF7C6F940F2D0
:104150002551164800F0BDF8B0B11448001D008884
:1041600013490968134A1288885412480088401C71
:104170001049088008460088C0F30800088040F213
:1041800025510A4800F08AF840F22771074800F0EC
:10419000A0F820B140F22771044800F07FF810BD6C
:1041A0002C000020000100200018014000380140D0
:1041B000A40100203200002010B540F2255116481D
:1041C00000F087F8D8B11548008815490988884259
:1041D0000DDA1148001D0088124909680F4A12883B
:1041E00088540E480088401C0C49088002E00120D9
:1041F0000D49087040F22551074800F04FF840F291
:104200002771054800F065F820B140F22771024897
:1042100000F044F810BD000000440040BA01002046
:10422000B8010020B4010020C401002010B51648D8
:1042300000681649086040F22551154800F049F819
:10424000B0B11348001D008812490968124A12884B
:10425000885411480088401C0F490880084600789F
:1042600000F07F00088040F22551094800F016F860
:1042700040F22771064800F02CF820B140F2277177
:10428000034800F00BF810BD2C00002004010020B2
:1042900000480040C80100203601002010B500226F
:1042A0000023A1F510646A3C00D100BF0A1201246A
:1042B0009440A3B2DC43048010BD21B1828942F452
:1042C0000052828104E082894DF6FF731A40828198
:1042D000704770B502460024002300250020A1F598
:1042E00010666A3E00D100BFC1F3421501F01F0302
:1042F000012606FA03F3012D02D19689334006E028
:10430000022D02D1168A334001E0968A33400C1206
:10431000012606FA04F41688344013B10CB10120CA
:1043200000E0002070BDF0B5034600240026002503
:104330000020A1F510676A3F00D100BF1846C1F305
:10434000421401F01F06012707FA06F5012C01D1DE
:104350000C3004E0022C01D1103000E014301AB10E
:1043600007682F43076002E00768AF430760F0BDAE
:104370002DE9F04786B005460E460024A24600BF50
:10438000A1460027B08900B100BF2F462C8A4CF609
:10439000FF700440F08804432C82AC894EF6F31081
:1043A0000440B08831890843718908430443AC81D3
:1043B000AC8A4FF6FF400440B0890443AC8201A8A8
:1043C000FEF70CFF1F48874202D1DDF810A001E084
:1043D000DDF80CA0A88910F4004F08D00AEBCA0041
:1043E00000EB0A1031684900B0FBF1F807E00AEB76
:1043F000CA0000EB0A1031688900B0FBF1F86420B4
:10440000B8FBF0F004012009642101FB1089A889A0
:1044100010F4004F08D0322000EBC900B0FBF1F0DF
:1044200000F00700044308E0322000EB091064218B
:10443000B0FBF1F000F00F0004432C8106B0BDE8A2
:10444000F08700000038014000BFFEE77CB505465C
:104450000C465620174908706520487072208870F5
:104460007320C870692008716F2048716E208871B0
:104470003A20C8712078087260784872A0788872F3
:10448000E078C8722079087360794873A0798873DE
:10449000E079C873207A08740020487403201F2133
:1044A0000023044ACDE900103421284606F06CFCB4
:1044B0007CBD0000E224002002E008C8121F08C1F1
:1044C000002AFAD170477047002001E001C1121F95
:1044D000002AFBD17047000010B568202B490870F6
:1044E000092048702A480078C01C00F07F00294944
:1044F000085C2649887028484078C87024480078AD
:10450000001D00F07F002349085C20490871224803
:10451000007C48712048407C88711F48807CC871AD
:104520001D48C07C08721C48007D48721A48407DB6
:1045300088721948807DC8721748C07D0873164874
:10454000007E48731448407E88731348807EC87389
:1045500000200874012408E00C48007C0B49095D28
:1045600008440A490874601CC4B208484078022113
:10457000C1EB4000A042EFDC992004494874084692
:10458000407841000148FFF7A5FD10BDE22800205A
:1045900034010020622900204802002010B569483B
:1045A0000088694908806720684908706848007871
:1045B000801C00F07F006749085C644948706448CB
:1045C0000078401D00F07F006249085C5F49087474
:1045D0005F480078801D00F07F005E49085C5B4901
:1045E00048745B480078C01D00F07F005949095CA1
:1045F0005648817456480078083000F07F005549CD
:10460000095C5248C17452480078093000F07F00BC
:104610005049095C4D4801754D4800780A3000F05A
:104620007F004C49095C49484175494800780B3086
:1046300000F07F004749095C444881754448007890
:104640000C3000F07F004349095C4048C175404888
:1046500000780D3000F07F003E49095C3B48017650
:104660003B4800780E3000F07F003A49085C37493B
:104670004876374800780F3000F07F003549095CF4
:1046800032488176802234490020FDF7C3FA682041
:1046900032490870042048702D480078C01C00F092
:1046A0007F002C49085C2D49887028484078C870E4
:1046B00027480078001D00F07F002649085C274944
:1046C000087108212648FDF708FF2048407E22494E
:1046D000C97888420BD1FF20204948711B4890F8C7
:1046E000210020F00200194981F821000AE0002091
:1046F0001A494871154890F8210040F0020013490A
:1047000081F82100002015498871012408E0134830
:1047100080791249095D084410498871601CC4B24F
:104720000E4840780221C1EB4000A042EFDC992006
:104730000A49C8710846407841000848FFF7CAFC9A
:1047400010BD0000C4000020C80000204802002066
:104750003401002062290020C2040020E228002049
:104760000008014010B525480088254908806820C8
:10477000244908700420487023480078C01C00F0C9
:104780007F002249085C1F49887021484078C87022
:104790001D480078001D00F07F001C49085C194985
:1047A0000871002048718871012408E0154880795B
:1047B0001449095D084413498871601CC4B211484A
:1047C00040780221C1EB4000A042EFDC99200D4966
:1047D000C8710F4840780411042000EB440400BF66
:1047E0000C4800680C490968401AA042F8D30548F3
:1047F000407841000348FFF76DFC10BDC400002065
:10480000C8000020E2280020340100206229002096
:10481000480200202C000020000100202DE9F0417A
:104820000027CB480088801DC0F30800C949085CF8
:10483000012805D10202C8490020FDF7EBF93DE04F
:10484000C3480088801DC0F30800C249085C0228E4
:1048500005D1C201C0498004FDF7DCF92EE0BC4857
:104860000088801DC0F30800BA49085C032806D1FF
:104870004FF48072B8491003FDF7CCF91EE0B4483C
:104880000088801DC0F30800B249085C042805D1E7
:104890008201B1490005FDF7BDF90FE0AC48008881
:1048A000801DC0F30800AB49085C052806D14FF411
:1048B0008072A9494FF46000FDF7ACF9A448008864
:1048C000801DC0F30800A349085CE0286AD1FF27D7
:1048D0000020A14908704870AB22A0494FF4710034
:1048E000FDF798F915209D4981F86F0004219B4838
:1048F00080F87010E020994981F8710000219748F4
:1049000080F8721080F8731080F874104FF4710002
:10491000FDF74CFAAB2291494FF47100FDF7A2FA72
:104920008F480079422802D1FCF742F83AE068202B
:104930008C4908700420487085480088C01CC0F36A
:1049400008008449085C8749887085484078C870A9
:104950007F480088001DC0F308007E49085C81493B
:1049600008710846477100208871012408E07D48DD
:1049700080797C49095D08447A498871601C84B259
:10498000784840780221C1EB4000A042EFDC99203A
:104990007449C8710846407841007248FFF70EFB21
:1049A000FEF7ACFB002600256B4840780D2802DDA1
:1049B0000D206949487000244CE06748007867285A
:1049C00000D04BE004EBC4004000401D6249095C8C
:1049D0005F480088C01DC0F308005E4A105C814239
:1049E00036D1FF2704EBC4004000801D5A490D5CFE
:1049F0002D0204EBC4004000C01D085C05442D02DC
:104A000004EBC40040000830085C05442D0204EBB0
:104A1000C40040000930085C054404EBC4004000B9
:104A200012300E5C360204EBC40040001330085C08
:104A30000644360204EBC40040001430085C06440F
:104A4000360204EBC40040001530085C064405E063
:104A5000601C84B240484078A042AEDC00BF6820B1
:104A6000404908700420487039480088C01CC0F3D1
:104A700008003849085C3B49887039484078C8705C
:104A800033480088001DC0F308003249085C3549EE
:104A900008710846477100208871012408E03148F8
:104AA00080793049095D08442E498871601C84B2C0
:104AB0002C4840780221C1EB4000A042EFDC992055
:104AC0002849C8710846407841002648FFF776FA21
:104AD000CDB3AB2221494FF47100FDF79BF81520AF
:104AE0001E4981F86F0004211C4880F870100120D5
:104AF0001A4981F871000021184880F87210144892
:104B00000088801DC0F308001249095C134880F832
:104B100073100F480088C01DC0F308000D49095CE0
:104B20000E4880F874104FF47100FDF73FF9AB2286
:104B30000A494FF47100FDF795F9094800794228B8
:104B400002D1FBF735FF01E0FEF7D8FABDE8F081AE
:104B500030000020E2250020C20400207E02002058
:104B6000480200206225002010B54FF4807252499F
:104B70000020FDF74FF86820504908700D2048705C
:104B80004F480088C01CC0F308004E49085C4B49E0
:104B900088704D484078C87049480088001DC0F3AF
:104BA00008004849085C454908710220487142489C
:104BB0000078672846D140484078002810DD3E48FC
:104BC00040798871002408E004F10A003A49095C40
:104BD000E01D3A4A1154601C84B2082CF4DB0CE04E
:104BE000002036498871002405E00021E01D334A89
:104BF0001154601C84B2082CF7DB2F484078012840
:104C000011DD2D48C07D2D49C873002408E004F152
:104C10001C002949095C0C38284A1154601C84B2D4
:104C2000082CF4DB29E000202449C873002406E0A6
:104C3000002104F11000214A1154601C84B2082C98
:104C4000F6DB1AE000201D498871002405E00021F0
:104C5000E01D1A4A1154601C84B2082CF7DB0020B6
:104C60001649C873002406E0002104F11000134A1D
:104C70001154601C84B2082CF6DB00200F49087622
:104C8000012408E00D48007E0C49095D08440B49E9
:104C90000876601C84B2094840780221C1EB4000CC
:104CA000A042EFDC9920054948760846407841004B
:104CB0000248FFF783F910BDC204002062250020DE
:104CC00030000020E2250020480200207CB50026AC
:104CD000AB22D2494FF47100FCF79CFFCF4890F80B
:104CE0007650102D01DD102501E005B90825CC48CE
:104CF0000088401DC0F30800CA49085C51287AD1D9
:104D0000FF2600240FE0C5487530015DC4480088C7
:104D1000401D2044C0F30800C24A105C814200D00C
:104D20000026601CC4B2BE480088801DC0F3080085
:104D3000BC49085C801CA042E5DC002E3BD167200A
:104D4000B6490870AB20487008464078401048705B
:104D5000B3480088C01CC0F30800B249085CAF49E2
:104D60008870B1484178AD48C170FF210171AC48ED
:104D70000088401DC0F30800AA49085C512810D1E2
:104D800000240CE0A6480088401D2044C0F3080021
:104D9000A449095CA14875300155601CC4B2122CAD
:104DA000F0DB4FF47100FDF701F8AB229B494FF4A3
:104DB0007100FDF757F8002405E09848005D9B4915
:104DC0000855601CC4B2AB2CF7D3FF26AB22984920
:104DD0004FF47100FCF71EFF00240AE09348015DC8
:104DE00004F58060914A105C814200D00026601C6E
:104DF000C4B2AB2CF2D368208E49087004204870EE
:104E000087480088C01CC0F308008649085C8949AF
:104E1000887085484078C87081480088001DC0F3BC
:104E200008008049085C83490871084646710020E3
:104E300049780222C2EB41017E4A5054012411E01C
:104E40007C4840780221C1EB40007A49085C095D4A
:104E50000844784949780222C2EB4101754A50540E
:104E6000601CC4B2734840780221C1EB4000A042EC
:104E7000E6DC99206F4949780122C2EB41016D4A75
:104E800050541046407841001046FFF797F86348A9
:104E900090F8760010280EDC002406E05F4877309A
:104EA000005D65490855601CC4B25C4890F8760006
:104EB000A042F3DC0FE00821584880F87610002467
:104EC00004E03F205C490855601CC4B2534890F888
:104ED0007600A042F5DC00222046611CCCB2564987
:104EE0000A545648007B012822D1002404E02020E7
:104EF00053490855601CC4B2AC42F8DB002050494D
:104F0000085501204FF6FF7100234D4ACDE90010EE
:104F10007D210F2005F038FF01204FF6FF7100239F
:104F2000454ACDE900107D210F2005F02DFF26E038
:104F30004248007B18BB002404E02020404908556B
:104F4000601CC4B2AC42F8DB00203D49085501208A
:104F50004FF6FF7100233A4ACDE900107D214FF44E
:104F6000877005F011FF01204FF6FF710023324AD0
:104F7000CDE900107D214FF4877005F005FF2F4823
:104F8000407B012822D1002404E020202C49085530
:104F9000601CC4B2AC42F8DB00202949085502204D
:104FA0004FF6FF710023264ACDE900107D210F2026
:104FB00005F0EAFE02204FF6FF7100231E4ACDE9FC
:104FC00000107D210F2005F0DFFE26E01B48407B0E
:104FD00018BB002404E0202019490855601CC4B205
:104FE000AC42F8DB00201649085502204FF6FF714D
:104FF0000023134ACDE900107D214FF4877005F09E
:10500000C3FE02204FF6FF7100230B4ACDE90010CA
:105010007D214FF4877005F0B7FE7CBD7E02002035
:1050200030000020E225002048020020C2040020B9
:10503000C208002062250020062D00202A0300203F
:10504000E22400207047000070B5FDF737F90646EE
:10505000FF2E00D070BDAB22A8494FF47100FCF7C1
:10506000D9FD6820A649087004204870A54800882A
:10507000C01CC0F30800A449085CA1498870A3487B
:105080004078C8709F480088001DC0F308009E4902
:10509000085C9B4908710120487100204978022270
:1050A000C2EB4101964A5054012511E094484078E2
:1050B0000221C1EB40009249085C495D08449049D7
:1050C00049780222C2EB41018D4A5054681CC5B296
:1050D0008B4840780221C1EB4000A842E6DC9920D1
:1050E0008749C8710846407841008548FEF766FF49
:1050F000002484480088401DC0F308008249085CF1
:1051000001281AD100BF04E02046FCF7F3FD04F5A6
:1051100080347F488442F7D30B20784948750021BA
:10512000764881754FF47100FCF740FEAB2273495D
:105130004FF47100FCF796FE71E072480088401D44
:10514000C0F308007049085C02281CD1840404E004
:105150002046FCF7CFFD04F580346E488442F7D337
:105160000C20664981F827000021644880F8281047
:105170004FF47100FCF71AFEAB2260494FF4710046
:10518000FCF770FE4BE05F480088401DC0F308004C
:105190005D49085C03281DD14FF4801404E02046CB
:1051A000FCF7A8FD04F580345B488442F7D30D205A
:1051B000524981F839000021504880F83A104FF4E4
:1051C0007100FCF7F3FDAB224C494FF47100FCF782
:1051D00049FE24E04B480088401DC0F308004A49BE
:1051E000085C04281BD1040504E02046FCF782FD7E
:1051F00004F5803449488442F7D30E203F4981F8B2
:105200004B0000213D4880F84C104FF47100FCF732
:10521000CDFDAB2239494FF47100FCF723FE39482C
:105220000088401DC0F308003749085C05281CD1E0
:105230004FF4600404E02046FCF75CFD04F5803484
:1052400037488442F7D30F202C4981F85D000021B4
:105250002A4880F85E104FF47100FCF7A7FDAB22DE
:1052600026494FF47100FCF7FDFD682024490870C1
:105270000420487023480088C01CC0F3080022495D
:10528000085C1F49887021484078C8701D48008814
:10529000001DC0F308001C49085C19490871FF2073
:1052A0004871002049780222C2EB4101144A50544F
:1052B000012511E0124840780221C1EB400010495D
:1052C000085C495D08440E4949780222C2EB41015D
:1052D0000B4A5054681CC5B2094840780221C1EB02
:1052E0004000A842E6DC99200549C871084640788C
:1052F00041000348FEF762FE00BFABE67E020020DD
:105300006225002030000020E22500204802002015
:10531000FFFF0100FFFF0900FFFF2F00FFFFBF009D
:10532000FFFFEF002DE9F0470027FE480088801DB1
:10533000C0F30800FC49085C01287DD10202FB494A
:105340000020FCF767FC00BF00260025F7484078E6
:105350000D2802DD0D20F549487000244CE0F3488B
:105360000078672800D04BE004EBC4004000401DEB
:10537000EE49095CEB480088C01DC0F30800EA4A0A
:10538000105C814236D1FF2704EBC4004000801D31
:10539000E6490D5C2D0204EBC4004000C01D085C12
:1053A00005442D0204EBC40040000830085C0544AD
:1053B0002D0204EBC40040000930085C054404EBF6
:1053C000C400400012300E5C360204EBC400400002
:1053D0001330085C0644360204EBC400400014306D
:1053E000085C0644360204EBC40040001530085C3B
:1053F000064405E0601C84B2CC484078A042AEDC94
:1054000000BF6820CA49087004204870C548008859
:10541000C01CC0F30800C449085CC5498870C54871
:105420004078C870BF480088001DC0F30800BE491E
:10543000085CBF49087100E044E00846477100205D
:105440008871012408E0BA488079B949095D0844A7
:10545000B7498871601C84B2B54840780221C1EB1D
:105460004000A042EFDC9920B149C871084640785D
:105470004100AF48FEF7A2FD002D10D0A9480088DA
:10548000401DC0F30800A849085CAA49497E88422B
:1054900006D1012332463821502004F0CDF85AE3DA
:1054A000A0480088401DC0F308009F49095CA1483E
:1054B000807E8142F3D1022332463821502004F00D
:1054C000BBF848E397480088801DC0F30800964960
:1054D000085C02287ED1420294498004FCF79AFBC2
:1054E00000270026002591484078342802DD34202A
:1054F0008E49487000244CE08C480078672800D022
:105500004BE004EBC4004000401D8849095C85481D
:105510000088C01DC0F30800834A105C814236D168
:10552000FF2704EBC4004000801D80490D5C2D0264
:1055300004EBC4004000C01D085C05442D0204EBD0
:10554000C40040000830085C05442D0204EBC40090
:1055500040000930085C054404EBC40040001230F0
:105560000E5C360204EBC40040001330085C0644B5
:10557000360204EBC40040001430085C06443602D6
:1055800004EBC40040001530085C064405E0601CD4
:1055900084B266484078A042AEDC00BF682064490F
:1055A0000870042048705F480088C01CC0F30800E1
:1055B0005D49085C5E4988705E484078C87059480B
:1055C0000088001DC0F308005749085C584908715D
:1055D000084600E04DE0477100208871012408E092
:1055E000534880795249095D084451498871601CCB
:1055F00084B24F4840780221C1EB4000A042EFDC6A
:1056000099204B49C8710846407841004848FEF748
:10561000D5FC002D15D043480088401DC0F308007C
:105620004149085C4349497E88420BD12A46424998
:105630003046FCF7EFFA00213F4880F8001880F868
:10564000011888E237480088401DC0F30800364939
:10565000095C3848807E8142F3D12A46374930467A
:10566000FCF7D8FA0021354880F8001880F80118B6
:1056700071E22C480088801DC0F308002A49085CAC
:1056800003287DD14FF4806228499002FCF7C2FACA
:1056900000270026002525484078342802DD3420E4
:1056A0002249487000245BE020480078672800D039
:1056B0005AE004EBC4004000401D1C49095C194835
:1056C0000088C01DC0F30800174A105C814245D114
:1056D000FF2704EBC4004000801D14490D5C2D021F
:1056E00004EBC4004000C01D085C05442D0204EB1F
:1056F000C40040000830085C05442D0204EBC400DF
:1057000040000930085C054404EBC400400012303E
:105710000E5C360204EBC40040001330085C064403
:1057200036020DE030000020E2250020C2040020F7
:105730006225002048020020C6140020C81C00205A
:1057400004EBC40040001430085C0644360204EB4D
:10575000C40040001530085C064405E0601C84B2BB
:10576000FE484078A0429FDC00BF6820FC490870DA
:1057700004204870FB480088C01CC0F3080000E00B
:10578000CFE0F949085CF6498870F8484078C8705D
:10579000F4480088001DC0F30800F349085CF04994
:1057A00008710846477100208871012408E0EC4820
:1057B0008079EB49095D0844E9498871601C84B22D
:1057C000E74840780221C1EB4000A042EFDC99207D
:1057D000E349C871084640784100E148FEF7EEFB16
:1057E000002D7CD000214FF40070FDF7D7FCDD4880
:1057F0000088401DC0F30800DB49085CDB49497E96
:1058000088423ED1D7480088401CC0F30800D649E2
:10581000085C07282EDBD34800880830C0F3080056
:1058200011F800804FF6FF7000EA0828CD48008884
:105830000930C0F30800085C40441FFA80F8C948EA
:1058400000880A30C0F3080011F800904FF6FF708E
:1058500000EA0929C34800880B30C0F30800085C3F
:1058600048441FFA80F9012332464946404603F076
:10587000E3FE51E0012332460021084603F0DCFE3E
:105880004AE0B8480088401DC0F30800B649095CEA
:10589000B648807E81423FD1B2480088401CC0F3A8
:1058A0000800B149085C072830DBAE4800880830A2
:1058B000C0F3080011F800804FF6FF7000EA0828D6
:1058C000A84800880930C0F30800085C40441FFA6B
:1058D00080F8A44800880A30C0F3080000E0FEE029
:1058E00011F800904FF6FF7000EA09299D480088E2
:1058F0000B30C0F30800085C48441FFA80F902230B
:1059000032464946404603F097FE05E00223324600
:105910000021084603F090FE01214802FDF73EFCFD
:1059200019E190480088801DC0F308008E49085C8A
:1059300005287DD14FF4807288494FF46000FCF750
:1059400069F9002700260025844840780D2802DDEB
:105950000D208249487000244CE080480078672878
:1059600000D04BE004EBC4004000401D7B49095CC3
:105970007C480088C01DC0F308007B4A105C81424F
:1059800036D1FF2704EBC4004000801D73490D5C35
:105990002D0204EBC4004000C01D085C05442D022C
:1059A00004EBC40040000830085C05442D0204EB01
:1059B000C40040000930085C054404EBC40040000A
:1059C00012300E5C360204EBC40040001330085C59
:1059D0000644360204EBC40040001430085C064460
:1059E000360204EBC40040001530085C064405E0B4
:1059F000601C84B259484078A042AEDC00BF6820E9
:105A0000574908700420487056480088C01CC0F3ED
:105A100008005549085C5249887054484078C8705D
:105A200050480088001DC0F308004F49085C00E0A2
:105A300058E04B49087108464771002088710124DD
:105A400008E0474880794649095D0844444988711F
:105A5000601C84B2424840780221C1EB4000A04261
:105A6000EFDC99203E49C8710846407841003C4827
:105A7000FEF7A4FA002D6ED0AB223D494FF4710021
:105A8000FCF7C8F815203A4981F86F00042138481E
:105A900080F870100120364981F8710000213448E7
:105AA00080F87210052180F873102E480088C01D00
:105AB000C0F308002C49095C2D4880F874104FF49D
:105AC0007100FCF773F9AB2229494FF47100FCF720
:105AD000C9F926480079422802D1FAF769FF3AE06D
