:020000040801F1
:10000000A831002045010108BD2F0108092501087C
:10001000B92F0108F3050108FD44010800000000A4
:10002000000000000000000000000000033701088D
:10003000850E010800000000F9300108413E01086A
:100040005F0101085F0101085F0101085F0101080C
:100050005F0101085F0101085F010108D91A010869
:100060005F0101085F0101081D1B0108F90B010870
:10007000390C01085F0101085F0101085F010108F7
:100080005F0101085F010108E90101085F01010842
:100090005F0101085F0101085F0101085F010108BC
:1000A0005F0101085F0101085F0101085F010108AC
:1000B000613F0108653F01085F0101085F01010818
:1000C0005F0101085F0101085F010108BD340108FB
:1000D000D1350108F14101086D420108E1420108F2
:1000E000911A01085F0101085F0101085F01010821
:1000F0005F0101085F0101085F0101085F0101085C
:100100005F0101085F0101085F0101085F0101084B
:100110005F0101085F0101085F0101085F0101083B
:100120005F0101085F0101085F0101085F0101082B
:10013000DFF80CD000F018F800480047DD9C0108FB
:10014000A83100200648804706480047FEE7FEE742
:10015000FEE7FEE7FEE7FEE7FEE7FEE7FEE7FEE777
:10016000013F010831010108064C074D06E0E06837
:1001700040F0010394E8070098471034AC42F6D3EE
:10018000FFF7DAFF1C0B05083C0B050870B501EB07
:10019000020410F8015B15F0070301D110F8013BD0
:1001A0002A1106D110F8012B03E010F8016B01F8B9
:1001B000016B5B1EF9D12B0705D40023521E0FD40F
:1001C00001F8013BFAE710F8013B02F10202A1EB52
:1001D000030303E013F8015B01F8015B521EF9D53C
:1001E000A142D6D3002070BD10B54FF40871364837
:1001F00000F03EF9002855D04FF40871324800F065
:10020000D5F8314800F030F930490880304800888E
:100210003049098888422ADA2C4800882E49096822
:100220002B4A128821F8120029480088401C2849CE
:1002300008802A48407C401C284948740846407C75
:10024000032814DB0846007C401C08740846007C28
:1002500000F00F0008740846007C0A46115C072372
:100260000122194800F054F900201C49487418482C
:100270000088182816DB1A48007840F00100184959
:1002800008700F20124908800520144908740020C6
:1002900048740846007C0A46115C072301220A487C
:1002A00000F036F94FF408710E4800F0E1F848B15B
:1002B0004FF408710B4800F079F80A4800F0D4F8C0
:1002C0000949088010BD00000024014046010020BB
:1002D00042010020400100203C01002034000020A9
:1002E00044010020002801405201002000B587B0E1
:1002F00001214FF4047002F03DFF0120ADF8180019
:1003000000208DF81B0006A9244802F005F82448B7
:1003100000F072F80020019001208DF80800002004
:100320008DF809004FF46020039000200490012014
:100330008DF8140001A91A4800F0C2F84FF44040AB
:1003400002F0DCFE002017490880052016490874D9
:100350000846007C0A46115C07230122104800F081
:10036000D7F801210E4800F026F80D4800F02CF9CE
:1003700000BF0B4800F08EF80028FAD1084800F0C2
:1003800033F900BF064800F065F80028FAD10121D2
:10039000034800F01EF907B000BD00000010014046
:1003A00000240140420100203400002000220A12F3
:1003B000D3430360704721B1826842F0010282603A
:1003C00003E0826822F001028260704710B506489F
:1003D000064908604FF4A0700549088000200549CF
:1003E0000880FFF783FF10BD6A2A00203C0100202F
:1003F000400100204201002010B50446124884420A
:1004000008D10121401502F0C5FE0021601502F05F
:10041000C1FE17E00D48844208D10121001502F009
:10042000B9FE0021201502F0B5FE0BE00848844219
:1004300008D10121C80302F0ADFE00214FF40040B5
:1004400002F0A8FE10BD0000002401400028014079
:10045000003C0140014600208A6812F0040F01D0E0
:10046000012000E0002070470146C86C80B2704750
:1004700070B502460020002300240B125568CEB24E
:1004800005EA060415681D4202D00CB1012000E007
:10049000002070BD014600208A6812F0080F01D0CC
:1004A000012000E00020704710B50023CBB21AB144
:1004B00044681C43446002E044689C43446010BDAF
:1004C00030B502460020002350680F4C20400D79C3
:1004D0000C6844EA05242043506090680B4C20408F
:1004E000D1E902542C434D7944EA450420439060FD
:1004F000D06A20F470000C7C641EE4B2234340EA0E
:100500000350D06230BD0000FFFEF0FFFDF7F1FFA9
:10051000F0B504460D4600200021092D11DDE068EC
:10052000A5F10A0606EB4607072606FA07F18843F7
:10053000A5F10A0606EB460603FA06F10843E06059
:100540000CE0206905EB4507072606FA07F188430A
:1005500005EB450603FA06F108432061072A0FDA86
:10056000606B561E06EB86071F2606FA07F18843C6
:10057000561E06EB860605FA06F10843606322E084
:100580000D2A0FDA206BD61F06EB86071F2606FA08
:1005900007F18843D61F06EB860605FA06F10843E5
:1005A000206310E0E06AA2F10D0606EB86071F2625
:1005B00006FA07F18843A2F10D0606EB860605FA56
:1005C00006F10843E062F0BD816841F008018160F6
:1005D000704721B1826842F4A002826003E0826821
:1005E00022F4A00282607047816841F004018160BA
:1005F000704700BFFEE700002DE9F047AB227049CD
:100600004FF4710001F006FB6D4890F8730001286B
:1006100005D102026B49002001F0FCFA2DE0684888
:1006200090F87300022805D1C2016649800401F0E8
:10063000F1FA22E0624890F87300032806D14FF4E3
:1006400080726049100301F0E5FA16E05C4890F80A
:100650007300042805D182015A49000501F0DAFA35
:100660000BE0574890F87300052806D14FF48072CC
:1006700054494FF4600001F0CDFA0026002551489E
:1006800040780D2802DD0D204E494870002446E0D8
:100690004C480078672800D045E004EBC4004000D7
:1006A000401D4849095C464890F87400814235D1A4
:1006B00004EBC4004000801D42490D5C2D0204EB98
:1006C000C4004000C01D085C05442D0204EBC400BA
:1006D00040000830085C05442D0204EBC4004000D3
:1006E0000930085C054404EBC400400012300E5C85
:1006F000360204EBC40040001330085C06443602A6
:1007000004EBC40040001430085C0644360204EBDD
:10071000C40040001530085C064404E0641C29480D
:100720004078A042B4D800BF002D46D001F070FC44
:10073000352001F0FDFBDFF88CA0234F00240CE0F6
:1007400007E0381901F0FAFB8046B8F1040F00D138
:1007500000E0F6E700BF04F50064AC42F0D90024E5
:1007600020E0F80AC002B84208D1022101FB04606F
:100770008A02144901F04EFA4FF000094FF00108C7
:1007800005E03AF81910384601F022FC8046B8F12D
:10079000040FF6D1352001F0CBFB641C09F10109EF
:1007A000BF1CAD1E002DDCD101F008FC4FF47A74A3
:1007B00000BF2000A4F10104FBD1BDE8F0870000D8
:1007C00086020020CA0400200000010870B5FF2541
:1007D0003748008800280DDD00BF002408E03548B8
:1007E000005D00F00C000C2800D12546601CC4B24E
:1007F000032CF4DBB5B904212F4801F06EFE102163
:100800002D4801F06AFE4FF400712C4801F063FEA0
:100810004FF48071294801F060FE0821264801F05C
:100820005AFE43E0012D14D10821234801F055FE62
:100830001021214801F051FE6902204801F04DFECF
:1008400029021E4801F047FE04211B4801F043FE27
:100850002CE0022D14D10821174801F03EFE04219E
:10086000154801F03AFE2902144801F036FEE9016C
:10087000124801F032FE10210F4801F02CFE15E065
:100880004FF400710D4801F026FE4FF480710B48C3
:1008900001F021FE0821084801F01FFE042106484E
:1008A00001F01BFE1021044801F017FE70BD00008E
:1008B0000C0100201401002000100140000C014038
:1008C00070B5FF253548408800280DDD00BF0324A2
:1008D00008E03348005D00F00C000C2800D12546EC
:1008E000601CC4B2062CF4DB032D14D101212D4869
:1008F00001F0F3FD02212B4801F0EFFD02212A480F
:1009000001F0EBFD0121284801F0E5FD20212748F9
:1009100001F0E1FD41E0042D14D12021234801F034
:10092000DCFD02211F4801F0D8FD02211E4801F024
:10093000D4FD01211C4801F0D0FD0121194801F02E
:10094000CAFD2AE0052D14D12021184801F0C5FD6B
:100950000121144801F0C1FD0221134801F0BBFD43
:100960000121114801F0B9FD02210E4801F0B3FD4B
:1009700013E002210C4801F0AEFD01210A4801F00C
:10098000AAFD2021094801F0A8FD0121054801F038
:10099000A4FD0221034801F0A0FD70BD0C01002060
:1009A00014010020000C014000180140001001401B
:1009B00070B50025002400208B490870AB228B49BC
:1009C0004FF4710001F026F9884890F86F0015285F
:1009D00072D1864890F870000428F9D18448807A52
:1009E00042286AD1814890F87200032804DA7F48CF
:1009F00090F87100E02842D115207C4981F86F0001
:100A000004217A4880F87010002405E0002177481E
:100A100071300155601CC4B2042CF7DB0F20734900
:100A200081F85D000021714880F85E10002405E027
:100A3000FF216E485F300155601CC4B2102CF7DBFB
:100A40004FF4710001F0B2F9AB2268494FF4710024
:100A500001F008FA01F0DCFA352001F069FA06E04D
:100A6000644801F06BFA0546042D00D100E0F7E779
:100A700000BF01F0A3FA00205B490870B3E05B48B7
:100A800090F87100012819D1584890F87200401C64
:100A9000C1B2564880F872104FF4710001F086F927
:100AA000AB2252494FF4710001F0DCF9FFF7A4FDCD
:100AB00001204D49087096E03BE015E04D48006884
:100AC0006FF31300B0F1005F0AD14A4840686FF33A
:100AD0001300B0F1006F03D101204349087082E098
:100AE0000020414908707EE0404890F871000128DC
:100AF0001BD115203D4981F86F0004213B4880F847
:100B00007010002405E00021384871300155601C48
:100B1000C4B2042CF7DB4FF4710001F047F9AB22AB
:100B200032494FF4710001F09DF900202E49087000
:100B300059E02F48807A422831D115202B4981F87D
:100B40006F000421294880F87010002405E000217E
:100B5000264871300155601CC4B2042CF7DB4FF4F9
:100B6000710001F023F9AB2220494FF4710001F02C
:100B700079F9204800686FF31300B0F1005F0AD1E3
:100B80001C4840686FF31300B0F1006F03D10120DF
:100B90001549087027E000201349087023E0134826
:100BA00090F8710001281BD11520104981F86F00C1
:100BB00004210E4880F87010002405E000210B4845
:100BC00071300155601CC4B2042CF7DB4FF4710086
:100BD00001F0ECF8AB2205494FF4710001F042F945
:100BE00000200149087070BD4002002086020020EC
:100BF000480200200000010810B501200A490870D1
:100C00000A48007840F0010008490870012000F00F
:100C100053F800210648FFF7CEFB0648C06880F075
:100C200008000449C86010BD58010020440100209C
:100C3000002401400010014010B501200549087052
:100C400000F03AF80448808820F0010002498880CA
:100C500010BD0000580100200030014030B58BB0BD
:100C600005460C460121084602F054FA104800F0EF
:100C700045F81048009001950020029003940490DC
:100C8000802005904000069080000790002008908A
:100C90004FF40050099000200A906946044800F083
:100CA000D3F80121024800F015F80BB030BD000068
:100CB0001C0002400C30014010F0805F02D003495C
:100CC000086001E0024948607047000004040240E7
:100CD0000000024021B1026842F00102026004E01B
:100CE00002684FF6FE731A400260704710B510217B
:100CF0000148FFF7B3FF10BDEA29002001684FF655
:100D0000FE72114001600021016041608160C1609C
:100D10004B49884208D14A490839496841F00F01D6
:100D2000474A083A51608AE045491431884208D15F
:100D300043490839496841F0F001414A083A516095
:100D40007DE03F492831884208D13D49083949684A
:100D500041F470613A4A083A516070E038493C31D8
:100D6000884208D136490839496841F47041344A0B
:100D7000083A516063E032495031884208D1304925
:100D80000839496841F470212D4A083A516056E00B
:100D90002B496431884208D129490839496841F40E
:100DA0007001274A083A516049E025497831884264
:100DB00008D123490839496841F07061204A083A4E
:100DC00051603CE01F49884206D1011F096841F08B
:100DD0000F01021F116032E01A491431884208D114
:100DE0001849091F096841F0F001164A121F1160E5
:100DF00025E014492831884208D11249091F0968A1
:100E000041F470610F4A121F116018E00D493C3126
:100E1000884208D10B49091F096841F47041094A09
:100E2000121F11600BE007495031884207D1054974
:100E3000091F096841F47021024A121F11607047AE
:100E4000080002400804024010B50022026847F67C
:100E5000F0739A430C6A8B6823430C6923434C69F3
:100E600023438C692343CC6923434C6A23438C6A14
:100E700023431A430260CB6843600B6883604B686E
:100E8000C36010BD704708B50021009102E00099D1
:100E9000491C009100EBC00101EB0011009AB2EB7C
:100EA000411FF4D308BD000001B50849009808604F
:100EB0004FF0E020006940F001004FF0E0210861B0
:100EC00000BF024800680028FBD108BD28000020B0
:100ED00002F000F92DE9F0470746884691469A4608
:100EE0004FF480723349002000F094FE0025002664
:100EF000304840780D2802DD0D202E49487000242E
:100F000049E02C480078672800D048E004EBC40191
:100F10004900491D274A505C00EBD0714910A0EBF5
:100F20004101494535D104EBC4004000801D114604
:100F30000E5C360204EBC4004000C01D085C064491
:100F4000360204EBC40040000830085C0644360258
:100F500004EBC40040000930085C064404EBC40004
:100F6000400012300D5C2D0204EBC4004000133031
:100F7000085C05442D0204EBC40040001430085CFA
:100F800005442D0204EBC40040001530085C054404
:100F900005E0601C84B207484078A042B1DC00BF85
:100FA00036B11FFA88F1B8B253462A4608F092FBD0
:100FB000BDE8F087CA04002010B5044624B9082112
:100FC000134801F08AFA21E0012C04D104211048D1
:100FD00001F083FA1AE0022C04D110210C4801F030
:100FE0007CFA13E0032C04D12021094801F075FAA2
:100FF0000CE0042C04D10121064801F06EFA05E052
:10100000052C03D10221034801F067FA10BD00004E
:1010100000100140000C014010B5044624B908211D
:10102000134801F058FA21E0012C04D104211048A2
:1010300001F051FA1AE0022C04D110210C4801F001
:101040004AFA13E0032C04D12021094801F043FAA5
:101050000CE0042C04D10121064801F03CFA05E023
:10106000052C03D10221034801F035FA10BD000020
:1010700000100140000C014070B5FC4800880028B9
:101080006FDDFB48007810F0F00F1BD1F9480068C5
:10109000F94908601F20F64908700846007800F0FA
:1010A0000F040120F549087048708870FFF78EFB27
:1010B0000020FFF7B1FF0120FFF7AEFF0220FFF78E
:1010C000ABFF4FE2EA48007800F0F000102821D191
:1010D000E8480068E8490968401AC828F1D3E5489B
:1010E0000068E5490860E248007800F00F04E44831
:1010F000018DE448808980308142E2DD00240C20AB
:10110000DE49085504F12000D94908702046FFF750
:1011100053FF27E2D648007800F0F000202831D1B4
:10112000D4480068D4490968401AB0F5FA7FC8D39A
:10113000D0480068D0490860CD48007800F00F041E
:10114000CF48018DCF488089803081420ADA0C2057
:10115000CA49085504F13000C5490870FFF736FB4D
:1011600000E224E10020C5490855022C02DBC049F9
:101170000870F7E104F12100BD490870601CFFF719
:101180001BFFEFE1BA48007800F0F000302825D1CD
:10119000B8480068B8490968401A40F2DC518842F2
:1011A0008FD3B4480068B4490860B148007800F0B3
:1011B0000F04B348018DB34880898030814207DD38
:1011C0000C20AE49085504F14000A9490870C9E156
:1011D0000020AA490855A6490870C3E1A448007830
:1011E00000F0F00040283ED1A2480068A2490968FA
:1011F000401A64288DD39F4800689F4908609C4826
:10120000007800F00F049E48018D9E488089603070
:1012100081421DDA9C480078401C9B4908700846B2
:10122000007803289CDD032094490870487088707A
:101230000C20085504F150008D4908700020FFF77C
:10124000EBFE0120FFF7E8FE0220FFF7E5FE89E153
:1012500002208A490870487088700C2008550020C8
:10126000894908707EE18248007800F0F00050283B
:101270002ED18048006880490968401A3228A6D3D8
:101280007C4800687C4908607948007800F00F04C9
:101290007B48018D7B4880898030814297DD0C201E
:1012A0007649085504F160007149087000250CE08A
:1012B0007248405D032806D12846FFF77DFE0420D2
:1012C0006E49485503E0681CC5B2032DF0DB49E1C7
:1012D0006748007800F0F000602864D16548006835
:1012E00065490968401A3228B1D3624800686249EA
:1012F00008605F48007800F00F046148018D614884
:1013000080896030814222DA00251DE05B48405D23
:10131000042817D12C460620584908704870887058
:101320000C20085504F1100051490870FFF74EFADF
:101330000020FFF771FE0120FFF76EFE0220FFF78D
:101340006BFE03E0681CC5B2032DDFDB0AE100255C
:1013500008E04A48405D042802D105204749485525
:10136000681CC5B2032DF4DB00250CE04348405D4A
:10137000032806D12846FFF71FFE04203F494855A1
:1013800003E0681CC5B2032DF0DB00BF032D9EDB1C
:101390000C203A4908552046FFF73EFE04F1400074
:1013A00033490870DEE0002031490870DAE0304847
:1013B000007810F0F00F14D12E4800682E49086014
:1013C00010202B4908700846007800F00F04012017
:1013D0002A490870487088700C200855FFF7F6F904
:1013E000C0E02348007800F0F00010284ED12148DA
:1013F000006821490968401A40F2DC518842A5D3AF
:101400001C4800681C4908601948007800F00F0467
:101410001B48018D1B4880898030814209DD0C20EA
:101420001649085504F1300011490870FFF7CEF94C
:1014300098E0022C0EDA0120104908550C210F4AC1
:10144000601C11540A480078401C09490870FFF7D5
:10145000BDF987E00120094908550C2008701020CB
:1014600003490870FFF7B2F97CE00000100100208A
:101470001A0100202C000020DC00002014010020B4
:101480006A2A0020EA2C00201C010020364800783F
:1014900000F0F000302824D134480068344909684D
:1014A000401AB0F5FA7F5DD33048006830490860D3
:1014B0002D48007800F00F042E48018D2E488089B9
:1014C0008030814207DD0C202C49085504F1400092
:1014D0002549087046E0002028490855224908702F
:1014E00040E02148007800F0F000402837D11F4844
:1014F00000681F490968401A642833D31B480068F4
:101500001B4908601848007800F00F041948018D45
:10151000194880896030814216DA19480078401CE9
:10152000174908700846007803281BDD032013497B
:101530000870487088700C20085504F110000A49A2
:101540000870FFF743F90DE002200C49087048705D
:1015500088700C20085500200949087002E000201E
:101560000149087070BD00001A0100202C00002005
:10157000DC0000206A2A0020EA2C00201401002050
:101580001C01002070B5F748408800286FDDF64840
:10159000007810F0F00F1BD1F4480068F44908609F
:1015A0001F20F14908700846007800F00F04012060
:1015B000F049C87008714871FFF782F90320FFF7FE
:1015C0002BFD0420FFF728FD0520FFF725FD50E245
:1015D000E548007800F0F000102821D1E3480068C9
:1015E000E3490968401AC828F1D3E0480068E04997
:1015F0000860DD48007800F00F04DF48C18DDF4847
:10160000C08980308142E2DD03240C20D94908558D
:1016100004F12000D44908702046FFF7CDFC28E2F1
:10162000D148007800F0F000202832D1CF4800687F
:10163000CF490968401AB0F5FA7FC8D3CB48006893
:10164000CB490860C848007800F00F04CA48C18D33
:10165000CA48C089803081420ADA0C20C549085541
:1016600004F13000C0490870FFF72AF901E226E1D1
:101670000020C0490855052C03DB0320BA49087037
:10168000F7E104F12100B8490870601CFFF794FCF1
:10169000EFE1B548007800F0F000302826D1B348DB
:1016A0000068B3490968401A40F2DC5188428ED381
:1016B000AE480068AE490860AB48007800F00F04FF
:1016C000AD48C18DAD48C0898030814207DD0C2016
:1016D000A849085504F14000A3490870C9E1002059
:1016E000A44908550320A0490870C2E19E4800782B
:1016F00000F0F00040283ED19C4800689C490968F1
:10170000401A64288BD39948006899490860964824
:10171000007800F00F049848C18D9848C089603067
:1017200081421DDA96480078401C954908700846A9
:10173000007803289ADD03208E49C870087148712B
:101740000C20085504F15000874908700320FFF76A
:1017500063FC0420FFF760FC0520FFF75DFC88E1D7
:1017600002208449C870087148710C200855002077
:10177000834908707DE17C48007800F0F000502833
:101780002ED17A4800687A490968401A3228A5D3D0
:1017900076480068764908607348007800F00F04C6
:1017A0007548C18D7548C0898030814296DD0C2016
:1017B0007049085504F160006B49087003250CE07E
:1017C0006C48405D032806D12846FFF7F5FB04204E
:1017D0006849485503E0681CC5B2062DF0DB48E1B6
:1017E0006148007800F0F000602864D15F4800682C
:1017F0005F490968401A3228B1D35C4800685C49E7
:1018000008605948007800F00F045B48C18D5B48C0
:10181000C0896030814222DA03251DE05548405DD1
:10182000042817D12C4606205249C8700871487107
:101830000C20085504F110004B490870FFF740F8E0
:101840000320FFF7E9FB0420FFF7E6FB0520FFF785
:10185000E3FB03E0681CC5B2062DDFDB09E10325CD
:1018600008E04448405D042802D10520414948551C
:10187000681CC5B2062DF4DB03250CE03D48405D35
:10188000032806D12846FFF797FB0420394948551D
:1018900003E0681CC5B2062DF0DB00BF062D9EDB01
:1018A0000C20344908552046FFF7B6FB04F14000F0
:1018B0002D490870DDE000202B490870D9E02A4846
:1018C000007810F0F00F14D128480068284908600B
:1018D0001320254908700846007800F00F04012005
:1018E0002449C870087148710C200855FEF7E8FFBC
:1018F000BFE01D48007800F0F00010284DD11B48D3
:1019000000681B490968401A40F2DC518842A5D39F
:1019100016480068164908601348007800F00F0464
:101920001548C18D1548C0898030814209DD0C20E1
:101930001049085504F130000B490870FEF7C0FF4C
:1019400097E0052C1EDA01200A4908550C21094AA6
:10195000601C115404480078401C03490870FEF7CD
:10196000AFFF86E0100100201B0100202C000020AA
:10197000E0000020140100206A2A0020EA2C002048
:101980001D01002001203B4908550C20C870132080
:1019900039490870FEF794FF6BE03748007800F093
:1019A000F000302824D13548006835490968401ACC
:1019B000B0F5FA7F5DD331480068314908602E48A0
:1019C000007800F00F042F48C18D2F48C089803067
:1019D000814207DD0C202749085504F140002649C3
:1019E000087046E00020234908552349087040E06C
:1019F0002148007800F0F000402837D11F480068E7
:101A00001F490968401A642833D31C4800681C49E0
:101A100008601948007800F00F041A48C18D1A4870
:101A2000C0896030814216DA18480078401C174996
:101A300008700846007803281BDD03200D49C87094
:101A4000087148710C20085504F110000A4908700B
:101A5000FEF736FF0DE002200649C8700871487194
:101A60000C20085500200949087002E000200249B6
:101A7000087070BD140100201B0100202C00002004
:101A8000E00000206A2A0020EA2C00201D0100202E
:101A900010B54FF4805000F055F8B8B14FF48050B5
:101AA00000F04AF80A48C06884B214F0080F04D164
:101AB0000821074800F011FD03E00821044800F068
:101AC0000AFD04480088401C0249088010BD00003F
:101AD000001001409201002010B5022000F032F801
:101AE000B0B1022000F028F80A48C06884B214F0AF
:101AF000080F04D10821074800F0EFFC03E008219B
:101B0000044800F0E8FC04480088401C02490880B2
:101B100010BD0000001001408A01002010B5102007
:101B200000F010F828B1012002490870102000F0E0
:101B300003F810BDFC000020014908607047000058
:101B400014040140014600200022074B1B6803EAF1
:101B50000102054B14331B680B4202D00AB101206D
:101B600000E00020704700000004014010B504466A
:101B7000012C04D11021044800F0ADFC03E0102139
:101B8000014800F0AAFC10BD0008014010B500BFDC
:101B90000120FFF7EBFF0A2007F094FD1B48808926
:101BA0001B49087000BF0221184801F069FD002898
:101BB000F9D005201549888100BF0121134801F0A3
:101BC0005FFD0028F9D0114880891149087000BFD5
:101BD00002210E4801F054FD0028F9D005200B49E0
:101BE000888100BF0121094801F04AFD0028F9D091
:101BF00006488089064908700020FFF7B7FF0448AF
:101C0000007810F0010FC3D110BD0000003001407A
:101C1000D80100202DE9F04704460E461546C4F3CE
:101C20000747C4F3072804F0FF090120FFF79EFFD0
:101C300000BF02212D4801F023FD0028F9D0032028
:101C40002A49888100BF0221284801F019FD002897
:101C5000F9D02648878100BF0221244801F010FDF9
:101C60000028F9D02148A0F80C8000BF02211F48AD
:101C700001F006FD0028F9D01C48A0F80C904FF4A4
:101C8000FA7007F01FFD00BF0121184801F0F8FCB1
:101C90000028F9D015488089154908702946304632
:101CA00001F0F0FB0AE000BF0221104801F0E8FC5F
:101CB0000028F9D000200D4988816D1E002DF2D139
:101CC0004FF4FA7007F0FEFC0848808820F001000D
:101CD000064988804FF4FA7007F0F4FC022007F000
:101CE000F1FC0020FFF742FFBDE8F0870030014023
:101CF000D80100202DE9F0410446C4F30745C4F3A0
:101D00000726E7B20120FFF731FF00BF0221264876
:101D100001F0B6FC0028F9D00620234988814FF451
:101D20007A7007F0CFFC0020FFF720FF0120FFF7BB
:101D30001DFF00BF02211C4801F0A2FC0028F9D0C1
:101D4000D8201949888100BF0221174801F098FC6A
:101D50000028F9D01448858100BF0221124801F003
:101D60008FFC0028F9D01048868100BF02210E4860
:101D700001F086FC0028F9D00B48878100BF0121C3
:101D8000094801F07DFC0028F9D04FF47A7007F083
:101D900099FC0020FFF7EAFEFFF7F8FE022007F0AB
:101DA00091FCBDE8F0810000003001402DE9F041D8
:101DB0000446C4F30745C4F30726E7B20120FFF742
:101DC000D5FE00BF0221264801F05AFC0028F9D0B8
:101DD0000620234988814FF47A7007F073FC0020B5
:101DE000FFF7C4FE0120FFF7C1FE00BF02211C481F
:101DF00001F046FC0028F9D020201949888100BF55
:101E00000221174801F03CFC0028F9D014488581D4
:101E100000BF0221124801F033FC0028F9D010481D
:101E2000868100BF02210E4801F02AFC0028F9D06B
:101E30000B48878100BF0121094801F021FC0028DF
:101E4000F9D04FF47A7007F03DFC0020FFF78EFECA
:101E5000FFF79CFE022007F035FCBDE8F081000092
:101E6000003001402DE9F04704460D461646C4F304
:101E70000747C4F3072804F0FF090120FFF776FEA7
:101E800000BF0221294801F0FBFB0028F9D0062001
:101E9000264988814FF4FA7007F014FC0020FFF700
:101EA00065FE0120FFF762FE00BF02211F4801F01E
:101EB000E7FB0028F9D002201C49888100BF0221DD
:101EC0001A4801F0DDFB0028F9D01848878100BFCF
:101ED0000221164801F0D4FB0028F9D01348A0F8DD
:101EE0000C8000BF0221114801F0CAFB0028F9D084
:101EF0000E48A0F80C900BE000BF02210B4801F047
:101F0000BFFB0028F9D02878084988816D1C761E0F
:101F1000002EF1D14FF4FA7007F0D4FB0020FFF748
:101F200025FEFFF733FEBDE8F087000000300140DA
:101F30000149C860704700000020024030B50446E7
:101F400004254FF4302000F06FF80546042D17D11A
:101F50000C48006940F002000A49086108464461E3
:101F6000006940F0400008614FF4302000F05CF858
:101F700005460448006941F6FD71084001490861C1
:101F8000284630BD0020024004200B49C96811F0EA
:101F9000010F01D001200EE00749C96811F0040FBC
:101FA00001D0022007E00449C96811F0100F01D0E8
:101FB000032000E00420704700200240034800692D
:101FC00040F0800001490861704700000020024095
:101FD00070B504460D460426F00200F025F80646CA
:101FE000042E11D10948006940F001000749086139
:101FF0002580F00200F018F806460448006941F612
:10200000FE71084001490861304670BD0020024061
:102010000248034948600348486070472301674508
:1020200000200240AB89EFCD00B502460423FFF744
:10203000ABFF034603E0FFF7A7FF0346521E012B49
:1020400001D1002AF7D102B90523184600BD00B519
:102050009DB00121080201F05DF801200790089071
:102060000320099000200A900B9003200C904FF061
:1020700080500D90012000900190072002900020D8
:1020800003900490072005904FF0805006900020A8
:102090000E900F90082010901020119000201290A8
:1020A0001490159016904FF48050179000201890BF
:1020B0004FF48040199000201A90CDF86CD007A8FA
:1020C0001C900EA800F020F80121002000F002F87A
:1020D0001DB000BD51B14FF0204252F8202042F017
:1020E00001024FF0204343F8202009E04FF0204246
:1020F00052F82020034B1A404FF0204343F8202091
:1021000070470000FEFF0F00D0E901121143C268C2
:102110001143026911434269114382691143C26943
:102120001143026A1143426A1143826A1143C26A2F
:102130001143026B11434FF02043026843F8221011
:102140008168082908D11A46016852F8211041F027
:102150004001026843F82210416B0968426B5268E3
:1021600041EA0211426B926841EA0221426B928974
:1021700041EA0241426B128A41EA0251426B127DEE
:1021800041EA0261426B926911430268521C4FF0AE
:10219000204343F82210C16AB1F5804F1AD1816BF8
:1021A0000968826B526841EA0211826B926841EAC7
:1021B0000221826B128A41EA0251826B127D41EA4E
:1021C0000261826B92691143026803EB8202C2F8DA
:1021D000041108E06FF070414FF02043026803EBF8
:1021E0008202C2F8041170472DE9F047074688467D
:1021F0009146022F5ED142022F498004FFF70AFD6B
:10220000002600252C484078342802DD34202A4955
:102210004870002443E028480078672800D042E056
:1022200004EBC4004000401D2349085C404534D104
:1022300004EBC4004000801D0D5C2D0204EBC400C3
:102240004000C01D085C05442D0204EBC4004000A2
:102250000830085C05442D0204EBC400400009303E
:10226000085C054404EBC400400012300E5C3602EA
:1022700004EBC40040001330085C0644360204EB53
:10228000C40040001430085C0644360204EBC4006D
:1022900040001530085C064405E0601C84B2064826
:1022A0004078A042B7DC00BF25B12A4649463046F7
:1022B000FFF7B0FCBDE8F087CA04002010B5144B4E
:1022C0001B885B1CC3F30803124CE25C4FF6FF73E0
:1022D00003EA4202002001210AE00D4B1B880B4457
:1022E000C3F308030B4CE35C0344D8B24B1C99B214
:1022F000931E8B42F1DC064B1B880B44C3F308038F
:10230000044CE35C834201D1FF2000E0002010BDBB
:1023100030000020EA2500202DE9F041024600258A
:102320000026002000230024002791F803C00CF0B1
:102330000F0591F803C01CF0100F03D091F802C0F4
:102340004CEA050591F800C0BCF1000F31D01468CB
:1023500000202BE04FF0010C0CFA00F3B1F800C0A4
:102360000CEA03069E4220D183004FF00F0C0CFABA
:1023700003F7BC4305FA03FC4CEA040491F803C0DC
:10238000BCF1280F06D14FF0010C0CFA00FCC2F88A
:1023900014C00AE091F803C0BCF1480F05D14FF01A
:1023A000010C0CFA00FCC2F810C0401C0828D1D364
:1023B0001460B1F800C0BCF1FF0F34DD5468002098
:1023C0002EE000F1080C4FF0010808FA0CF3B1F808
:1023D00000C00CEA03069E4221D183004FF00F0C8F
:1023E0000CFA03F7BC4305FA03FC4CEA040491F829
:1023F00003C0BCF1280F05D100F1080C08FA0CF855
:10240000C2F8148091F803C0BCF1480F07D100F165
:10241000080C4FF0010808FA0CF8C2F81080401CB4
:102420000828CED35460BDE8F081C2684A40C2603B
:1024300070470000F0B50A46002300240021002563
:1024400000F00046B6F1004F02D11D4EF16901E0E7
:102450001B4E7168C0F3034583B200F44016B6F515
:10246000401F08D121F07061154E766826F0706625
:10247000134F7E6012E000F48016B6F5801F06D17F
:10248000032606FA05F4A14341F0706106E0460D0B
:10249000360103FA06F6B14341F0706122B1460DF0
:1024A000360103FA06F6314300F00046B6F1004F5C
:1024B00002D1034EF16101E0014E7160F0BD0000F8
:1024C000000001400246002093680B4201D0012029
:1024D00000E00020704741617047016170470000D3
:1024E00000200AE000EB4001891C054A32F8111077
:1024F000044A22F81010411CC8B20828F2DB7047C9
:102500006A2A0020EA2C002000BFFEE74CF6CC40EF
:1025100001490860704700000030004070B5054672
:102520000C4645F2555000F01FF8284600F010F810
:10253000204600F013F800F003F8FFF7E7FF70BD46
:102540004AF6AA20014908607047000000300040A8
:102550000149486070470000003000400149886030
:1025600070470000003000400149086070470000DB
:102570000030004070B50446F026EF2340F23F12D1
:102580000021084600F05AFC00F07AFC08E0002523
:1025900003E006480480681C85B2B5F5A07FF8DB2F
:1025A0003000A6F101018EB2F1D170BD00000260D1
:1025B0002DE9F04304460D4616461F46DDF81C8003
:1025C0003B4632462946204600F038FC00F058FCD5
:1025D000781B401C311B491C00FB01F902E0084834
:1025E000A0F800805FEA0900A9F10109F7D1F02302
:1025F0004FF4A0720021084600F020FCBDE8F083F3
:102600000000026008B50121612000F0B3FD4CF22A
:102610003370ADF8000003208DF8020018208DF80B
:10262000030069460948FFF777FE4FF68070ADF862
:10263000000069460648FFF76FFE4FF40060ADF8F2
:10264000000069460148FFF767FE08BD001401401D
:102650000018014000B53220FEF715FCE2204FF0D3
:10266000C04108800120FEF70EFC2320C6490880E7
:102670000120FEF708FC0220C34908800120FEF774
:1026800002FC0420C04908804FF4FA70FEF7FBFBFF
:10269000E0204FF0C04108800120FEF7F4FB01204C
:1026A000B94908804FF4FA70FEF7EDFBE0204FF0D7
:1026B000C04108800120FEF7E6FB0320B2490880F4
:1026C0000520FEF7E0FB01204FF0C0410880052007
:1026D000FEF7D9FBE620010708800120FEF7D3FBB7
:1026E0000020A94908800120FEF7CDFBDB20A64988
:1026F00008800120FEF7C7FB0020A3490880B02016
:10270000410608800120FEF7BEFB20209E4908807C
:102710000120FEF7B8FB00209B4908800120FEF74E
:10272000B2FB012098490880FEF7ADFB3F20964997
:1027300008800120FEF7A7FB0020934908800120B4
:10274000FEF7A1FBEF20904908800120FEF79BFBDC
:1027500000208D4908800120FEF795FBB4204FF042
:10276000C04108800120FEF78EFB012086490880C9
:10277000FEF789FB9820844908800120FEF783FB3F
:102780000020814908800120FEF77DFB46207E491C
:1027900008800120FEF777FB01207B490880FEF7C7
:1027A00072FB0020784908800120FEF76CFB0020B6
:1027B000754908800120FEF766FB002072490880F9
:1027C0000120FEF760FBB620010708800120FEF71C
:1027D0005AFB01206C490880FEF755FB07206A4927
:1027E00008800120FEF74FFB002067490880012088
:1027F000FEF749FB0D20644908800120FEF743FBEA
:10280000012061490880FEF73EFB00205E490880F8
:102810000120FEF738FB00205B4908800120FEF70D
:1028200032FB2A204FF0C04108800120FEF72BFB2D
:102830000020554908800120FEF725FB0020524961
:1028400008800120FEF71FFB01204F490880FEF79A
:102850001AFB3F204C4908800120FEF714FB2B2077
:10286000410708800120FEF70EFB00204649088042
:102870000120FEF708FB0020434908800120FEF7F5
:1028800002FB0020404908800120FEF7FCFAEF20FF
:102890003D4908800120FEF7F6FABA204FF0C0410A
:1028A00008800120FEF7EFFA052037490880012053
:1028B000FEF7E9FAB8204FF0C04108800120FEF78A
:1028C000E2FA0720304908800120FEF7DCFA0120F7
:1028D0002D490880FEF7D7FA36200107088001202D
:1028E000FEF7D1FA3020284908800120FEF7CBFA04
:1028F000F0204FF0C04108800120FEF7C4FA032009
:10290000214908800520FEF7BEFA29204FF0C0417A
:1029100008800120FEF7B7FABE204FF0C0410880C2
:102920000120FEF7B0FA0620174908800120FEF7C3
:10293000AAFA8020144908800120FEF7A4FA012099
:1029400011490880FEF79FFAF0200F490880012006
:10295000FEF799FA00200C4908800120FEF793FA4F
:102960000020094908800120FEF78DFAD0204FF0A1
:10297000C04108800120FEF786FA0D200249088038
:102980000520FEF780FA00BD0000026010B54FF48C
:1029900080511A48FFF79FFD4FF400511748FFF789
:1029A0009AFD80211648FFF796FDC820FEF77CFAB5
:1029B00080211348FFF791FD4FF480510F48FFF736
:1029C0008CFD4FF400510D48FFF787FD4FF4805107
:1029D0000A48FFF780FD4FF400510848FFF77BFDE0
:1029E000FFF738FE4FF480510448FFF776FD4FF4AF
:1029F00000510248FFF771FD10BD000000140140B6
:102A0000001001402DE9FC470020FC494870804639
:102A10008146FB48007B31287ED14FF48051F94834
:102A2000FFF759FDB7204FF0C04108800A2400BFCE
:102A30002000A4F10101CCB2FAD1F34807884FF687
:102A4000FF7000EA0727F0480088384487B24FF447
:102A50008051EC48FFF741FD0A2400BF2000A4F19B
:102A60000101CCB2FAD14FF48051E648FFF733FDB3
:102A7000E32041070880642400BF2000A4F1010185
:102A8000CCB2FAD1E04805882D02008805442D0219
:102A9000DD48008805444FF48051DA48FFF71DFDFA
:102AA0000A2400BF2000A4F10101CCB2FAD14FF4F6
:102AB0008051D448FFF70FFDE7204FF0C041088058
:102AC000642400BF2000A4F10101CCB2FAD1CE48A9
:102AD00006883602008806443602CB480088064441
:102AE0004FF48051C748FFF7F8FCA7F5807007380E
:102AF00005D1C648854202D1B6F55B4F14D04FF0E0
:102B0000FF08C146BD48407840F00100BB4948700D
:102B1000FFF73CFFB94800E006E00089BC490860C7
:102B2000B6484089BB490860B448007B022804D1FC
:102B3000B2480089B64908601EE0B048C088032149
:102B400090FBF1F0AD490989B14A1268891A8842AF
:102B500012D24FF0FF08C146A848407840F001006B
:102B6000A6494870FFF712FFA4480089A8490860E9
:102B7000A2484089A7490860A148007B31287DD13F
:102B80004FF400519F48FFF7A6FCB7204FF0C0411B
:102B900008800A2400BF2000A4F10101CCB2FAD1C0
:102BA000994807884FF6FF7000EA07279648008883
:102BB000384487B24FF400519248FFF78EFC0A2444
:102BC00000BF2000A4F10101CCB2FAD14FF40051B2
:102BD0008C48FFF780FCE32041070880642400BF95
:102BE0002000A4F10101CCB2FAD1874805882D025A
:102BF000008805442D028448008805444FF40051A4
:102C00008048FFF76AFC0A2400BF2000A4F10101FC
:102C1000CCB2FAD14FF400517A48FFF75CFCE720C0
:102C20004FF0C0410880642400BF2000A4F10101DE
:102C3000CCB2FAD1744806883602008806443602BF
:102C40007148008806444FF400516E48FFF745FC78
:102C5000A7F58070073805D16C48854202D1B6F5DA
:102C60005B4F14D04FF0FF08C1466448407840F0F5
:102C7000020062494870FFF789FE00E007E05F4804
:102C80000089634908605D484089624908605B4883
:102C9000407B022804D1594840895E4908601EE003
:102CA0005648C088032190FBF1F054494989594A9C
:102CB0001268891A884212D24FF0FF08C1464F4865
:102CC000407840F001004D494870FFF75FFE4B48E7
:102CD00000894F490860494840894E490860B8F169
:102CE000FF0F49D14548007B012819D10090434886
:102CF000037B03220021084606F054FE0123002234
:102D000038217320FEF7E6F801204FF6FF7100230B
:102D1000414ACDE900107D210F2008F075F82BE025
:102D20003648007BD8B9012000903448037B032249
:102D30000021084606F036FE0123002238215020EB
:102D4000FEF7C8F801204FF6FF710023324ACDE9A3
:102D500000107D214FF4877008F056F80CE02748EA
:102D6000007B022808D1012000902448037B032225
:102D70000021084606F016FEB9F1FF0F5AD11F4890
:102D8000407B01281AD1022000901C48437B03227B
:102D90000021084606F006FE022301223821732096
:102DA000FEF798F802204FF6FF7100231A4ACDE98A
:102DB00000107D210F2008F027F83BE00F48407BF2
:102DC000D8B9022000900D48437B03220021084619
:102DD00006F0E8FD0223012238215020FEF77AF8A0
:102DE00002204FF6FF7100230B4ACDE900107D2130
:102DF0004FF4877008F008F81CE00FE03203002061
:102E00004802002000140140000002600402230078
:102E1000E4000020E80000200E2D00200648407B42
:102E2000022807D100900448437B03220021084672
:102E300006F0B8FDBDE8FC873203002030B52A2437
:102E40004FF0C0452C80C0F30F240C4D2C80C4B231
:102E50002C80C2F30F242C80D4B22C802B24650745
:102E60002C80C1F30F24054D2C80CCB22C80C3F3F1
:102E70000F242C80DCB22C8030BD000000000260EA
:102E80002C20C1060880704708B50121084600F0D3
:102E900071F901214248FFF7CDFA01217C2000F0B1
:102EA00069F910208DF8030003208DF80200B82086
:102EB000ADF8000069463B48FFF72EFA44F2673050
:102EC000ADF8000069463848FFF726FA42F2BC0028
:102ED000ADF8000069463548FFF71EFA4FF4405040
:102EE000ADF8000069463248FFF716FA7B20ADF8CE
:102EF000000069462F48FFF70FFA04208DF8030001
:102F000003208DF802004020ADF8000069462548F6
:102F1000FFF702FA00208DF8030003208DF802006D
:102F20000720ADF8000069461E48FFF7F5F9282094
:102F30008DF8030048208DF803000420ADF8000050
:102F400069461C48FFF7E8F920211748FFF7C5FA42
:102F500040211548FFF7C1FA20211648FFF7BDFAB6
:102F60004FF400511148FFF7B8FA08210D48FFF758
:102F7000B2FA4FF480410C48FFF7ADFA102109482E
:102F8000FFF7ABFA08210B48FFF7A5FA40210948E3
:102F9000FFF7A1FA10210748FFF79DFA08BD0000CE
:102FA0000002300000080140000C01400010014008
:102FB000001401400018014000BFFEE7704708B54B
:102FC00025208DF8000001208DF8010000208DF8EB
:102FD000020001208DF80300684600F02FF826203B
:102FE0008DF8000001208DF8010000208DF802000E
:102FF00001208DF80300684600F020F827208DF8A6
:10300000000001208DF8010000208DF80200012051
:103010008DF80300684600F011F812208DF80000CA
:1030200001208DF8010000208DF8020001208DF8AC
:103030000300684600F002F808BD000070B50021EA
:1030400000230F22C4780CB3164C246804F4E06407
:10305000C4F5E064210AC1F10403CA40447804FACB
:1030600003F184781440214309010F4C0678A155DF
:10307000047804F01F050124AC4005786D114FF071
:10308000E02606EB8505C5F8004109E0047804F068
:103090001F050124AC40054D0678761145F8264001
:1030A00070BD00000CED00E000E400E080E100E015
:1030B0000648006800F4E06005490843001D034924
:1030C0000860BFF3408F00BFFEE700000CED00E09A
:1030D0000000FA050648006800F4E060054908436E
:1030E000001D03490860BFF3408F00BFFEE70000EA
:1030F0000CED00E00000FA057047000001460020DA
:10310000034A506820F44040084350607047000074
:103110000010024029B1064A52690243044B5A6129
:1031200004E0034A52698243014B5A617047000030
:103130000010024029B1064AD2690243044BDA6109
:1031400004E0034AD2698243014BDA617047000010
:103150000010024029B1064A12690243044B1A6169
:1031600004E0034A12698243014B1A617047000070
:103170000010024029B1064A92690243044B9A6149
:1031800004E0034A92698243014B9A617047000050
:103190000010024029B1064AD2680243044BDA60AB
:1031A00004E0034AD2688243014BDA6070470000B2
:1031B0000010024030B500210022002400232D4DD4
:1031C0006D6805F00C0121B1042905D0082923D12F
:1031D00005E0294D056022E0274D05601FE0254DE3
:1031E0006D6805F47012234D6D6805F48034022576
:1031F00005EB92421CB9214D554305600BE01D4D76
:103200006D6815F4003F03D01C4D5543056002E086
:10321000194D5543056002E0174D056000BF00BF22
:10322000144D6D6805F0F0010909154D6B5C0568DA
:10323000DD4045600F4D6D6805F4E061090A104DF1
:103240006B5C4568DD4085600A4D6D6805F4605132
:10325000C90A0B4D6B5C4568DD40C560054D6D6866
:1032600005F44041890B074D6B5CC568B5FBF3F570
:10327000056130BD0010024000127A0000093D00D7
:1032800014000020240000202DE9F14F0027BB4648
:10329000402279490098FEF7BDFC7748007F182846
:1032A0007ED1754890F80D804FEA0828007B804455
:1032B0004FEA08287048C07A80444FEA08286E48D0
:1032C000807A80446C48447D2402007D04442402BA
:1032D0006948C07C044424026748807C044414F09C
:1032E000010F04D004F1020A2AF0010A00E0A2460C
:1032F0006148467E3602007E064436025E48C07D46
:10330000064436025C48807D06445B4800784228CB
:1033100003D1594840784D2800D00024B6F5A07F4D
:1033200000D900240AFB06F0422101EB4007524974
:103330008F70380AC870380C0871380E48714220F6
:1033400088721020087703208877002081F83600E3
:10335000F82081F83700002081F8380081F8390022
:10336000E02081F83A00072081F83B00002081F836
:103370003C0081F83D001F2081F83E00002081F8CC
:103380003F0081F8400081F8410042213A4800F0B6
:103390006FFE002C6DD0F02C6BD83748374900E019
:1033A00067E00860002758E04FF0000B52E007FB91
:1033B0000AB5A805800D10D125B14FF400612E4843
:1033C00000F056FE0099414405EB450288184FF481
:1033D00040622949FEF71EFCA946A5EB090000EB57
:1033E0004000801C2449085CC0102549088008461C
:1033F00000884FF6FF7101EA801021490880A5EB93
:10340000090000EB4000401C1B49085C1C4909886E
:1034100001EBA0001A490880084600884FF6FF71AA
:1034200001EA401016490880A5EB090000EB4000B6
:103430001149085C1249098801EBE0001049088035
:1034400008460088A5EB09010C4A126822F8110011
:103450000BF1010BA345AAD37F1CB742A4D3A5EB64
:103460000900401C4FF6FF7202EA4001024800F0DA
:10347000FFFDBDE8F88F0000CA040020F80000201E
:10348000F40000200B4AD26922F00102094BDA61F4
:10349000094A928842F00102074B9A80064A0C3290
:1034A000044B5A621A469062116242F28302DA6158
:1034B00070470000000002400030014010B571214B
:1034C000144800F0E6F818B313480088002818DD07
:1034D0001248006812490988405C0E4988810846F4
:1034E0008089104909680E4A128888540A48008861
:1034F000401E094908800A480088401C0849088085
:1035000002E00120084908707121024800F082F8A9
:1035100010BD000000300140EA010020E40100205D
:10352000E2010020DC010020EC01002000B587B0A2
:10353000012141F20400FFF71DFEE020ADF8040078
:1035400018208DF8070003208DF8060001A91E48F9
:10355000FEF7E2FE1020ADF804008DF8070003200E
:103560008DF8060001A91848FEF7D6FE102116486E
:10357000FEF7B3FF154800F057F80020ADF808003B
:103580004FF48270ADF80A000020ADF80C00022064
:10359000ADF80E000120ADF810004002ADF81200A9
:1035A0001820ADF814000020ADF816000720ADF883
:1035B000180002A9054800F086F80121034800F030
:1035C00008F807B000BD00000008014000300140CD
:1035D000704721B1028842F04002028004E0028874
:1035E0004FF6BF731A4002807047000010B50548BF
:1035F0000549086005490860FFF798FF80200449E5
:10360000088010BDEA290020DC010020E401002030
:10361000E001002010B5002201F00F040123A340B7
:103620009AB2D343038110BD10B5044611488442B9
:1036300008D101218014FFF7ADFD0021A014FFF790
:10364000A9FD16E00C48844208D101210014FFF7BF
:1036500081FD00212014FFF77DFD0AE00748844228
:1036600007D10121C013FFF775FD0021E013FFF71B
:1036700071FD10BD0030014000380040003C0040AA
:103680000246002013890B4201D0012000E00020F7
:103690007047F0B50246002000240023002501F009
:1036A0000F070126BE40B4B20B1101269E40B3B2F3
:1036B000968806EA03051689264202D00DB101203C
:1036C00000E00020F0BD10B50022028802F4415253
:1036D0000B884C8823438C882343CC8823430C8954
:1036E00023434C8923438C892343CC8923431A43A6
:1036F0000280838B4FF2FF74234083830B8A038203
:1037000010BD704710B500F001F810BD0CB50020D9
:10371000019000903248006840F4803030490860E1
:1037200000BF2F48006800F4003000900198401C52
:103730000190009818B90198B0F5A06FF1D1284810
:10374000006810F4003F02D00120009001E000204A
:1037500000900098012842D12248006840F01000F3
:10376000204908600846006820F003000860084609
:10377000006840F002000860194840681849486035
:103780000846406848600846406840F480604860E9
:103790000846406820F47C1048600846406840F4C1
:1037A000E81048600846006840F08070086000BF7C
:1037B0000B48006810F0007FFAD00948406820F0FC
:1037C0000300074948600846406840F0020048602E
:1037D00000BF0348406800F00C000828F9D10CBD78
:1037E00000100240002002400FB587B003204FF6C2
:1037F000FF7106230522CDE900100121022007F008
:10380000E3FAFE484078052190FBF1F201FB12003B
:1038100080B2039003204FF478410123CDE90010DA
:1038200019460220039A07F0CFFAF5480068F549D7
:103830000968401A47F23051884261D3F248407813
:1038400000F00F00052190FBF1F080B203900320FF
:103850004CF218610123CDE9001002210620039AE1
:1038600007F0B2FAE848407800F00F00052190FB1D
:10387000F1F201FB120080B2039003204CF21861B8
:103880000123CDE9001002210846039A07F09CFAB3
:1038900003204CF2186101231A46CDE900100146BD
:1038A000022007F091FA03204CF2186101231A4616
:1038B000CDE900100421022007F086FA03204CF223
:1038C000186101230522CDE900101146022007F0FE
:1038D0007BFA03204CF2186101230246CDE9001067
:1038E0000621042007F070FA03204CF2186101232E
:1038F0000222CDE900100721104607F065FA60E0CA
:10390000C148407800F00F00052190FBF1F080B233
:10391000039003204FF4FC610123CDE90010022144
:103920000620039A07F050FAB748407800F00F00DD
:10393000052190FBF1F201FB120080B203900320FD
:103940004FF4FC610123CDE9001002210846039ADF
:1039500007F03AFA03204FF4FC6101231A46CDE93F
:1039600000100146022007F02FFA03204FF4FC61FB
:1039700001231A46CDE900100421022007F024FAA1
:1039800003204FF4FC6101230522CDE9001011460C
:10399000022007F019FA03204FF4FC6101230246CC
:1039A000CDE900100621042007F00EFA03204FF4A1
:1039B000FC6101230222CDE900100721104607F027
:1039C00003FA099838B30321099801230522CDE9A8
:1039D00000010C21002007F0F7F9032109980523C5
:1039E0000122CDE900010A21184607F0EDF9032173
:1039F00009980B460122CDE900010B21062007F0B2
:103A0000E3F90321099801231A46CDE900010C21AD
:103A1000072007F0D9F90A9838B303210A9801233F
:103A20000522CDE900011321032007F0CDF9032180
:103A30000A9805230122CDE900011121022007F097
:103A4000C3F903210A980B460122CDE90001122196
:103A5000104607F0B9F903210A9801231A46CDE967
:103A600000011321002007F0AFF96848018D684874
:103A700080898030814203DD4FF4FC600C9002E0CD
:103A80004CF218600C9001210C980B460A46CDE9C7
:103A900000011A21002007F097F901210C98022358
:103AA0000A46CDE900011A21012007F08DF9012114
:103AB0000C9803230A46CDE900011A21022007F0E1
:103AC00083F901210C9804230A46CDE900011A214B
:103AD000032007F079F901210C9804230A46CDE967
:103AE00000011721184607F06FF901210C980323F4
:103AF0000A46CDE900011821052007F065F90121EA
:103B00000C9802230A46CDE900011921062007F08E
:103B10005BF901210C980B460A46CDE900011A21F8
:103B2000072007F051F93948C18D3948C0898030E4
:103B3000814203DD4FF4FC600C9002E04CF218600F
:103B40000C9002210C9801231A46CDE900011A219C
:103B5000002007F039F902210C980B460122CDE92B
:103B600000011A21104607F02FF902210C980323B7
:103B70000122CDE900011A21022007F025F90221D6
:103B80000C9804230122CDE900011A21032007F03B
:103B90001BF902210C9804230122CDE90001172111
:103BA000184607F011F902210C9803230122CDE9F0
:103BB00000011821052007F007F902210C980B4697
:103BC0000122CDE900011921062007F0FDF80221AC
:103BD0000C9801231A46CDE900011A21072007F0AD
:103BE000F3F80948407A01282BD100200649487291
:103BF0000846406802490968081A0BE032030020B1
:103C00002C00002000010020480200206A2A002029
:103C1000EA2C00208249884213D20120814948724F
:103C20000846007A804908700020487003204FF64B
:103C3000FF7100237C4ACDE90010E621184607F009
:103C4000E3F8002004907948008879490988401AEF
:103C5000052833DB5521744801706E207249487085
:103C60006C20887069217048C1703A2101716D48DB
:103C70004078302101EB20106B4948716948407849
:103C800000F00F00303088710020C8716948007D55
:103C900001280ED103204FF6FF71CDE900100498E2
:103CA000C00023300023604A01460390184607F005
:103CB000ABF808216048FEF70EFC2CE04C205A4976
:103CC0000870692048706E2088706B20C8703A2098
:103CD000087154484078302101EB20105249487156
:103CE0005048407800F00F00303088710020C871D3
:103CF0005048007D01280ED103204FF6FF71CDE919
:103D000000100498C00023300023474A0146039066
:103D1000184607F079F804988030C0B2049000206B
:103D2000059031220599481C05903F4842543A229B
:103D30000599481C05903C484254002006900EE02E
:103D40003E490698085C3030C2B20598411CC9B2A1
:103D5000059135490A540698401CC0B20690069851
:103D60000328EDDB00220598411CC9B205912E49BC
:103D70000A543048C07C01280ED101214FF6FF7053
:103D8000CDE900010498C00023300023264A0146F3
:103D90000390184607F038F8002005903222059964
:103DA000481C0590204842543A220599481C059029
:103DB0001D484254002006900FE00698C01C1F4981
:103DC000085C3030C2B20598411CC9B20591164951
:103DD0000A540698401CC0B2069006980328ECDBF3
:103DE00000220598411CC9B205910F490A54114897
:103DF000C07C01280ED102204FF6FF71CDE90010E2
:103E00000498C00023300023074A01460390184657
:103E100006F0FAFF04988030C0B204900BB000BDE9
:103E2000C027090048020020EA240020C400002026
:103E3000C800002086020020000801401401002074
:103E400010B500F0C3F80C480068401C0A4908602F
:103E500008210A48FEF73FFB01210948FCF7B9FB9E
:103E60000548006807490968401A0749884201D295
:103E7000FEF766FB10BD00002C000020001801407A
:103E8000002401403001002020BF020030B5194855
:103E900000684FF47A72B0FBF2F1B1F1807F01D388
:103EA00001201BE021F07F40401E4FF0E0225061D6
:103EB00050170F22002806DA13010F4C00F00F05EF
:103EC0002D1F635502E013010C4C235400BF00204A
:103ED0004FF0E022906107201061002008B100BF80
:103EE000FEE74FF0E020006920F001004FF0E021F4
:103EF000086130BD0000002018ED00E000E400E0A3
:103F000010B51248006840F00100104908600846EA
:103F100040680F4908400D494860084600680D494F
:103F200008400A4908600846006820F480200860BC
:103F30000846406820F4FE0048604FF41F00886087
:103F4000FFF7E0FB04480549086010BD001002407F
:103F50000000FFF8FFFFF6FE0000010808ED00E09A
:103F60007047000010B501210A4800F01EF880B12A
:103F70004FF400610848FEF7AEFA012007490870C7
:103F800007480088401C064908800121014800F0CC
:103F900009F810BD00040040000801407C01002029
:103FA00080010020CA430282704730B502460020DB
:103FB00000230024158A05EA0103958905EA010416
:103FC00013B10CB1012000E0002030BD04480068AE
:103FD00020B103480068401E014908607047000096
:103FE0002800002000B585B0012144F20500FFF74C
:103FF000C1F84FF40070ADF8100018208DF81300D0
:1040000003208DF8120004A91748FEF785F94FF434
:104010008060ADF8100004208DF8130003208DF8A7
:10402000120004A91048FEF777F94FF4E130009030
:104030000020ADF80400ADF80600ADF80800ADF8BA
:104040000C000C20ADF80A006946084800F0EAF9B7
:104050000121064800F08BF940F22661034800F088
:1040600077F905B000BD00000008014000380140AC
:10407000F8B505460E46002400BF184800681849E8
:104080000968401A0228F8D3002003464FF4FC6266
:1040900001460090FFF7A8FB4FF480411148FEF75E
:1040A0001CFA11480488FF2400BF2000A4F1010479
:1040B000FBD100240AE0285D0B49091D088000BFE0
:1040C0000948008810F0400FFAD0641CB442F2D3C3
:1040D0004FF480410348FEF7FEF9F8BD2C000020A4
:1040E00000010020000C01400038014000B585B0FF
:1040F00001218804FFF71EF801210820FFF73AF894
:104100004FF48060ADF8100018208DF813000320E4
:104110008DF8120004A91A48FEF7FEF84FF400606B
:10412000ADF8100004208DF8130003208DF8120064
:1041300004A91348FEF7F0F84FF4E1300090002096
:10414000ADF80400ADF80600ADF80800ADF80C00BD
:104150000C20ADF80A0069460A4800F063F9012214
:1041600040F22551074800F038F90121054800F0D8
:10417000FEF840F22661034800F0EAF805B000BD01
:10418000000C01400048004010B502460020094BD9
:10419000188800200AE0135C064C241D238000BF11
:1041A000044B1B8813F0400FFAD0401C8842F2D316
:1041B00010BD00000048004010B5074807490860DE
:1041C000074808490860084808490860FFF70AFFDF
:1041D000FFF78CFF10BD0000EA250020A40100209D
:1041E0006A280020B40100206A290020C8010020AC
:1041F00010B5184800681849086008211748FEF7EC
:104200006CF940F22551164800F0BDF8B0B11448E1
:10421000001D008813490968134A128888541248FF
:104220000088401C1049088008460088C0F3080038
:10423000088040F225510A4800F08AF840F22771C0
:10424000074800F0A0F820B140F22771044800F0C0
:104250007FF810BD2C000020000100200018014054
:1042600000380140A40100203200002010B540F2C7
:104270002551164800F087F8D8B11548008815492F
:10428000098888420DDA1148001D00881249096822
:104290000F4A128888540E480088401C0C49088038
:1042A00002E001200D49087040F22551074800F056
:1042B0004FF840F22771054800F065F820B140F250
:1042C0002771024800F044F810BD0000004400408F
:1042D000BA010020B8010020B4010020C401002070
:1042E00010B5164800681649086040F22551154877
:1042F00000F049F8B0B11348001D00881249096860
:10430000124A1288885411480088401C0F490880BE
:104310000846007800F07F00088040F225510948E7
:1043200000F016F840F22771064800F02CF820B192
:1043300040F22771034800F00BF810BD2C0000205C
:104340000401002000480040C80100203601002080
:1043500010B500220023A1F510646A3C00D100BF13
:104360000A1201249440A3B2DC43048010BD21B1A1
:10437000828942F40052828104E082894DF6FF7303
:104380001A408281704770B5024600240023002540
:104390000020A1F510666A3E00D100BFC1F34215AE
:1043A00001F01F03012606FA03F3012D02D19689BD
:1043B000334006E0022D02D1168A334001E0968A8E
:1043C00033400C12012606FA04F41688344013B167
:1043D0000CB1012000E0002070BDF0B503460024C0
:1043E000002600250020A1F510676A3F00D100BF1C
:1043F0001846C1F3421401F01F06012707FA06F51B
:10440000012C01D10C3004E0022C01D1103000E06D
:1044100014301AB107682F43076002E00768AF4302
:104420000760F0BD2DE9F04786B005460E46002432
:10443000A24600BFA1460027B08900B100BF2F46A9
:104440002C8A4CF6FF700440F08804432C82AC891F
:104450004EF6F3100440B08831890843718908434F
:104460000443AC81AC8A4FF6FF400440B08904435A
:10447000AC8201A8FEF79EFE1F48874202D1DDF8FC
:1044800010A001E0DDF80CA0A88910F4004F08D0BE
:104490000AEBCA0000EB0A1031684900B0FBF1F8E2
:1044A00007E00AEBCA0000EB0A1031688900B0FB94
:1044B000F1F86420B8FBF0F004012009642101FB4D
:1044C0001089A88910F4004F08D0322000EBC900F1
:1044D000B0FBF1F000F00700044308E0322000EBED
:1044E00009106421B0FBF1F000F00F0004432C81AF
:1044F00006B0BDE8F08700000038014000BFFEE7CD
:104500007CB505460C465620174908706520487052
:10451000722088707320C870692008716F204871FC
:104520006E2088713A20C8712078087260784872CD
:10453000A0788872E078C87220790873607948732F
:10454000A0798873E079C873207A087400204874D1
:1045500003201F210023044ACDE9001034212846FE
:1045600006F052FC7CBD0000EA24002002E008C8EE
:10457000121F08C1002AFAD170477047002001E0DD
:1045800001C1121F002AFBD17047000010B568203E
:104590002C490870092048702B480078C01C00F096
:1045A0007F002A49085C2749887029484078C870EC
:1045B00025480078001D00F07F002449085C21494F
:1045C00008712348807D48712148C07D887120484A
:1045D000007EC8711E48407E08721D48807E487269
:1045E0001B48C07E88721A48007FC8721848407FF6
:1045F00008731748807F48731548C07F8873144834
:1046000090F82000C87300200874012408E00D48C9
:10461000007C0C49095D08440A490874601CC4B256
:10462000084840780221C1EB4000A042EFDC99200D
:10463000044948740846407841000248FFF7A4FD49
:1046400010BD0000EA280020340100206A29002063
:104650004802002010B56948008869490880672031
:104660006849087068480078801C00F07F0067493E
:10467000085C6449487064480078401D00F07F0081
:104680006249085C5F4988755F480078801D00F0CA
:104690007F005E49085C5B49C8755B480078C01DB7
:1046A00000F07F005949095C564801765648007869
:1046B000083000F07F005549095C52484176524865
:1046C0000078093000F07F005049095C4D48817640
:1046D0004D4800780A3000F07F004C49095C494899
:1046E000C176494800780B3000F07F004749095CEB
:1046F00044480177444800780C3000F07F0043497B
:10470000095C40484177404800780D3000F07F0058
:104710003E49095C3B4881773B4800780E3000F009
:104720007F003A49085C3749C877374800780F302E
:1047300000F07F003549095C324880F82010802263
:1047400033490020FDF766FA6820324908700420DA
:1047500048702D480078C01C00F07F002B49085C91
:104760002C49887027484078C87027480078001D79
:1047700000F07F002549085C264908710821264879
:10478000FDF7ABFE1F48C07F2149C97888420BD195
:10479000FF20204948711B4890F8270020F00200B4
:1047A000184981F827000AE000201A494871154885
:1047B00090F8270040F00200124981F827000020FD
:1047C00014498871012408E0124880791149095D73
:1047D000084410498871601CC4B20E484078022118
:1047E000C1EB4000A042EFDC99200A49C87108469D
:1047F000407841000748FFF7C7FC10BDC400002007
:10480000C800002048020020340100206A2900204E
:10481000CA040020EA2800200008014010B52548FD
:1048200000882549088068202449087004204870C1
:1048300023480078C01C00F07F002249085C1F4913
:10484000887021484078C8701D480078001D00F02D
:104850007F001C49085C1949087100204871887163
:10486000012408E0154880791449095D084413497A
:104870008871601CC4B2114840780221C1EB40002D
:10488000A042EFDC99200D49C8710F48407804110F
:10489000042000EB440400BF0C4800680C49096880
:1048A000401AA042F8D30548407841000348FFF77A
:1048B0006BFC10BDC4000020C8000020EA280020C6
:1048C000340100206A290020480200202C0000202A
:1048D000000100202DE9F0410027CB480088801D11
:1048E000C0F30800C949085C012805D10202C84983
:1048F0000020FDF78FF93DE0C3480088801DC0F31C
:104900000800C249085C022805D1C201C0498004E0
:10491000FDF780F92EE0BC480088801DC0F3080038
:10492000BA49085C032806D14FF48072B8491003D5
:10493000FDF770F91EE0B4480088801DC0F3080040
:10494000B249085C042805D18201B1490005FDF790
:1049500061F90FE0AC480088801DC0F30800AB4946
:10496000085C052806D14FF48072A9494FF4600015
:10497000FDF750F9A4480088801DC0F30800A34942
:10498000085CE0286AD1FF270020A1490870487020
:10499000AB22A0494FF47100FDF73CF915209D4969
:1049A00081F86F0004219B4880F87010E02099493D
:1049B00081F871000021974880F8721080F8731018
:1049C00080F874104FF47100FDF7F0F9AB229149B3
:1049D0004FF47100FDF746FA8F48807A422802D1E1
:1049E000FBF7E6FF3AE068208C4908700420487025
:1049F00085480088C01CC0F308008449085C8749CA
:104A0000887085484078C8707F480088001DC0F3D2
:104A100008007E49085C81490871084647710020FA
:104A20008871012408E07D4880797C49095D08444B
:104A30007A498871601C84B2784840780221C1EBC1
:104A40004000A042EFDC99207449C87108464078C4
:104A500041007248FFF70CFBFEF73CFB00260025E7
:104A60006B4840780D2802DD0D206949487000240C
:104A70004CE067480078672800D04BE004EBC400A6
:104A80004000401D6249095C5F480088C01DC0F3BA
:104A900008005E4A105C814236D1FF2704EBC40057
:104AA0004000801D5A490D5C2D0204EBC4004000FB
:104AB000C01D085C05442D0204EBC4004000083012
:104AC000085C05442D0204EBC40040000930085C7A
:104AD000054404EBC400400012300E5C360204EBC7
:104AE000C40040001330085C0644360204EBC400E6
:104AF00040001430085C0644360204EBC400400059
:104B00001530085C064405E0601C84B240484078DB
:104B1000A042AEDC00BF6820404908700420487005
:104B200039480088C01CC0F308003849085C3B497C
:104B3000887039484078C87033480088001DC0F339
:104B400008003249085C3549087108464771002061
:104B50008871012408E0314880793049095D0844B2
:104B60002E498871601C84B22C4840780221C1EB28
:104B70004000A042EFDC99202849C87108464078DF
:104B800041002648FFF774FACDB3AB2221494FF418
:104B90007100FDF73FF815201E4981F86F000421D0
:104BA0001C4880F8701001201A4981F8710000211A
:104BB000184880F8721014480088801DC0F308005F
:104BC0001249095C134880F873100F480088C01D13
:104BD000C0F308000D49095C0E4880F874104FF4CA
:104BE0007100FDF7E3F8AB220A494FF47100FDF7BD
:104BF00039F90948807A422802D1FBF7D9FE01E051
:104C0000FEF768FABDE8F08130000020EA250020B8
:104C1000CA04002086020020480200206A250020E5
:104C200010B54FF4807252490020FCF7F3FF682062
:104C3000504908700D2048704F480088C01CC0F3D0
:104C400008004E49085C4B4988704D484078C87050
:104C500049480088001DC0F308004849085C4549E0
:104C600008710220487142480078672846D14048C0
:104C70004078002810DD3E4840798871002408E023
:104C800004F10A003A49095CE01D3A4A1154601CDB
:104C900084B2082CF4DB0CE0002036498871002433
:104CA00005E00021E01D334A1154601C84B2082C39
:104CB000F7DB2F484078012811DD2D48C07D2D49B4
:104CC000C873002408E004F11C002949095C0C3871
:104CD000284A1154601C84B2082CF4DB29E000201F
:104CE0002449C873002406E0002104F11000214A81
:104CF0001154601C84B2082CF6DB1AE000201D4918
:104D00008871002405E00021E01D1A4A1154601C3E
:104D100084B2082CF7DB00201649C873002406E093
:104D2000002104F11000134A1154601C84B2082CB5
:104D3000F6DB00200F490876012408E00D48007ECC
:104D40000C49095D08440B490876601C84B2094887
:104D500040780221C1EB4000A042EFDC99200549D8
:104D600048760846407841000248FFF781F910BDB7
:104D7000CA0400206A25002030000020EA25002017
:104D8000480200207CB50026AB22D2494FF47100C6
:104D9000FCF740FFCF4890F87650102D01DD10252C
:104DA00001E005B90825CC480088401DC0F3080083
:104DB000CA49085C51287AD1FF2600240FE0C54873
:104DC0007530015DC4480088401D2044C0F30800D0
:104DD000C24A105C814200D00026601CC4B2BE48AA
:104DE0000088801DC0F30800BC49085C801CA042FC
:104DF000E5DC002E3BD16720B6490870AB20487037
:104E00000846407840104870B3480088C01CC0F382
:104E10000800B249085CAF498870B1484178AD4894
:104E2000C170FF210171AC480088401DC0F308002B
:104E3000AA49085C512810D100240CE0A64800883B
:104E4000401D2044C0F30800A449095CA148753006
:104E50000155601CC4B2122CF0DB4FF47100FCF75A
:104E6000A5FFAB229B494FF47100FCF7FBFF002428
:104E700005E09848005D9B490855601CC4B2AB2C06
:104E8000F7D3FF26AB2298494FF47100FCF7C2FE1E
:104E900000240AE09348015D04F58060914A105CAB
:104EA000814200D00026601CC4B2AB2CF2D3682033
:104EB0008E4908700420487087480088C01CC0F3E1
:104EC00008008649085C8949887085484078C87020
:104ED00081480088001DC0F308008049085C8349B0
:104EE000087108464671002049780222C2EB410150
:104EF0007E4A5054012411E07C4840780221C1EBE5
:104F000040007A49085C095D0844784949780222E2
:104F1000C2EB4101754A5054601CC4B273484078DA
:104F20000221C1EB4000A042E6DC99206F4949789C
:104F30000122C2EB41016D4A5054104640784100B5
:104F40001046FFF795F8634890F8760010280EDCBD
:104F5000002406E05F487730005D65490855601C15
:104F6000C4B25C4890F87600A042F3DC0FE0082160
:104F7000584880F87610002404E03F205C4908552A
:104F8000601CC4B2534890F87600A042F5DC0022C1
:104F90002046611CCCB256490A545648007B012871
:104FA00022D1002404E0202053490855601CC4B2DB
:104FB000AC42F8DB00205049085501204FF6FF7144
:104FC00000234D4ACDE900107D210F2005F01CFF84
:104FD00001204FF6FF710023454ACDE900107D21E5
:104FE0000F2005F011FF26E04248007B18BB00248B
:104FF00004E0202040490855601CC4B2AC42F8DBF4
:1050000000203D49085501204FF6FF7100233A4A20
:10501000CDE900107D214FF4877005F0F5FE0120E9
:105020004FF6FF710023324ACDE900107D214FF485
:10503000877005F0E9FE2F48407B012822D100242B
:1050400004E020202C490855601CC4B2AC42F8DBB7
:1050500000202949085502204FF6FF710023264AF7
:10506000CDE900107D210F2005F0CEFE02204FF685
:10507000FF7100231E4ACDE900107D210F2005F0AD
:10508000C3FE26E01B48407B18BB002404E0202020
:1050900019490855601CC4B2AC42F8DB002016491F
:1050A000085502204FF6FF710023134ACDE9001086
:1050B0007D214FF4877005F0A7FE02204FF6FF71A7
:1050C00000230B4ACDE900107D214FF4877005F0D5
:1050D0009BFE7CBD8602002030000020EA250020D7
:1050E00048020020CA040020CA0800206A250020C7
:1050F0000E2D002032030020EA240020704700001B
:1051000070B5FDF7DBF80646FF2E00D070BDAB2270
:10511000A8494FF47100FCF77DFD6820A64908708E
:1051200004204870A5480088C01CC0F30800A449AA
:10513000085CA1498870A3484078C8709F480088DF
:10514000001DC0F308009E49085C9B4908710120BE
:105150004871002049780222C2EB4101964A50541E
:10516000012511E0944840780221C1EB40009249AA
:10517000085C495D0844904949780222C2EB41012C
:105180008D4A5054681CC5B28B4840780221C1EB4F
:105190004000A842E6DC99208749C871084640785B
:1051A00041008548FEF764FF002484480088401DC4
:1051B000C0F308008249085C01281AD100BF04E04E
:1051C0002046FCF797FD04F580347F488442F7D3EE
:1051D0000B20784948750021764881754FF471009D
:1051E000FCF7E4FDAB2273494FF47100FCF73AFE83
:1051F00071E072480088401DC0F308007049085CE7
:1052000002281CD1840404E02046FCF773FD04F559
:1052100080346E488442F7D30C20664981F8270019
:105220000021644880F828104FF47100FCF7BEFD9F
:10523000AB2260494FF47100FCF714FE4BE05F486D
:105240000088401DC0F308005D49085C03281DD19B
:105250004FF4801404E02046FCF74CFD04F5803444
:105260005B488442F7D30D20524981F83900002170
:10527000504880F83A104FF47100FCF797FDAB22CC
:105280004C494FF47100FCF7EDFD24E04B480088D9
:10529000401DC0F308004A49085C04281BD10405DE
:1052A00004E02046FCF726FD04F58034494884429A
:1052B000F7D30E203F4981F84B0000213D4880F88C
:1052C0004C104FF47100FCF771FDAB2239494FF4DB
:1052D0007100FCF7C7FD39480088401DC0F3080085
:1052E0003749085C05281CD14FF4600404E02046CF
:1052F000FCF700FD04F5803437488442F7D30F20D3
:105300002C4981F85D0000212A4880F85E104FF496
:105310007100FCF74BFDAB2226494FF47100FCF7FE
:10532000A1FD6820244908700420487023480088A3
:10533000C01CC0F308002249085C1F49887021483E
:105340004078C8701D480088001DC0F308001C4943
:10535000085C19490871FF20487100204978022231
:10536000C2EB4101144A5054012511E01248407823
:105370000221C1EB40001049085C495D08440E4918
:1053800049780222C2EB41010B4A5054681CC5B255
:10539000094840780221C1EB4000A842E6DC992090
:1053A0000549C8710846407841000348FEF760FE91
:1053B00000BFABE6860200206A25002030000020F6
:1053C000EA25002048020020FFFF0100FFFF09003E
:1053D000FFFF2F00FFFFBF00FFFFEF002DE9F047A9
:1053E0000027FE480088801DC0F30800FC49085CC7
:1053F00001287DD10202FB490020FCF70BFC00BF15
:1054000000260025F74840780D2802DD0D20F549DB
:10541000487000244CE0F3480078672800D04BE047
:1054200004EBC4004000401DEE49095CEB480088D5
:10543000C01DC0F30800EA4A105C814236D1FF2744
:1054400004EBC4004000801DE6490D5C2D0204EB16
:10545000C4004000C01D085C05442D0204EBC400DC
:1054600040000830085C05442D0204EBC4004000F5
:105470000930085C054404EBC400400012300E5CA7
:10548000360204EBC40040001330085C06443602C8
:1054900004EBC40040001430085C0644360204EB00
:1054A000C40040001530085C064405E0601C84B26E
:1054B000CC484078A042AEDC00BF6820CA490870E2
:1054C00004204870C5480088C01CC0F30800C449C7
:1054D000085CC5498870C5484078C870BF480088D6
:1054E000001DC0F30800BE49085CBF49087100E018
:1054F00045E00846477100208871012408E0BA4859
:105500008079B949095D0844B7498871601C84B243
:10551000B54840780221C1EB4000A042EFDC992061
:10552000B149C871084640784100AF48FEF7A0FD78
:10553000002D10D0A9480088401DC0F30800A849DC
:10554000085CAA49C97F884206D101233246382126
:10555000502004F0BFF85DE3A0480088401DC0F370
:1055600008009F49095CA14890F820008142F2D1CF
:10557000022332463821502004F0ACF84AE3974821
:105580000088801DC0F308009549085C02287DD181
:10559000420294498004FCF73DFB002700260025C9
:1055A00090484078342802DD34208E494870002429
:1055B0004CE08C480078672800D04BE004EBC40036
:1055C0004000401D8749095C84480088C01DC0F325
:1055D0000800834A105C814236D1FF2704EBC400E7
:1055E0004000801D7F490D5C2D0204EBC40040008B
:1055F000C01D085C05442D0204EBC40040000830C7
:10560000085C05442D0204EBC40040000930085C2E
:10561000054404EBC400400012300E5C360204EB7B
:10562000C40040001330085C0644360204EBC4009A
:1056300040001430085C0644360204EBC40040000D
:105640001530085C064405E0601C84B2654840786B
:10565000A042AEDC00BF6820634908700420487097
:105660005E480088C01CC0F308005D49085C5E49C4
:1056700088705E484078C87058480088001DC0F3A4
:1056800008005749085C5849087100E04FE0084697
:10569000477100208871012408E0534880795249FD
:1056A000095D084450498871601C84B24E484078B6
:1056B0000221C1EB4000A042EFDC99204A49C871A9
:1056C0000846407841004848FEF7D2FC002D15D02E
:1056D00042480088401DC0F308004149085C434926
:1056E000C97F88420BD12A4641493046FCF792FADD
:1056F00000213F4880F8001880F801188AE23748F6
:105700000088401DC0F308003549095C374890F80F
:1057100020008142F2D12A4636493046FCF77AFA17
:105720000021344880F8001880F8011872E22B48F4
:105730000088801DC0F308002949085C03287DD13A
:105740004FF4806227499002FCF764FA0027002694
:10575000002524484078342802DD3420214948704F
:1057600000245BE01F480078672800D05AE004EB73
:10577000C4004000401D1B49095C18480088C01D3A
:10578000C0F30800164A105C814245D1FF2704EBA4
:10579000C4004000801D13490D5C2D0204EBC400C1
:1057A0004000C01D085C05442D0204EBC40040000D
:1057B0000830085C05442D0204EBC40040000930A9
:1057C000085C054404EBC400400012300E5C360255
:1057D00004EBC40040001330085C0DE030000020F2
:1057E000EA250020CA0400206A2500204802002083
:1057F000CE140020D01C00200644360204EBC40066
:1058000040001430085C0644360204EBC40040003B
:105810001530085C064405E0601C84B2FE48407800
:10582000A0429FDC00BF6820FC490870042048703B
:10583000FB480088C01CC0F3080000E0D0E0F94934
:10584000085CF6498870F8484078C870F4480088C9
:10585000001DC0F30800F349085CF04908710846D0
:10586000477100208871012408E0EC488079EB49F9
:10587000095D0844E9498871601C84B2E7484078B2
:105880000221C1EB4000A042EFDC9920E349C8713E
:10589000084640784100E148FEF7EAFB002D7DD044
:1058A00000214FF40070FDF765FCDD480088401DC5
:1058B000C0F30800DB49085CDB49C97F88423ED160
:1058C000D7480088401CC0F30800D649085C072868
:1058D0002EDBD34800880830C0F3080011F80080A0
:1058E0004FF6FF7000EA0828CD4800880930C0F361
:1058F0000800085C40441FFA80F8C94800880A3054
:10590000C0F3080011F800904FF6FF7000EA092973
:10591000C34800880B30C0F30800085C48441FFAF5
:1059200080F9012332464946404603F0D3FE52E057
:10593000012332460021084603F0CCFE4BE0B84874
:105940000088401DC0F30800B649095CB64890F8CD
:10595000200081423FD1B2480088401CC0F30800BB
:10596000B049085C072830DBAD4800880830C0F338
:10597000080011F800804FF6FF7000EA0828A848D8
:1059800000880930C0F30800085C40441FFA80F822
:10599000A34800880A30C0F3080000E0FEE011F8D8
:1059A00000904FF6FF7000EA09299D4800880B30EF
:1059B000C0F30800085C48441FFA80F9022332460D
:1059C0004946404603F086FE05E0022332460021A8
:1059D000084603F07FFE01214802FDF7CBFB19E1E9
:1059E0008F480088801DC0F308008E49085C052898
:1059F0007ED14FF4807288494FF46000FCF70AF9B9
:105A0000002700260025844840780D2802DD0D205F
:105A10008149487000244CE07F480078672800D016
:105A20004BE004EBC4004000401D7B49095C7C480E
:105A30000088C01DC0F308007A4A105C814236D14C
:105A4000FF2704EBC4004000801D73490D5C2D024C
:105A500004EBC4004000C01D085C05442D0204EBAB
:105A6000C40040000830085C05442D0204EBC4006B
:105A700040000930085C054404EBC40040001230CB
:105A80000E5C360204EBC40040001330085C064490
:105A9000360204EBC40040001430085C06443602B1
:105AA00004EBC40040001530085C064405E0601CAF
:105AB00084B259484078A042AEDC00BF6820574904
:105AC00008700420487056480088C01CC0F30800C5
:105AD0005449085C5149887053484078C870504810
