:020000040800F2
:10000000183100204D0100084F3000081D25000860
:100010004D300008FB050008FD3E00080000000010
:100020000000000000000000000000006F37000822
:10003000610F000800000000653100085538000815
:1000400067010008670100086701000867010008F0
:10005000670100086701000867010008DD18000853
:10006000670100086701000821190008D50C000885
:10007000150D000867010008670100086701000806
:100080006701000867010008F10100086701000826
:1000900067010008670100086701000867010008A0
:1000A0006701000867010008670100086701000890
:1000B00075390008793900086701000867010008F0
:1000C000670100086701000867010008293500087A
:1000D0003D360008F13B00086D3C0008E13C00089B
:1000E000951800086701000867010008670100080B
:1000F0006701000867010008670100086701000840
:10010000670100086701000867010008670100082F
:10011000670100086701000867010008670100081F
:10012000670100086701000867010008670100080F
:10013000DFF80CD000F01CF800480047C98B00081D
:100140001831002080F30888704700000648804777
:1001500006480047FEE7FEE7FEE7FEE7FEE7FEE7AC
:10016000FEE7FEE7FEE7FEE715390008310100086B
:10017000064C074D06E0E06840F0010394E80700F4
:1001800098471034AC42F6D3FFF7D6FFD0AA000848
:10019000F0AA000870B501EB020410F8015B15F03D
:1001A000070301D110F8013B2A1106D110F8012BE9
:1001B00003E010F8016B01F8016B5B1EF9D12B070E
:1001C00005D40023521E0FD401F8013BFAE710F8C2
:1001D000013B02F10202A1EB030303E013F8015B10
:1001E00001F8015B521EF9D5A142D6D3002070BDA3
:1001F00010B54FF40871364800F03EF9002855D08C
:100200004FF40871324800F0D5F8314800F030F969
:1002100030490880304800883049098888422ADA05
:100220002C4800882E4909682B4A128821F81200B0
:1002300029480088401C284908802A48407C401CE6
:10024000284948740846407C032814DB0846007C93
:10025000401C08740846007C00F00F000874084633
:10026000007C0A46115C07230122194800F054F96A
:1002700000201C49487418480088182816DB1A48C2
:10028000007840F00100184908700F2012490880DA
:10029000052014490874002048740846007C0A466A
:1002A000115C072301220A4800F036F94FF4087167
:1002B0000E4800F0E1F848B14FF408710B4800F027
:1002C00079F80A4800F0D4F80949088010BD000008
:1002D00000240140420100203E0100203C0100209A
:1002E0003801002034000020400100200028014097
:1002F0004E01002000B587B001214FF4047002F0D8
:100300006FFF0120ADF8180000208DF81B0006A932
:10031000244801F001FF244800F072F80020019009
:1003200001208DF8080000208DF809004FF46020AE
:1003300003900020049001208DF8140001A91A48B0
:1003400000F0C2F84FF4404002F00EFF00201749C1
:1003500008800520164908740846007C0A46115C8E
:1003600007230122104800F0D7F801210E4800F0C1
:1003700026F80D4800F02CF900BF0B4800F08EF86D
:100380000028FAD1084800F033F900BF064800F011
:1003900065F80028FAD10121034800F01EF907B0E2
:1003A00000BD000000100140002401403E0100207B
:1003B0003400002000220A12D3430360704721B1A9
:1003C000826842F00102826003E0826822F001024A
:1003D0008260704710B50648064908604FF4A07067
:1003E00005490880002005490880FFF783FF10BDFC
:1003F0005C2A0020380100203C0100203E01002042
:1004000010B504461248844208D10121401502F07B
:10041000F7FE0021601502F0F3FE17E00D4884425C
:1004200008D10121001502F0EBFE0021201502F099
:10043000E7FE0BE00848844208D10121C80302F01E
:10044000DFFE00214FF4004002F0DAFE10BD000094
:100450000024014000280140003C014001460020EA
:100460008A6812F0040F01D0012000E000207047DC
:100470000146C86C80B2704770B502460020002368
:1004800000240B125568CEB205EA060415681D4219
:1004900002D00CB1012000E0002070BD0146002018
:1004A0008A6812F0080F01D0012000E00020704798
:1004B00010B50023CBB21AB144681C43446002E07B
:1004C00044689C43446010BD30B5024600200023C0
:1004D00050680F4C20400D790C6844EA05242043F5
:1004E000506090680B4C2040D1E902542C434D7968
:1004F00044EA450420439060D06A20F470000C7CEC
:10050000641EE4B2234340EA0350D06230BD0000D1
:10051000FFFEF0FFFDF7F1FFF0B504460D460020A9
:100520000021092D11DDE068A5F10A0606EB46075A
:10053000072606FA07F18843A5F10A0606EB4606E8
:1005400003FA06F10843E0600CE0206905EB45077B
:10055000072606FA07F1884305EB450603FA06F17C
:1005600008432061072A0FDA606B561E06EB8607E8
:100570001F2606FA07F18843561E06EB860605FA83
:1005800006F10843606322E00D2A0FDA206BD61FC4
:1005900006EB86071F2606FA07F18843D61F06EBEF
:1005A000860605FA06F10843206310E0E06AA2F12E
:1005B0000D0606EB86071F2606FA07F18843A2F10F
:1005C0000D0606EB860605FA06F10843E062F0BD6B
:1005D000816841F008018160704721B1826842F46E
:1005E000A002826003E0826822F4A0028260704769
:1005F000816841F004018160704770472DE9FE4F2A
:10060000AB22A5494FF4710001F006FAA24890F818
:100610007300012805D10202A049002001F0FCF975
:100620002DE09D4890F87300022805D1C2019B4936
:10063000800401F0F1F922E0974890F87300032854
:1006400006D14FF480729549100301F0E5F916E0E8
:10065000914890F87300042805D182018F49000564
:1006600001F0DAF90BE08C4890F87300052806D108
:100670004FF4807289494FF4600001F0CDF90027F2
:100680000025864840780D2802DD0D2083494870FA
:10069000002446E081480078672800D045E004EB5C
:1006A000C4004000401D7D49095C7B4890F87400FF
:1006B000814235D104EBC4004000801D77490D5CB8
:1006C0002D0204EBC4004000C01D085C05442D024F
:1006D00004EBC40040000830085C05442D0204EB24
:1006E000C40040000930085C054404EBC40040002D
:1006F00012300F5C3F0204EBC40040001330085C72
:1007000007443F0204EBC40040001430085C074477
:100710003F0204EBC40040001530085C074404E0CD
:10072000641C5E484078A042B4D800BFA846029737
:10073000002D7DD001F06EFB352001F0FBFADFF8D3
:100740005CB1574E00240CE007E0301901F0F8FAD4
:100750008146B9F1040F00D100E0F6E700BF04F5CF
:100760000064AC42F0D9002420E0F00AC002B0429C
:1007700008D1022101FB04708A02484901F04CF9BA
:100780004FF0000A4FF0010905E03BF81A1030461F
:1007900001F020FB8146B9F1040FF6D1352001F0BC
:1007A000C9FA641C0AF1010AB61CAD1E002DDCD189
:1007B00001F006FB3A4E00242BE0F00AC002B042E2
:1007C00009D10222029902FB04109202334901F07E
:1007D00023F94FF0000A3BF81A003188884212D002
:1007E00001F018FB352001F0A5FA07E02C4801F0D4
:1007F000A7FA8146B9F1040F00D100E0F6E700BF87
:1008000001F0DEFA08E0641C0AF1010AB61CA8F146
:100810000208B8F1000FD0D100BFB8F1000F1DD110
:10082000432020490870682048706520887000E0E7
:100830002FE06320C8706B2008712020487154207D
:1008400088710020C87103201F210023154ACDE9BB
:1008500000105C21502009F047FB1AE043201149A9
:10086000087068204870652088706320C8706B200D
:10087000087120204871462088710020C87103202B
:100880001F210023074ACDE900105C21502009F008
:100890002BFBBDE8FE8F00007A020020BC04002084
:1008A00000000108DC24002070B5FF2537480088CF
:1008B00000280DDD00BF002408E03548005D00F091
:1008C0000C000C2800D12546601CC4B2032CF4DBBC
:1008D000B5B904212F4801F000FD10212D4801F089
:1008E000FCFC4FF400712C4801F0F5FC4FF48071D2
:1008F000294801F0F2FC0821264801F0ECFC43E015
:10090000012D14D10821234801F0E7FC10212148D2
:1009100001F0E3FC6902204801F0DFFC29021E48D7
:1009200001F0D9FC04211B4801F0D5FC2CE0022D7C
:1009300014D10821174801F0D0FC0421154801F01A
:10094000CCFC2902144801F0C8FCE901124801F06E
:10095000C4FC10210F4801F0BEFC15E04FF40071FB
:100960000D4801F0B8FC4FF480710B4801F0B3FC66
:100970000821084801F0B1FC0421064801F0ADFC53
:100980001021044801F0A9FC70BD00000401002002
:100990000C01002000100140000C014070B5FF2543
:1009A0003548408800280DDD00BF032408E03348A7
:1009B000005D00F00C000C2800D12546601CC4B27C
:1009C000062CF4DB032D14D101212D4801F085FC08
:1009D00002212B4801F081FC02212A4801F07DFC14
:1009E0000121284801F077FC2021274801F073FC01
:1009F00041E0042D14D12021234801F06EFC022196
:100A00001F4801F06AFC02211E4801F066FC01212A
:100A10001C4801F062FC0121194801F05CFC2AE04D
:100A2000052D14D12021184801F057FC012114484C
:100A300001F053FC0221134801F04DFC0121114843
:100A400001F04BFC02210E4801F045FC13E00221AD
:100A50000C4801F040FC01210A4801F03CFC202137
:100A6000094801F03AFC0121054801F036FC022159
:100A7000034801F032FC70BD040100200C0100208D
:100A8000000C0140001801400010014070B5002525
:100A9000002400208B490870AB228B494FF4710071
:100AA00000F0BAFF884890F86F00152872D1864888
:100AB00090F870000428F9D18448007942286AD15E
:100AC000814890F87200032804DA7F4890F871009A
:100AD000E02842D115207C4981F86F0004217A4832
:100AE00080F87010002405E000217748713001552E
:100AF000601CC4B2042CF7DB0F20734981F85D0041
:100B00000021714880F85E10002405E0FF216E4846
:100B10005F300155601CC4B2102CF7DB4FF471003C
:100B200001F046F8AB2268494FF4710001F09CF8DF
:100B300001F070F9352001F0FDF806E0644801F09D
:100B4000FFF80546042D00D100E0F7E700BF01F0F3
:100B500037F900205B490870B3E05B4890F87100FA
:100B6000012819D1584890F87200401CC1B256486B
:100B700080F872104FF4710001F01AF8AB2252495C
:100B80004FF4710001F070F8FFF738FD01204D4976
:100B9000087096E03BE015E04D4800686FF31300E5
:100BA000B0F1005F0AD14A4840686FF31300B0F11A
:100BB000006F03D101204349087082E000204149C1
:100BC00008707EE0404890F8710001281BD1152084
:100BD0003D4981F86F0004213B4880F870100024E3
:100BE00005E00021384871300155601CC4B2042C66
:100BF000F7DB4FF4710000F0DBFFAB2232494FF41A
:100C0000710001F031F800202E49087059E02F489A
:100C10000079422831D115202B4981F86F00042139
:100C2000294880F87010002405E000212648713022
:100C30000155601CC4B2042CF7DB4FF4710000F0C6
:100C4000B7FFAB2220494FF4710001F00DF82048A6
:100C500000686FF31300B0F1005F0AD11C484068D0
:100C60006FF31300B0F1006F03D101201549087034
:100C700027E000201349087023E0134890F8710022
:100C800001281BD11520104981F86F0004210E485E
:100C900080F87010002405E000210B4871300155E8
:100CA000601CC4B2042CF7DB4FF4710000F080FF2D
:100CB000AB2205494FF4710000F0D6FF0020014936
:100CC000087070BD3C0200207A020020440200201F
:100CD0000000010810B501200A4908700A48007890
:100CE00040F0010008490870012000F053F800218D
:100CF0000648FFF764FB0648C06880F00800044916
:100D0000C86010BD540100204001002000240140B3
:100D10000010014010B501200549087000F03AF8B4
:100D20000448808820F001000249888010BD00003E
:100D3000540100200030014030B58BB005460C4610
:100D40000121084602F01CFA104800F045F810484E
:100D5000009001950020029003940490802005905B
:100D60004000069080000790002008904FF400504B
:100D7000099000200A906946044800F0D3F8012148
:100D8000024800F015F80BB030BD00001C00024016
:100D90000C30014010F0805F02D00349086001E090
:100DA000024948607047000004040240000002400D
:100DB00021B1026842F00102026004E002684FF6CD
:100DC000FE731A400260704710B510210148FFF70A
:100DD000B3FF10BDDC29002001684FF6FE72114000
:100DE00001600021016041608160C1604B4988421F
:100DF00008D14A490839496841F00F01474A083A81
:100E000051608AE045491431884208D14349083984
:100E1000496841F0F001414A083A51607DE03F499C
:100E20002831884208D13D490839496841F4706148
:100E30003A4A083A516070E038493C31884208D15A
:100E400036490839496841F47041344A083A5160DA
:100E500063E032495031884208D130490839496845
:100E600041F470212D4A083A516056E02B49643113
:100E7000884208D129490839496841F47001274A54
:100E8000083A516049E025497831884208D1234920
:100E90000839496841F07061204A083A51603CE0E5
:100EA0001F49884206D1011F096841F00F01021F46
:100EB000116032E01A491431884208D11849091FDB
:100EC000096841F0F001164A121F116025E014492B
:100ED0002831884208D11249091F096841F470611C
:100EE0000F4A121F116018E00D493C31884208D1A9
:100EF0000B49091F096841F47041094A121F11602A
:100F00000BE007495031884207D10549091F09689C
:100F100041F47021024A121F11607047080002401C
:100F20000804024010B50022026847F6F0739A43A5
:100F30000C6A8B6823430C6923434C6923438C69F7
:100F40002343CC6923434C6A23438C6A23431A43CB
:100F50000260CB6843600B6883604B68C36010BD60
:100F6000704708B50021009102E00099491C0091EA
:100F700000EBC00101EB0011009AB2EB411FF4D36A
:100F800008BD000001B50849009808604FF0E02056
:100F9000006940F001004FF0E021086100BF024805
:100FA00000680028FBD108BD2800002002F0C8F826
:100FB0002DE9FC5F804689461646DDE90CBA00271C
:100FC0004EE036F8024B002541F6C8104443240B8E
:100FD00042F21070B4FBF0F100FB11404FF47A7153
:100FE000B0FBF1F03030C2B229466D1C1E484254AD
:100FF0004FF47A70B4FBF0F100FB11406421B0FBB8
:10100000F1F03030C2B229466D1C174842546420BA
:10101000B4FBF0F100FB11400A21B0FBF1F13031DB
:101020002A466D1C104881540A20B4FBF0F100FBE5
:10103000114130312A466D1C0B488154002229464B
:101040006D1C42541F2007EB8701CDE9000AA8EB75
:1010500081000023044A494608F046FF781CC7B2C5
:10106000032FAEDBBDE8FC9FDC2400202DE9F04718
:101070000746884691469A464FF4807233490020CD
:1010800000F0CAFC00250026304840780D2802DD1B
:101090000D202E494870002449E02C48007867282C
:1010A00000D048E004EBC4014900491D274A505CC8
:1010B00000EBD0714910A0EB4101494535D104EB5B
:1010C000C4004000801D11460E5C360204EBC400D3
:1010D0004000C01D085C0644360204EBC40040001A
:1010E0000830085C0644360204EBC40040000930B6
:1010F000085C064404EBC400400012300D5C2D0275
:1011000004EBC40040001330085C05442D0204EBDE
:10111000C40040001430085C05442D0204EBC400F8
:1011200040001530085C054405E0601C84B20748A7
:101130004078A042B1DC00BF36B11FFA88F1B8B2E6
:1011400053462A4607F03CFABDE8F087BC0400206D
:1011500010B5044624B90821134801F0BEF821E077
:10116000012C04D10421104801F0B7F81AE0022C38
:1011700004D110210C4801F0B0F813E0032C04D185
:101180002021094801F0A9F80CE0042C04D1012128
:10119000064801F0A2F805E0052C03D1022103481E
:1011A00001F09BF810BD000000100140000C014050
:1011B00010B5044624B90821134801F08CF821E049
:1011C000012C04D10421104801F085F81AE0022C0A
:1011D00004D110210C4801F07EF813E0032C04D157
:1011E0002021094801F077F80CE0042C04D10121FA
:1011F000064801F070F805E0052C03D102210348F0
:1012000001F069F810BD000000100140000C014021
:1012100070B5C848007810F0F00F1BD1C6480068C0
:10122000C64908601F20C34908700846007800F0CE
:101230000F040120C249087048708870FFF734FB22
:101240000020FFF7B5FF0120FFF7B2FF0220FFF7F4
:10125000AFFF6DE1B748007800F0F000102821D111
:10126000B5480068B5490968401AC828F1D3B248A2
:101270000068B2490860AF48007800F00F04B14838
:10128000018DB148808980308142E2DD00240C204C
:10129000AB49085504F12000A64908702046FFF725
:1012A00057FF45E1A348007800F0F000202830D136
:1012B000A1480068A1490968401AB0F5967FC8D3D3
:1012C0009D4800689D4908609A48007800F00F0426
:1012D0009C48018D9C4880898030814209DA0C202D
:1012E0009749085504F1300092490870FFF7DCFA7D
:1012F0001EE1002092490855022C02DB8D4908703E
:1013000016E104F121008B490870601CFFF720FFF3
:101310000EE18848007800F0F000302824D186489B
:10132000006886490968401AB0F5FA6F91D382487F
:101330000068824908607F48007800F00F04814807
:10134000018D814880898030814207DD0C207C49F5
:10135000085504F1400077490870E9E00020784919
:10136000085574490870E3E07248007800F0F00016
:1013700040283ED17048006870490968401A6428C6
:101380008FD36D4800686D4908606A48007800F0A6
:101390000F046C48018D6C488089603081421DDAF1
:1013A0006A480078401C694908700846007803289C
:1013B0009EDD032062490870487088700C20085533
:1013C00004F150005B4908700020FFF7F1FE012096
:1013D000FFF7EEFE0220FFF7EBFEA9E002205849DE
:1013E0000870487088700C20085500205749087014
:1013F0009EE05048007800F0F00050282ED14E4872
:1014000000684E490968401A3228A6D34A48006845
:101410004A4908604748007800F00F044948018DA8
:10142000494880898030814297DD0C204449085525
:1014300004F160003F49087000250CE04048405D21
:10144000032806D12846FFF783FE04203C4948556F
:1014500003E0681CC5B2032DF0DB69E03548007875
:1014600000F0F000602863D1334800683349096810
:10147000401A32285CD330480068304908602D4853
:10148000007800F00F042F48018D2F4880896030CC
:10149000814222DA00251DE02948405D042817D149
:1014A0002C46062026490870487088700C20085584
:1014B00004F110001F490870FFF7F6F90020FFF74C
:1014C00077FE0120FFF774FE0220FFF771FE03E0B4
:1014D000681CC5B2032DDFDB2AE0002508E01848B0
:1014E000405D042802D1052015494855681CC5B245
:1014F000032DF4DB00250CE01148405D032806D1E4
:101500002846FFF725FE04200D49485503E0681CD6
:10151000C5B2032DF0DB00BF032D09DB0C20084909
:1015200008552046FFF744FE04F1400001490870C9
:1015300070BD0000120100202C000020DC00002003
:101540000C0100205C2A0020DC2C0020140100206B
:1015500070B5C948007810F0F00F1BD1C74800687B
:10156000C74908601F20C44908700846007800F089
:101570000F040120C349C87008714871FFF70EFAC3
:101580000320FFF715FE0420FFF712FE0520FFF7EA
:101590000FFE6FE1B848007800F0F000102821D16C
:1015A000B6480068B6490968401AC828F1D3B3485C
:1015B0000068B3490860B048007800F00F04B248F2
:1015C000C18DB248C08980308142E2DD03240C2005
:1015D000AC49085504F12000A74908702046FFF7E0
:1015E000B7FD47E1A448007800F0F000202831D191
:1015F000A2480068A2490968401AB0F5967FC8D38E
:101600009E4800689E4908609B48007800F00F04DF
:101610009D48C18D9D48C0898030814209DA0C20E7
:101620009849085504F1300093490870FFF7B6F95E
:1016300020E1002093490855052C03DB03208E4947
:10164000087017E104F121008B490870601CFFF756
:101650007FFD0FE18848007800F0F000302825D1A8
:101660008648006886490968401AB0F5FA6F90D339
:1016700082480068824908607F48007800F00F04C3
:101680008148C18D8148C0898030814207DD0C20AE
:101690007C49085504F1400077490870EAE00020D1
:1016A00078490855032074490870E3E072480078CF
:1016B00000F0F00040283ED1704800687049096889
:1016C000401A64288DD36D4800686D4908606A48E7
:1016D000007800F00F046C48C18D6C48C089603000
:1016E00081421DDA6A480078401C69490870084642
:1016F000007803289CDD03206249C8700871487196
:101700000C20085504F150005B4908700320FFF7D6
:101710004FFD0420FFF74CFD0520FFF749FDA9E030
:1017200002205849C870087148710C2008550020E3
:10173000574908709EE05048007800F0F0005028AB
:101740002ED14E4800684E490968401A3228A5D368
:101750004A4800684A4908604748007800F00F048A
:101760004948C18D4948C0898030814296DD0C20AE
:101770004449085504F160003F49087003250CE016
:101780004048405D032806D12846FFF7E1FC0420CD
:101790003C49485503E0681CC5B2062DF0DB69E002
:1017A0003548007800F0F000602863D133480068C5
:1017B00033490968401A32285CD330480068304900
:1017C00008602D48007800F00F042F48C18D2F4885
:1017D000C0896030814222DA03251DE02948405D3E
:1017E000042817D12C4606202649C8700871487174
:1017F0000C20085504F110001F490870FFF7CEF8BF
:101800000320FFF7D5FC0420FFF7D2FC0520FFF7EB
:10181000CFFC03E0681CC5B2062DDFDB2AE0032500
:1018200008E01848405D042802D1052015494855B4
:10183000681CC5B2062DF4DB03250CE01148405DA1
:10184000032806D12846FFF783FC04200D4948559C
:1018500003E0681CC5B2062DF0DB00BF062D09DBD6
:101860000C20084908552046FFF7A2FC04F140006F
:101870000149087070BD0000130100202C000020F9
:10188000E00000200C0100205C2A0020DC2C00205D
:101890001501002010B54FF4805000F055F8B8B194
:1018A0004FF4805000F04AF80A48C06884B214F03F
:1018B000080F04D10821074800F00FFD03E00821BC
:1018C000044800F008FD04480088401C02490880D4
:1018D00010BD0000001001408E01002010B5022054
:1018E00000F032F8B0B1022000F028F80A48C068D1
:1018F00084B214F0080F04D10821074800F0EDFC71
:1019000003E00821044800F0E6FC04480088401C7D
:101910000249088010BD000000100140860100202F
:1019200010B5102000F010F828B10120024908700D
:10193000102000F003F810BDF400002001490860F9
:101940007047000014040140014600200022074BAC
:101950001B6803EA0102054B14331B680B4202D0DB
:101960000AB1012000E0002070470000000401409F
:1019700010B50446012C04D11021044800F0ABFC42
:1019800003E01021014800F0A8FC10BD0008014050
:1019900010B500BF0120FFF7EBFF0A2006F008FE9C
:1019A0001B4880891B49087000BF0221184801F0BC
:1019B0009DFE0028F9D005201549888100BF01212E
:1019C000134801F093FE0028F9D01148808911498D
:1019D000087000BF02210E4801F088FE0028F9D0EF
:1019E00005200B49888100BF0121094801F07EFED6
:1019F0000028F9D006488089064908700020FFF7C2
:101A0000B7FF0448007810F0010FC3D110BD0000EB
:101A100000300140D40100202DE9F04704460E4675
:101A20001546C4F30747C4F3072804F0FF09012053
:101A3000FFF79EFF00BF02212D4801F057FE00284E
:101A4000F9D003202A49888100BF0221284801F0EB
:101A50004DFE0028F9D02648878100BF0221244886
:101A600001F044FE0028F9D02148A0F80C8000BF06
:101A700002211F4801F03AFE0028F9D01C48A0F8C6
:101A80000C904FF4FA7006F093FD00BF0121184846
:101A900001F02CFE0028F9D01548808915490870FE
:101AA0002946304601F024FD0AE000BF022110481B
:101AB00001F01CFE0028F9D000200D4988816D1E20
:101AC000002DF2D14FF4FA7006F072FD08488088BC
:101AD00020F00100064988804FF4FA7006F068FD96
:101AE000022006F065FD0020FFF742FFBDE8F08709
:101AF00000300140D40100202DE9F0410446C4F338
:101B00000745C4F30726E7B20120FFF731FF00BF06
:101B10000221264801F0EAFD0028F9D006202349D9
:101B200088814FF47A7006F043FD0020FFF720FF14
:101B30000120FFF71DFF00BF02211C4801F0D6FD68
:101B40000028F9D0D8201949888100BF0221174800
:101B500001F0CCFD0028F9D01448858100BF022196
:101B6000124801F0C3FD0028F9D01048868100BF5B
:101B700002210E4801F0BAFD0028F9D00B488781F8
:101B800000BF0121094801F0B1FD0028F9D04FF450
:101B90007A7006F00DFD0020FFF7EAFEFFF7F8FE71
:101BA000022006F005FDBDE8F08100000030014094
:101BB0002DE9F0410446C4F30745C4F30726E7B214
:101BC0000120FFF7D5FE00BF0221264801F08EFD5F
:101BD0000028F9D00620234988814FF47A7006F056
:101BE000E7FC0020FFF7C4FE0120FFF7C1FE00BFA5
:101BF00002211C4801F07AFD0028F9D02020194963
:101C0000888100BF0221174801F070FD0028F9D03B
:101C10001448858100BF0221124801F067FD0028A9
:101C2000F9D01048868100BF02210E4801F05EFD08
:101C30000028F9D00B48878100BF0121094801F035
:101C400055FD0028F9D04FF47A7006F0B1FC002061
:101C5000FFF78EFEFFF79CFE022006F0A9FCBDE810
:101C6000F0810000003001402DE9F04704460D46A8
:101C70001646C4F30747C4F3072804F0FF09012000
:101C8000FFF776FE00BF0221294801F02FFD002852
:101C9000F9D00620264988814FF4FA7006F088FCB6
:101CA0000020FFF765FE0120FFF762FE00BF022162
:101CB0001F4801F01BFD0028F9D002201C49888133
:101CC00000BF02211A4801F011FD0028F9D0184880
:101CD000878100BF0221164801F008FD0028F9D0D5
:101CE0001348A0F80C8000BF0221114801F0FEFC4F
:101CF0000028F9D00E48A0F80C900BE000BF02219C
:101D00000B4801F0F3FC0028F9D0287808498881B5
:101D10006D1C761E002EF1D14FF4FA7006F048FCCF
:101D20000020FFF725FEFFF733FEBDE8F087000037
:101D3000003001400149C8607047000000200240A7
:101D400030B5044604254FF4302000F06FF8054606
:101D5000042D17D10C48006940F002000A490861BF
:101D600008464461006940F0400008614FF43020AB
:101D700000F05CF805460448006941F6FD71084032
:101D800001490861284630BD0020024004200B496B
:101D9000C96811F0010F01D001200EE00749C968A0
:101DA00011F0040F01D0022007E00449C96811F0C6
:101DB000100F01D0032000E00420704700200240F3
:101DC0000348006940F08000014908617047000045
:101DD0000020024070B504460D460426F00200F0D3
:101DE00025F80646042E11D10948006940F001008B
:101DF000074908612580F00200F018F806460448FB
:101E0000006941F6FE71084001490861304670BD25
:101E10000020024002480349486003484860704778
:101E20002301674500200240AB89EFCD00B5024693
:101E30000423FFF7ABFF034603E0FFF7A7FF0346CA
:101E4000521E012B01D1002AF7D102B905231846F1
:101E500000BD00B59DB00121080201F091F90120FB
:101E600007900890099000200A900B9001200C9098
:101E700000070D90012000900190072002900020A3
:101E800003900490072005904FF0805006900020AA
:101E90000E900F90082010901020119000201290AA
:101EA0001490159016904FF48050179000201890C1
:101EB0004FF48040199000201A90CDF86CD007A8FC
:101EC0001C900EA800F020F80121002000F002F87C
:101ED0001DB000BD51B14FF0204252F8202042F019
:101EE00001024FF0204343F8202009E04FF0204248
:101EF00052F82020034B1A404FF0204343F8202093
:101F000070470000FEFF0F00D0E901121143C268C4
:101F10001143026911434269114382691143C26945
:101F20001143026A1143426A1143826A1143C26A31
:101F30001143026B11434FF02043026843F8221013
:101F40008168082908D11A46016852F8211041F029
:101F50004001026843F82210416B0968426B5268E5
:101F600041EA0211426B926841EA0221426B928976
:101F700041EA0241426B128A41EA0251426B127DF0
:101F800041EA0261426B926911430268521C4FF0B0
:101F9000204343F82210C16AB1F5804F1AD1816BFA
:101FA0000968826B526841EA0211826B926841EAC9
:101FB0000221826B128A41EA0251826B127D41EA50
:101FC0000261826B92691143026803EB8202C2F8DC
:101FD000041108E06FF070414FF02043026803EBFA
:101FE0008202C2F8041170472DE9F047074688467F
:101FF0009146022F5ED142022F498004FFF70CFD6B
:10200000002600252C484078342802DD34202A4957
:102010004870002443E028480078672800D042E058
:1020200004EBC4004000401D2349085C404534D106
:1020300004EBC4004000801D0D5C2D0204EBC400C5
:102040004000C01D085C05442D0204EBC4004000A4
:102050000830085C05442D0204EBC4004000093040
:10206000085C054404EBC400400012300E5C3602EC
:1020700004EBC40040001330085C0644360204EB55
:10208000C40040001430085C0644360204EBC4006F
:1020900040001530085C064405E0601C84B2064828
:1020A0004078A042B7DC00BF25B12A4649463046F9
:1020B000FFF7B2FCBDE8F087BC04002010B5144B5C
:1020C0001B885B1CC3F30803124CE25C4FF6FF73E2
:1020D00003EA4202002001210AE00D4B1B880B4459
:1020E000C3F308030B4CE35C0344D8B24B1C99B216
:1020F000931E8B42F1DC064B1B880B44C3F3080391
:10210000044CE35C834201D1FF2000E0002010BDBD
:1021100030000020DC2500202DE9F041024600259A
:102120000026002000230024002791F803C00CF0B3
:102130000F0591F803C01CF0100F03D091F802C0F6
:102140004CEA050591F800C0BCF1000F31D01468CD
:1021500000202BE04FF0010C0CFA00F3B1F800C0A6
:102160000CEA03069E4220D183004FF00F0C0CFABC
:1021700003F7BC4305FA03FC4CEA040491F803C0DE
:10218000BCF1280F06D14FF0010C0CFA00FCC2F88C
:1021900014C00AE091F803C0BCF1480F05D14FF01C
:1021A000010C0CFA00FCC2F810C0401C0828D1D366
:1021B0001460B1F800C0BCF1FF0F34DD546800209A
:1021C0002EE000F1080C4FF0010808FA0CF3B1F80A
:1021D00000C00CEA03069E4221D183004FF00F0C91
:1021E0000CFA03F7BC4305FA03FC4CEA040491F82B
:1021F00003C0BCF1280F05D100F1080C08FA0CF857
:10220000C2F8148091F803C0BCF1480F07D100F167
:10221000080C4FF0010808FA0CF8C2F81080401CB6
:102220000828CED35460BDE8F081C2684A40C2603D
:1022300070470000F0B50A46002300240021002565
:1022400000F00046B6F1004F02D11D4EF16901E0E9
:102250001B4E7168C0F3034583B200F44016B6F517
:10226000401F08D121F07061154E766826F0706627
:10227000134F7E6012E000F48016B6F5801F06D181
:10228000032606FA05F4A14341F0706106E0460D0D
:10229000360103FA06F6B14341F0706122B1460DF2
:1022A000360103FA06F6314300F00046B6F1004F5E
:1022B00002D1034EF16101E0014E7160F0BD0000FA
:1022C000000001400246002093680B4201D001202B
:1022D00000E00020704741617047016170470000D5
:1022E00000200AE000EB4001891C054A32F8111079
:1022F000044A22F81010411CC8B20828F2DB7047CB
:102300005C2A0020DC2C00207CB5002500205B49E5
:102310000870AB225A494FF47100FFF77DFB584813
:1023200090F87100012805D15448007840F0010070
:1023300052490870524890F85E0010280ADC504854
:1023400090F85E00002805DD4C48007840F002005F
:102350004A4908704FF000600468466849480468BC
:102360004668200D0005B0F1005F0AD1300D000570
:10237000B0F1006F05D14148007840F004003F49BA
:10238000087041480078FF2805D13C48007840F0AB
:1023900008003A4908703A4890F8720000280ADDAF
:1023A000374890F8720000F00F052D01334800788F
:1023B0002843324908704220344908704C20487044
:1023C0003D2088702D48007800F001003030C87042
:1023D0002A480078C0F34000303008712748007860
:1023E000C0F380003030487124480078C0F3C0004A
:1023F0003030887121480078C0F302103030C87145
:102400000020087203201F210023204ACDE900107C
:102410005821782007F068FD1948407C032803D133
:102420001748807C022809D019480079422805D134
:1024300001201349C874012111480175032007F0D8
:1024400057FEEF2340F221120021104600F040FD1C
:1024500000F060FDF0240F48066802E0641E0E499B
:102460000E80002CFAD1EF2340F23F1200210846E3
:1024700000F02EFD032007F025FE7CBD3D0200206C
:102480007A0200200000010838020020DC2400202D
:10249000440200202C0000200000026070B50446B9
:1024A000002560686FF31300B0F1006F01D145F0B3
:1024B000010520686FF31300B0F1005F01D145F012
:1024C0000205032D09D16068124908602068FDF7F4
:1024D00039FE1048006880471BE0AB220E494FF4DC
:1024E0007100FFF799FA0C4890F85E0088B10F2050
:1024F000094981F85D000021074880F85E104FF41B
:102500007100FFF755FBAB2203494FF47100FFF751
:10251000ABFB70BD400200207A0200207047000033
:102520004CF6CC4001490860704700000030004084
:1025300070B505460C4645F2555000F01FF8284688
:1025400000F010F8204600F013F800F003F8FFF751
:10255000E7FF70BD4AF6AA200149086070470000F5
:1025600000300040014948607047000000300040E2
:102570000149886070470000003000400149086050
:10258000704700000030004070B50446F026EF238D
:1025900040F23F120021084600F09AFC00F0BAFC1D
:1025A00008E0002503E006480480681C85B2B5F504
:1025B000A07FF8DB3000A6F101018EB2F1D170BD31
:1025C000000002602DE9F04304460D4616461F4602
:1025D000DDF81C803B4632462946204600F078FC58
:1025E00000F098FC781B401C311B491C00FB01F9D2
:1025F00002E00848A0F800805FEA0900A9F101099B
:10260000F7D1F0234FF4A0720021084600F060FCDF
:10261000BDE8F0830000026008B50121612000F0F0
:10262000DFFD4CF23370ADF8000003208DF802009E
:1026300018208DF8030069460948FFF76DFD4FF635
:102640008070ADF8000069460648FFF765FD4FF45D
:102650000060ADF8000069460148FFF75DFD08BD68
:10266000001401400018014010B58021D248FFF746
:1026700034FE4FF48051D148FFF72DFE3220FEF793
:1026800070FCE2204FF0C04108800120FEF769FC99
:102690002320CB4908800120FEF763FC0220C849B3
:1026A00008800120FEF75DFC0420C54908804FF436
:1026B000FA70FEF756FCE0204FF0C0410880012080
:1026C000FEF74FFC0120BE4908804FF4FA70FEF778
:1026D00048FCE0204FF0C04108800120FEF741FC9B
:1026E0000320B74908800520FEF73BFC01204FF08E
:1026F000C04108800520FEF734FCE6200107088071
:102700000120FEF72EFC0220AD4908800120FEF7D3
:1027100028FC9320AA4908800120FEF722FCE02033
:10272000A7490880B020410608800120FEF719FC67
:102730002020A34908800120FEF713FC0020A049B7
:1027400008800120FEF70DFC01209D490880FEF75E
:1027500008FC3F209A4908800120FEF702FC002077
:10276000974908800120FEF7FCFBEF209449088080
:102770000120FEF7F6FB0020914908800120FEF7BA
:10278000F0FBB4204FF0C04108800120FEF7E9FBC8
:1027900001208B490880FEF7E4FBA52088490880CA
:1027A0000120FEF7DEFB0020854908800120FEF7AE
:1027B000D8FB4620824908800120FEF7D2FB012089
:1027C0007F490880FEF7CDFB00207D49088001206D
:1027D000FEF7C7FB00207A4908800120FEF7C1FB05
:1027E0000020774908800120FEF7BBFBB6200107D7
:1027F00008800120FEF7B5FB012071490880FEF733
:10280000B0FB0C206E4908800120FEF7AAFB0020D7
:102810006B4908800120FEF7A4FB0D206849088061
:102820000120FEF79EFB012065490880FEF799FB19
:102830000020634908800120FEF793FB00206049D7
:1028400008800120FEF78DFB2A204FF0C041088050
:102850000120FEF786FB0020594908800120FEF781
:1028600080FB0020564908800120FEF77AFB0120FA
:1028700053490880FEF775FB3F205149088001202D
:10288000FEF76FFB2B20410708800120FEF769FB54
:1028900000204B4908800120FEF763FB00204849D7
:1028A00008800120FEF75DFB0020454908800120DB
:1028B000FEF757FBEF20424908800120FEF751FB4D
:1028C000BA204FF0C04108800120FEF74AFB0520E6
:1028D0003B4908800120FEF744FBB8204FF0C0417F
:1028E00008800120FEF73DFB0720354908800120C4
:1028F000FEF737FB012032490880FEF732FB362015
:10290000010708800120FEF72CFB30202C490880AD
:102910000120FEF726FBF0204FF0C0410880012087
:10292000FEF71FFB0320264908800520FEF719FB50
:1029300029204FF0C04108800120FEF712FBBE2085
:102940004FF0C04108800120FEF70BFB06201C4918
:1029500008800120FEF705FB80201949088001202E
:10296000FEF7FFFA012016490880FEF7FAFAF02078
:10297000134908800120FEF7F4FA0020104908806E
:102980000120FEF7EEFA00200D4908800120FEF735
:10299000E8FAD0204FF0C04108800120FEF7E1FAAC
:1029A0000D20074908800520FEF7DBFA4FF480511F
:1029B0000248FFF792FC10BD0010014000140140D6
:1029C0000000026010B58021D248FFF786FC4FF46A
:1029D0000051D148FFF77FFC3220FEF7C2FAE22017
:1029E0004FF0C04108800120FEF7BBFA2320CB49FD
:1029F00008800120FEF7B5FA0220C84908800120AE
:102A0000FEF7AFFA0420C54908804FF4FA70FEF7CC
:102A1000A8FAE0204FF0C04108800120FEF7A1FA9B
:102A20000120BE4908804FF4FA70FEF79AFAE020C0
:102A30004FF0C04108800120FEF793FA0320B74908
:102A400008800520FEF78DFA01204FF0C041088074
:102A50000520FEF786FAE620010708800120FEF730
:102A600080FA0220AD4908800120FEF77AFA93200F
:102A7000AA4908800120FEF774FAE020A7490880DF
:102A8000B020410608800120FEF76BFA2020A34900
:102A900008800120FEF765FA0020A0490880012087
:102AA000FEF75FFA01209D490880FEF75AFA3F20A1
:102AB0009A4908800120FEF754FA002097490880BF
:102AC0000120FEF74EFAEF20944908800120FEF71E
:102AD00048FA0020914908800120FEF742FAB4200C
:102AE0004FF0C04108800120FEF73BFA01208B49DE
:102AF0000880FEF736FAA520884908800120FEF7F5
:102B000030FA0020854908800120FEF72AFA462085
:102B1000824908800120FEF724FA01207F490880BD
:102B2000FEF71FFA00207D4908800120FEF719FA00
:102B300000207A4908800120FEF713FA0020774927
:102B400008800120FEF70DFAB62001070880012059
:102B5000FEF707FA012071490880FEF702FA0C20FF
:102B60006E4908800120FEF7FCF900206B490880BF
:102B70000120FEF7F6F90D20684908800120FEF7D4
:102B8000F0F9012065490880FEF7EBF90020634960
:102B900008800120FEF7E5F9002060490880012047
:102BA000FEF7DFF92A204FF0C04108800120FEF730
:102BB000D8F90020594908800120FEF7D2F90020F9
:102BC000564908800120FEF7CCF9012053490880BE
:102BD000FEF7C7F93F20514908800120FEF7C1F9EF
:102BE0002B20410708800120FEF7BBF900204B494C
:102BF00008800120FEF7B5F900204849088001202F
:102C0000FEF7AFF90020454908800120FEF7A9F939
:102C1000EF20424908800120FEF7A3F9BA204FF0C7
:102C2000C04108800120FEF79CF905203B4908803F
:102C30000120FEF796F9B8204FF0C041088001202E
:102C4000FEF78FF90720354908800120FEF789F942
:102C5000012032490880FEF784F9362001070880F8
:102C60000120FEF77EF930202C4908800120FEF774
:102C700078F9F0204FF0C04108800120FEF771F98B
:102C80000320264908800520FEF76BF929204FF024
:102C9000C04108800120FEF764F9BE204FF0C0411A
:102CA00008800120FEF75DF906201C4908800120FC
:102CB000FEF757F98020194908800120FEF751F9E5
:102CC000012016490880FEF74CF9F02013490880CE
:102CD0000120FEF746F90020104908800120FEF788
:102CE00040F900200D4908800120FEF73AF9D02074
:102CF0004FF0C04108800120FEF733F90D2007494D
:102D000008800520FEF72DF94FF400510248FFF727
:102D1000E4FA10BD00100140001401400000026000
:102D20002DE9F0414FF000084FF480516448FFF75F
:102D3000D2FAB7204FF0C04108800A2500BF280012
:102D4000A5F10101CDB2FAD15E4806884FF6FF70B9
:102D500000EA06265B480088304486B24FF4805172
:102D60005748FFF7BAFA0A2500BF2800A5F101016C
:102D7000CDB2FAD14FF480515148FFF7ACFAE320BD
:102D800041070880642500BF2800A5F10101CDB2EC
:102D9000FAD14C480488240200880444240249489B
:102DA000008804444FF480514548FFF796FA0A25FD
:102DB00000BF2800A5F10101CDB2FAD14FF4805136
:102DC0003F48FFF788FAE7204FF0C04108806425AC
:102DD00000BF2800A5F10101CDB2FAD1394807881A
:102DE0003F02008807443F023648008807444FF4FA
:102DF00080513348FFF771FAB6F5867F05D1324826
:102E0000844202D13148874201D04FF0FF08B8F127
:102E1000FF0F01D1FFF728FC4FF000084FF40051DD
:102E20002748FFF758FAB7204FF0C04108800A251D
:102E300000BF2800A5F10101CDB2FAD121480688D2
:102E40004FF6FF7000EA06261E480088304486B21E
:102E50004FF400511A48FFF740FA0A2500BF280036
:102E6000A5F10101CDB2FAD14FF400511448FFF79A
:102E700032FAE32041070880642500BF2800A5F14D
:102E80000101CDB2FAD10F4804882402008804441D
:102E900024020C48008804444FF400510848FFF70E
:102EA0001CFAB6F5867F02D10748844201D04FF064
:102EB000FF08B8F1FF0F01D1FFF784FDBDE8F081F5
:102EC000001401400000026004022300E0930200AD
:102ED00030B52A244FF0C0452C80C0F30F240C4D90
:102EE0002C80C4B22C80C2F30F242C80D4B22C804E
:102EF0002B2465072C80C1F30F24054D2C80CCB208
:102F00002C80C3F30F242C80DCB22C8030BD000059
:102F1000000002602C20C1060880704708B501211E
:102F2000084600F05DF901214248FFF783F90121CD
:102F30007C2000F055F910208DF8030003208DF857
:102F40000200B820ADF8000069463B48FFF7E4F8FE
:102F500044F26730ADF8000069463848FFF7DCF806
:102F600042F2BC00ADF8000069463548FFF7D4F8DE
:102F70004FF44050ADF8000069463248FFF7CCF8F6
:102F80007B20ADF8000069462F48FFF7C5F8042004
:102F90008DF8030003208DF802004020ADF80000FA
:102FA00069462548FFF7B8F800208DF80300032094
:102FB0008DF802000720ADF8000069461E48FFF7B3
:102FC000ABF828208DF8030048208DF8030004207A
:102FD000ADF8000069461C48FFF79EF8202117480D
:102FE000FFF77BF940211548FFF777F920211648B4
:102FF000FFF773F94FF400511148FFF76EF90821FC
:103000000D48FFF768F94FF480410C48FFF763F96A
:1030100010210948FFF761F908210B48FFF75BF918
:1030200040210948FFF757F910210748FFF753F9E6
:1030300008BD00000002300000080140000C014003
:103040000010014000140140001801407047704713
:1030500008B525208DF8000001208DF80100002022
:103060008DF8020001208DF80300684600F02EF86C
:1030700026208DF8000001208DF8010000208DF839
:10308000020001208DF80300684600F01FF8272099
:103090008DF8000001208DF8010000208DF802005D
:1030A00001208DF80300684600F010F812208DF81A
:1030B000000001208DF8010000208DF802000120A1
:1030C0008DF80300684600F001F808BD70B50021D6
:1030D00000230F22C4780CB3164C246804F4E06477
:1030E000C4F5E064210AC1F10403CA40447804FA3B
:1030F00003F184781440214309010F4C0678A1554F
:10310000047804F01F050124AC4005786D114FF0E0
:10311000E02606EB8505C5F8004109E0047804F0D7
:103120001F050124AC40054D0678761145F8264070
:1031300070BD00000CED00E000E400E080E100E084
:103140000648006800F4E06005490843001D034993
:103150000860BFF3408F00BFFEE700000CED00E009
:103160000000FA057047000001460020034A50683D
:1031700020F44040084350607047000000100240B7
:1031800029B1064A52690243044B5A6104E0034ADA
:1031900052698243014B5A6170470000001002409F
:1031A00029B1064AD2690243044BDA6104E0034ABA
:1031B000D2698243014BDA6170470000001002407F
:1031C00029B1064A12690243044B1A6104E0034A1A
:1031D00012698243014B1A617047000000100240DF
:1031E00029B1064A92690243044B9A6104E0034AFA
:1031F00092698243014B9A617047000000100240BF
:1032000029B1064AD2680243044BDA6004E0034A5B
:10321000D2688243014BDA60704700000010024020
:1032200030B500210022002400232D4D6D6805F0EB
:103230000C0121B1042905D0082923D105E0294D2D
:10324000056022E0274D05601FE0254D6D6805F4FF
:103250007012234D6D6805F48034022505EB92420F
:103260001CB9214D554305600BE01D4D6D6815F4EB
:10327000003F03D01C4D5543056002E0194D5543F6
:10328000056002E0174D056000BF00BF144D6D687A
:1032900005F0F0010909154D6B5C0568DD404560DE
:1032A0000F4D6D6805F4E061090A104D6B5C4568CF
:1032B000DD4085600A4D6D6805F46051C90A0B4D0B
:1032C0006B5C4568DD40C560054D6D6805F44041A7
:1032D000890B074D6B5CC568B5FBF3F5056130BD27
:1032E0000010024000127A0000093D001400002086
:1032F000240000202DE9F14F0027BB4640227949E8
:103300000098FEF789FB7748007F18287ED1754822
:1033100090F80D804FEA0828007B80444FEA082887
:103320007048C07A80444FEA08286E48807A80440A
:103330006C48447D2402007D044424026948C07C1A
:10334000044424026748807C044414F0010F04D034
:1033500004F1020A2AF0010A00E0A2466148467E12
:103360003602007E064436025E48C07D06443602C0
:103370005C48807D06445B480078422803D1594868
:1033800040784D2800D00024B6F5A07F00D9002455
:103390000AFB06F0422101EB400752498F70380AC0
:1033A000C870380C0871380E48714220887210209D
:1033B000087703208877002081F83600F82081F80C
:1033C0003700002081F8380081F83900E02081F8CA
:1033D0003A00072081F83B00002081F83C0081F88A
:1033E0003D001F2081F83E00002081F83F0081F859
:1033F000400081F8410042213A4800F043FB002C94
:103400006DD0F02C6BD83748374900E067E0086092
:10341000002758E04FF0000B52E007FB0AB5A80563
:10342000800D10D125B14FF400612E4800F02AFB29
:103430000099414405EB450288184FF44062294940
:10344000FEF7EAFAA946A5EB090000EB4000801C54
:103450002449085CC01025490880084600884FF6BA
:10346000FF7101EA801021490880A5EB090000EBFB
:103470004000401C1B49085C1C49098801EBA00066
:103480001A490880084600884FF6FF7101EA40108B
:1034900016490880A5EB090000EB40001149085CC3
:1034A0001249098801EBE0001049088008460088AD
:1034B000A5EB09010C4A126822F811000BF1010B6F
:1034C000A345AAD37F1CB742A4D3A5EB0900401C97
:1034D0004FF6FF7202EA4001024800F0D3FABDE85D
:1034E000F88F0000BC040020F0000020EC00002059
:1034F0000B4AD26922F00102094BDA61094A92882B
:1035000042F00102074B9A80064A0C32044B5A6281
:103510001A469062116242F28302DA61704700003B
:10352000000002400030014010B57121144800F045
:10353000E6F818B313480088002818DD1248006820
:1035400012490988405C0E498881084680891049E3
:1035500009680E4A128888540A480088401E0949A2
:1035600008800A480088401C0849088002E00120C1
:10357000084908707121024800F082F810BD00006F
:1035800000300140E6010020E0010020DE010020C3
:10359000D8010020E801002000B587B0012141F2E8
:1035A0000400FFF71DFEE020ADF8040018208DF8A0
:1035B000070003208DF8060001A91E48FEF7ACFDA8
:1035C0001020ADF804008DF8070003208DF80600E8
:1035D00001A91848FEF7A0FD10211648FEF77DFE50
:1035E000154800F057F80020ADF808004FF482703D
:1035F000ADF80A000020ADF80C000220ADF80E0076
:103600000120ADF810004002ADF812001820ADF80E
:1036100014000020ADF816000720ADF8180002A92C
:10362000054800F086F80121034800F008F807B0CB
:1036300000BD00000008014000300140704721B18A
:10364000028842F04002028004E002884FF6BF7315
:103650001A4002807047000010B50548054908600F
:1036600005490860FFF798FF80200449088010BDD5
:10367000DC290020D8010020E0010020DC0100202E
:1036800010B5002201F00F040123A3409AB2D343E6
:10369000038110BD10B504461148844208D10121B0
:1036A0008014FFF7ADFD0021A014FFF7A9FD16E07F
:1036B0000C48844208D101210014FFF781FD00214C
:1036C0002014FFF77DFD0AE00748844207D101215D
:1036D000C013FFF775FD0021E013FFF771FD10BD6A
:1036E0000030014000380040003C0040024600200D
:1036F00013890B4201D0012000E000207047F0B593
:103700000246002000240023002501F00F070126B7
:10371000BE40B4B20B1101269E40B3B2968806EAB1
:1037200003051689264202D00DB1012000E00020D9
:10373000F0BD10B50022028802F441520B884C887B
:1037400023438C882343CC8823430C8923434C890F
:1037500023438C892343CC8923431A430280838BE0
:103760004FF2FF74234083830B8A038210BD70479E
:1037700010B500F001F810BD0CB5002001900090CC
:103780003248006840F480303049086000BF2F485C
:10379000006800F4003000900198401C01900098EF
:1037A00018B90198B0F5A06FF1D12848006810F45D
:1037B000003F02D00120009001E00020009000981E
:1037C000012842D12248006840F0100020490860DA
:1037D0000846006820F0030008600846006840F0D2
:1037E0000200086019484068184948600846406867
:1037F00048600846406840F4806048600846406879
:1038000020F47C1048600846406840F4E8104860A6
:103810000846006840F08070086000BF0B480068F0
:1038200010F0007FFAD00948406820F003000749F3
:1038300048600846406840F00200486000BF034806
:10384000406800F00C000828F9D10CBD00100240BF
:103850000020024010B500F0C3F80C480068401C7E
:103860000A49086008210A48FEF735FD0121094888
:10387000FCF7B3FE0548006807490968401A074984
:10388000884201D2FEF766FE10BD00002C00002029
:1038900000180140002401402801002020BF020040
:1038A00030B5194800684FF47A72B0FBF2F1B1F10B
:1038B000807F01D301201BE021F07F40401E4FF0AC
:1038C000E022506150170F22002806DA13010F4C36
:1038D00000F00F052D1F635502E013010C4C23541B
:1038E00000BF00204FF0E02290610720106100200F
:1038F00008B100BFFEE74FF0E020006920F00100B2
:103900004FF0E021086130BD0000002018ED00E01C
:1039100000E400E010B51348006840F001001149D0
:10392000086008464068104908400E49486008464B
:1039300000680E4908400B4908600846006820F4FA
:10394000802008600846406820F4FE0048604FF47C
:103950001F008860FFF70CFF4FF00060044908600B
:1039600010BD0000001002400000FFF8FFFFF6FE4F
:1039700008ED00E07047000010B501210A4800F092
:103980001EF880B14FF400610848FEF7A4FC012046
:103990000749087007480088401C06490880012133
:1039A000014800F009F810BD000400400008014083
:1039B000780100207C010020CA430282704730B5A4
:1039C0000246002000230024158A05EA0103958998
:1039D00005EA010413B10CB1012000E0002030BD64
:1039E0000448006820B103480068401E014908608F
:1039F000704700002800002000B585B0012144F286
:103A00000500FFF7EDFB4FF40070ADF81000182033
:103A10008DF8130003208DF8120004A91748FEF753
:103A20007BFB4FF48060ADF8100004208DF813008C
:103A300003208DF8120004A91048FEF76DFB4FF427
:103A4000E13000900020ADF80400ADF80600ADF8BC
:103A50000800ADF80C000C20ADF80A0069460848D3
:103A600000F0E0F90121064800F081F940F22661FA
:103A7000034800F06DF905B000BD000000080140EA
:103A80000038014070B505460E46002400BF1448BA
:103A9000006814490968401A0228F8D34FF480419D
:103AA0001148FEF71AFC11480488FF2400BF2000CB
:103AB000A4F10104FBD100240AE0285D0B49091D93
:103AC000088000BF0948008810F0400FFAD0641C3D
:103AD000B442F2D34FF480410348FEF7FCFB70BDC3
:103AE0002C000020F8000020000C014000380140AC
:103AF00000B585B001218804FFF752FB01210820A1
:103B0000FFF76EFB4FF48060ADF8100018208DF8C1
:103B1000130003208DF8120004A91A48FEF7FCFADE
:103B20004FF40060ADF8100004208DF8130003205E
:103B30008DF8120004A91348FEF7EEFA4FF4E130B5
:103B400000900020ADF80400ADF80600ADF80800C4
:103B5000ADF80C000C20ADF80A0069460A4800F0E8
:103B600061F9012240F22551074800F036F90121A0
:103B7000054800F0FCF840F22661034800F0E8F840
:103B800005B000BD000C01400048004010B50246E1
:103B9000002000BF0AE0135C064C238000BF054BE9
:103BA0001B1F1B8813F0400FF9D0401C8842F2D332
:103BB00010BD00000448004010B5074807490860E0
:103BC000074808490860084808490860FFF714FFDB
:103BD000FFF78EFF10BD0000DC250020A0010020B3
:103BE0005C280020B00100205C290020C4010020D6
:103BF00010B5184800681849086008211748FEF7F2
:103C00006CFB40F22551164800F0BDF8B0B11448E5
:103C1000001D008813490968134A12888854124805
:103C20000088401C1049088008460088C0F308003E
:103C3000088040F225510A4800F08AF840F22771C6
:103C4000074800F0A0F820B140F22771044800F0C6
:103C50007FF810BD2C000020F80000200018014063
:103C600000380140A00100203200002010B540F2D1
:103C70002551164800F087F8D8B115480088154935
:103C8000098888420DDA1148001D00881249096828
:103C90000F4A128888540E480088401C0C4908803E
:103CA00002E001200D49087040F22551074800F05C
:103CB0004FF840F22771054800F065F820B140F256
:103CC0002771024800F044F810BD00000044004095
:103CD000B6010020B4010020B0010020C001002086
:103CE00010B5164800681649086040F2255115487D
:103CF00000F049F8B0B11348001D00881249096866
:103D0000124A1288885411480088401C0F490880C4
:103D10000846007800F07F00088040F225510948ED
:103D200000F016F840F22771064800F02CF820B198
:103D300040F22771034800F00BF810BD2C00002062
:103D4000FC00002000480040C40100203201002097
:103D500010B500220023A1F510646A3C00D100BF19
:103D60000A1201249440A3B2DC43048010BD21B1A7
:103D7000828942F40052828104E082894DF6FF7309
:103D80001A408281704770B5024600240023002546
:103D90000020A1F510666A3E00D100BFC1F34215B4
:103DA00001F01F03012606FA03F3012D02D19689C3
:103DB000334006E0022D02D1168A334001E0968A94
:103DC00033400C12012606FA04F41688344013B16D
:103DD0000CB1012000E0002070BDF0B503460024C6
:103DE000002600250020A1F510676A3F00D100BF22
:103DF0001846C1F3421401F01F06012707FA06F521
:103E0000012C01D10C3004E0022C01D1103000E073
:103E100014301AB107682F43076002E00768AF4308
:103E20000760F0BD2DE9F04786B005460E46002438
:103E3000A24600BFA1460027B08900B100BF2F46AF
:103E40002C8A4CF6FF700440F08804432C82AC8925
:103E50004EF6F3100440B088318908437189084355
:103E60000443AC81AC8A4FF6FF400440B089044360
:103E7000AC8201A8FFF7D4F91F48874202D1DDF8D0
:103E800010A001E0DDF80CA0A88910F4004F08D0C4
:103E90000AEBCA0000EB0A1031684900B0FBF1F8E8
:103EA00007E00AEBCA0000EB0A1031688900B0FB9A
:103EB000F1F86420B8FBF0F004012009642101FB53
:103EC0001089A88910F4004F08D0322000EBC900F7
:103ED000B0FBF1F000F00700044308E0322000EBF3
:103EE00009106421B0FBF1F000F00F0004432C81B5
:103EF00006B0BDE8F08700000038014070470000C0
:103F00007CB505460C465620174908706520487058
:103F1000722088707320C870692008716F20487102
:103F20006E2088713A20C8712078087260784872D3
:103F3000A0788872E078C872207908736079487335
:103F4000A0798873E079C873207A087400204874D7
:103F500003201F210023044ACDE900103421284604
:103F600005F0C2FF7CBD0000DC24002002E008C890
:103F7000121F08C1002AFAD170477047002001E0E3
:103F800001C1121F002AFBD17047000010B5682044
:103F90002B490870092048702A480078C01C00F09E
:103FA0007F002949085C2649887028484078C870F5
:103FB00024480078001D00F07F002349085C204958
:103FC00008712248007C48712048407C88711F4855
:103FD000807CC8711D48C07C08721C48007D4872F6
:103FE0001A48407D88721948807DC8721748C07D84
:103FF00008731648007E48731448407E887313483F
:10400000807EC87300200874012408E00C48007CFE
:104010000B49095D08440A490874601CC4B2084889
:1040200040780221C1EB4000A042EFDC9920044916
:1040300048740846407841000148FFF7A7FD10BDCD
:10404000DC280020300100205C29002044020020F0
:1040500010B5694800886949088067206849087078
:1040600068480078801C00F07F006749085C64495C
:10407000487064480078401D00F07F006249085C89
:104080005F4908745F480078801D00F07F005E493A
:10409000085C5B4948745B480078C01D00F07F00F5
:1040A0005949095C5648817456480078083000F038
:1040B0007F005549095C5248C17452480078093064
:1040C00000F07F005049095C4D4801754D4800786B
:1040D0000A3000F07F004C49095C49484175494865
:1040E00000780B3000F07F004749095C4448817537
:1040F000444800780C3000F07F004349095C404898
:10410000C175404800780D3000F07F003E49095CE1
:104110003B4801763B4800780E3000F07F003A497A
:10412000085C37494876374800780F3000F07F0048
:104130003549095C32488176802234490020FDF7F8
:104140006BFC682032490870042048702D480078C4
:10415000C01C00F07F002C49085C2D49887028485D
:104160004078C87027480078001D00F07F0026497D
:10417000085C2749087108212648FEF7AEF8204858
:10418000407E2249C97888420BD1FF2020494871DE
:104190001B4890F8210020F00200194981F8210005
:1041A0000AE000201A494871154890F8210040F0B3
:1041B0000200134981F8210000201549887101246B
:1041C00008E0134880791249095D08441049887154
:1041D000601CC4B20E4840780221C1EB4000A042EE
:1041E000EFDC99200A49C871084640784100084828
:1041F000FFF7CCFC10BD0000C4000020C800002068
:1042000044020020300100205C290020BC04002072
:10421000DC2800200008014010B525480088254909
:1042200008806820244908700420487023480078DA
:10423000C01C00F07F002249085C1F49887021489B
:104240004078C8701D480078001D00F07F001C49B0
:10425000085C19490871002048718871012408E040
:10426000154880791449095D084413498871601C18
:10427000C4B2114840780221C1EB4000A042EFDCFB
:1042800099200D49C8710F4840780411042000EBB3
:10429000440400BF0C4800680C490968401AA04259
:1042A000F8D30548407841000348FFF76FFC10BD84
:1042B000C4000020C8000020DC28002030010020BD
:1042C0005C290020440200202C000020F80000207F
:1042D0002DE9F0410027CB480088801DC0F308007D
:1042E000C949085C012805D10202C8490020FDF730
:1042F00093FB3DE0C3480088801DC0F30800C2491D
:10430000085C022805D1C201C0498004FDF784FB86
:104310002EE0BC480088801DC0F30800BA49085C44
:10432000032806D14FF48072B8491003FDF774FBDF
:104330001EE0B4480088801DC0F30800B249085C44
:10434000042805D18201B1490005FDF765FB0FE0A6
:10435000AC480088801DC0F30800AB49085C052804
:1043600006D14FF48072A9494FF46000FDF754FB69
:10437000A4480088801DC0F30800A349085CE02819
:104380006AD1FF270020A14908704870AB22A049DC
:104390004FF47100FDF740FB15209D4981F86F0037
:1043A00004219B4880F87010E020994981F8710041
:1043B0000021974880F8721080F8731080F874100C
:1043C0004FF47100FDF7F4FBAB2291494FF47100FB
:1043D000FDF74AFC8F480079422802D1FCF756FBD2
:1043E0003AE068208C4908700420487085480088AD
:1043F000C01CC0F308008449085C87498870854860
:104400004078C8707F480088001DC0F308007E49CE
:10441000085C8149087108464771002088710124B1
:1044200008E07D4880797C49095D08447A498871B3
:10443000601C84B2784840780221C1EB4000A04261
:10444000EFDC99207449C8710846407841007248F1
:10445000FFF718FBFEF774FE002600256B48407836
:104460000D2802DD0D206949487000244CE06748A2
:104470000078672800D04BE004EBC4004000401DEA
:104480006249095C5F480088C01DC0F308005E4AAD
:10449000105C814236D1FF2704EBC4004000801D30
:1044A0005A490D5C2D0204EBC4004000C01D085C9D
:1044B00005442D0204EBC40040000830085C0544AC
:1044C0002D0204EBC40040000930085C054404EBF5
:1044D000C400400012300E5C360204EBC400400001
:1044E0001330085C0644360204EBC400400014306C
:1044F000085C0644360204EBC40040001530085C3A
:10450000064405E0601C84B240484078A042AEDC1E
:1045100000BF68204049087004204870394800886E
:10452000C01CC0F308003849085C3B498870394812
:104530004078C87033480088001DC0F30800324935
:10454000085C3549087108464771002088710124CC
:1045500008E0314880793049095D08442E49887166
:10456000601C84B22C4840780221C1EB4000A0427C
:10457000EFDC99202849C871084640784100264858
:10458000FFF780FACDB3AB2221494FF47100FDF75C
:1045900043FA15201E4981F86F0004211C4880F859
:1045A000701001201A4981F871000021184880F824
:1045B000721014480088801DC0F308001249095C7D
:1045C000134880F873100F480088C01DC0F308001E
:1045D0000D49095C0E4880F874104FF47100FDF726
:1045E000E7FAAB220A494FF47100FDF73DFB094899
:1045F0000079422802D1FCF749FA01E0FEF7A0FD5C
:10460000BDE8F08130000020DC250020BC04002043
:104610007A020020440200205C2500207CB50026A0
:10462000AB22CF494FF47100FDF7F6F9CC4890F872
:104630007650102D01DD102501E005B90825C94887
:104640000088401DC0F30800C749085C51287CD190
:10465000FF2600240FE0C2487530015DC148008884
:10466000401D2044C0F30800BF4A105C814200D0C6
:104670000026601CC4B2BB480088801D2044C0F3E3
:104680000800B949085C801CA042E4DC002E3BD144
:104690006720B3490870AB20487008464078401046
:1046A0004870B0480088C01CC0F30800AE49085CE0
:1046B000AB498870AD484178A948C170FF210171AC
:1046C000A8480088401DC0F30800A749085C51288D
:1046D00010D100240CE0A3480088401D2044C0F302
:1046E0000800A149095C9E4875300155601CC4B2A0
:1046F000122CF0DB4FF47100FDF75AFAAB22984907
:104700004FF47100FDF7B0FA002405E09448005D15
:1047100097490855601CC4B2AB2CF7D3FF26AB22D7
:1047200094494FF47100FDF777F900240BE00CE099
:104730008F48015D04F580608D4A105C814200D095
:104740000026601CC4B2AB2CF2D368208A490870E2
:104750000420487083480088C01CC0F308008249C8
:10476000085C8549887081484078C8707D48008819
:10477000001DC0F308007C49085C7F4908710846A9
:104780004671002049780222C2EB41017A4A505416
:10479000012411E0784840780221C1EB40007649BD
:1047A000085C095D0844744949780222C2EB410162
:1047B000714A5054601CC4B26F4840780221C1EB6A
:1047C0004000A042E6DC99206B4949780122C2EB07
:1047D0004101694A50541046407841001046FFF7A5
:1047E00051F95F4890F8760010280EDC002406E0AE
:1047F0005B487730005D61490855601CC4B2584879
:1048000090F87600A042F3DC0FE00821544880F8CD
:104810007610002404E03F2058490855601CC4B2BB
:104820004F4890F87600A042F5DC00222046611C3B
:10483000CCB252490A545248807A012820D100242F
:1048400004E020204F490855601CC4B2AC42F8DB9C
:1048500000204C49085501201F210023494ACDE979
:1048600000107D210F2005F03FFB01201F210023B8
:10487000424ACDE900107D210F2005F035FB24E0F0
:104880003F48807A08BB002404E020203D490855B9
:10489000601CC4B2AC42F8DB00203A490855012044
:1048A0001F210023374ACDE900107D214FF4877086
:1048B00005F01AFB01201F210023304ACDE900102A
:1048C0007D214FF4877005F00FFB2D48C07A012839
:1048D00020D1002404E020202A490855601CC4B2DD
:1048E000AC42F8DB00202749085502201F21002395
:1048F000244ACDE900107D210F2005F0F5FA0220B1
:104900001F2100231D4ACDE900107D210F2005F055
:10491000EBFA24E01A48C07A08BB002404E0202007
:1049200018490855601CC4B2AC42F8DB0020154998
:10493000085502201F210023124ACDE900107D21D5
:104940004FF4877005F0D0FA02201F2100230B4A94
:10495000CDE900107D214FF4877005F0C5FA7CBDCC
:104960007A02002030000020DC25002044020020D4
:10497000BC040020BC0800205C250020002D002085
:1049800026030020DC2400207047000070B5FDF7EE
:1049900095FB0646FF2E00D070BDAB22A8494FF410
:1049A0007100FDF739F86820A649087004204870A6
:1049B000A5480088C01CC0F30800A449085CA149B0
:1049C0008870A3484078C8709F480088001DC0F3D5
:1049D00008009E49085C9B4908710120487100202D
:1049E00049780222C2EB4101964A5054012511E058
:1049F000944840780221C1EB40009249085C495D2F
:104A00000844904949780222C2EB41018D4A505432
:104A1000681CC5B28B4840780221C1EB4000A84217
:104A2000E6DC99208749C8710846407841008548EE
:104A3000FFF728F8002484480088401DC0F30800D0
:104A40008249085C01281AD100BF04E02046FDF726
:104A500053F804F580347F488442F7D30B2078491B
:104A600048750021764881754FF47100FDF7A0F874
:104A7000AB2273494FF47100FDF7F6F871E072480C
:104A80000088401DC0F308007049085C02281CD152
:104A9000840404E02046FDF72FF804F580346E48C6
:104AA0008442F7D30C20664981F82700002164482E
:104AB00080F828104FF47100FDF77AF8AB226049B6
:104AC0004FF47100FDF7D0F84BE05F480088401DBF
:104AD000C0F308005D49085C03281DD14FF4801421
:104AE00004E02046FDF708F804F580345B48844272
:104AF000F7D30D20524981F839000021504880F841
:104B00003A104FF47100FDF753F8AB224C494FF4C3
:104B10007100FDF7A9F824E04B480088401DC0F360
:104B200008004A49085C04281BD1040504E020461B
:104B3000FCF7E2FF04F5803449488442F7D30E20A5
:104B40003F4981F84B0000213D4880F84C104FF45C
:104B50007100FDF72DF8AB2239494FF47100FDF7D4
:104B600083F839480088401DC0F308003749085CC5
:104B700005281CD14FF4600404E02046FCF7BCFF7C
:104B800004F5803437488442F7D30F202C4981F84C
:104B90005D0000212A4880F85E104FF47100FDF797
:104BA00007F8AB2226494FF47100FDF75DF8682045
:104BB000244908700420487023480088C01CC0F3B2
:104BC00008002249085C1F49887021484078C87055
:104BD0001D480088001DC0F308001C49085C1949E5
:104BE0000871FF204871002049780222C2EB410180
:104BF000144A5054012511E0124840780221C1EBBB
:104C000040001049085C495D08440E494978022279
:104C1000C2EB41010B4A5054681CC5B209484078A8
:104C20000221C1EB4000A842E6DC99200549C87189
:104C30000846407841000348FEF724FF00BFABE67A
:104C40007A0200205C25002030000020DC250020B6
:104C500044020020FFFF0100FFFF0900FFFF2F00BB
:104C6000FFFFBF00FFFFEF002DE9F0470027FE48E0
:104C70000088801DC0F30800FC49085C01287DD134
:104C80000202FB490020FCF7C7FE00BF00260025FA
:104C9000F74840780D2802DD0D20F54948700024C2
:104CA0004CE0F3480078672800D04BE004EBC400E8
:104CB0004000401DEE49095CEB480088C01DC0F370
:104CC0000800EA4A105C814236D1FF2704EBC40099
:104CD0004000801DE6490D5C2D0204EBC40040003D
:104CE000C01D085C05442D0204EBC40040000830E0
:104CF000085C05442D0204EBC40040000930085C48
:104D0000054404EBC400400012300E5C360204EB94
:104D1000C40040001330085C0644360204EBC400B3
:104D200040001430085C0644360204EBC400400026
:104D30001530085C064405E0601C84B2CC4840781D
:104D4000A042AEDC00BF6820CA4908700420487049
:104D5000C5480088C01CC0F30800C449085CC549A8
:104D60008870C5484078C870BF480088001DC0F3EF
:104D70000800BE49085CBF49087100E044E00846ED
:104D8000477100208871012408E0BA488079B94948
:104D9000095D0844B7498871601C84B2B548407801
:104DA0000221C1EB4000A042EFDC9920B149C8715B
:104DB000084640784100AF48FEF764FE002D10D051
:104DC000A9480088401DC0F30800A849085CAA490A
:104DD000497E884206D1012332463821502003F013
:104DE000EFFB5AE3A0480088401DC0F308009F492C
:104DF000095CA148807E8142F3D1022332463821EA
:104E0000502003F0DDFB48E397480088801DC0F385
:104E100008009649085C02287ED142029449800429
:104E2000FCF7FAFD00270026002591484078342839
:104E300002DD34208E49487000244CE08C48007814
:104E4000672800D04BE004EBC4004000401D8849B7
:104E5000095C85480088C01DC0F30800834A105CC7
:104E6000814236D1FF2704EBC4004000801D8049F9
:104E70000D5C2D0204EBC4004000C01D085C05441D
:104E80002D0204EBC40040000830085C05442D02EC
:104E900004EBC40040000930085C054404EBC40086
:104EA000400012300E5C360204EBC40040001330A8
:104EB000085C0644360204EBC40040001430085C71
:104EC0000644360204EBC40040001530085C06447A
:104ED00005E0601C84B266484078A042AEDC00BFAA
:104EE000682064490870042048705F480088C01C2E
:104EF000C0F308005D49085C5E4988705E484078F0
:104F0000C87059480088001DC0F308005749085C64
:104F100058490871084600E04DE04771002088714B
:104F2000012408E0534880795249095D08445149F9
:104F30008871601C84B24F4840780221C1EB400068
:104F4000A042EFDC99204B49C871084640784100E7
:104F50004848FEF797FD002D15D043480088401DB6
:104F6000C0F308004149085C4349497E88420BD19F
:104F70002A4642493046FCF74FFD00213F4880F861
:104F8000001880F8011888E237480088401DC0F3F7
:104F900008003649095C3848807E8142F3D12A46B0
:104FA00037493046FCF738FD0021354880F80018B5
:104FB00080F8011871E22C480088801DC0F30800B9
:104FC0002A49085C03287DD14FF480622849900269
:104FD000FCF722FD002700260025254840783428CC
:104FE00002DD34202249487000245BE0204800782C
:104FF000672800D05AE004EBC4004000401D1C4963
:10500000095C19480088C01DC0F30800174A105CED
:10501000814245D1FF2704EBC4004000801D1449A4
:105020000D5C2D0204EBC4004000C01D085C05446B
:105030002D0204EBC40040000830085C05442D023A
:1050400004EBC40040000930085C054404EBC400D4
:10505000400012300E5C360204EBC40040001330F6
:10506000085C064436020DE030000020DC250020FC
:10507000BC0400205C25002044020020C014002055
:10508000C21C002004EBC40040001430085C06443D
:10509000360204EBC40040001530085C064405E00D
:1050A000601C84B2FE484078A0429FDC00BF6820AC
:1050B000FC49087004204870FB480088C01CC0F3FD
:1050C000080000E0CFE0F949085CF6498870F8482C
:1050D0004078C870F4480088001DC0F30800F34908
:1050E000085CF04908710846477100208871012466
:1050F00008E0EC488079EB49095D0844E94988718A
:10510000601C84B2E74840780221C1EB4000A04215
:10511000EFDC9920E349C871084640784100E14836
:10512000FEF7B0FC002D7CD000214FF40070FEF79C
:1051300057F8DD480088401DC0F30800DB49085CD3
:10514000DB49497E88423ED1D7480088401CC0F3E5
:105150000800D649085C07282EDBD34800880830B1
:10516000C0F3080011F800804FF6FF7000EA08282D
:10517000CD4800880930C0F30800085C40441FFA9D
:1051800080F8C94800880A30C0F3080011F8009080
:105190004FF6FF7000EA0929C34800880B30C0F3BE
:1051A0000800085C48441FFA80F90123324649464A
:1051B000404603F005FA51E001233246002108463B
:1051C00003F0FEF94AE0B8480088401DC0F308002B
:1051D000B649095CB648807E81423FD1B24800881A
:1051E000401CC0F30800B149085C072830DBAE481A
:1051F00000880830C0F3080011F800804FF6FF70F7
:1052000000EA0828A84800880930C0F30800085CB4
:1052100040441FFA80F8A44800880A30C0F3080010
:1052200000E0FEE011F800904FF6FF7000EA092957
:105230009D4800880B30C0F30800085C48441FFA02
:1052400080F9022332464946404603F0B9F905E0A9
:10525000022332460021084603F0B2F90121480238
:10526000FDF7BEFF19E190480088801DC0F30800DB
:105270008E49085C05287DD14FF4807288494FF42F
:105280006000FCF7C9FB0027002600258448407811
:105290000D2802DD0D208249487000244CE0804832
:1052A0000078672800D04BE004EBC4004000401DAC
:1052B0007B49095C7C480088C01DC0F308007B4A1C
:1052C000105C814236D1FF2704EBC4004000801DF2
:1052D00073490D5C2D0204EBC4004000C01D085C46
:1052E00005442D0204EBC40040000830085C05446E
:1052F0002D0204EBC40040000930085C054404EBB7
:10530000C400400012300E5C360204EBC4004000C2
:105310001330085C0644360204EBC400400014302D
:10532000085C0644360204EBC40040001530085CFB
:10533000064405E0601C84B259484078A042AEDCC7
:1053400000BF6820574908700420487056480088FC
:10535000C01CC0F308005549085C52498870544885
:105360004078C87050480088001DC0F308004F49BD
:10537000085C00E058E04B4908710846477100207E
:105380008871012408E0474880794649095D08444E
:1053900044498871601C84B2424840780221C1EBC4
:1053A0004000A042EFDC99203E49C8710846407891
:1053B00041003C48FEF766FB002D6ED0AB223D4914
:1053C0004FF47100FCF728FB15203A4981F86F0073
:1053D0000421384880F870100120364981F87100A6
:1053E0000021344880F87210052180F873102E488F
:1053F0000088C01DC0F308002C49095C2D4880F8C6
:1054000074104FF47100FCF7D3FBAB2229494FF421
:105410007100FCF729FC26480079422802D1FBF7ED
:1054200035FB3AE0FDF78CFE68201E490870042029
:1054300048701D480088C01CC0F308001B49085C68
:10544000184988701A484078C87017480088001DAD
:10545000C0F308001549085C1249087108464771F5
:1054600000208871012408E00E4880790D49095D0B
:1054700008440C498871601C84B20A4840780221B3
:10548000C1EB4000A042EFDC99200649C8710846F4
:10549000407841000348FEF7F5FABDE8F0870000C8
:1054A000BC0400205C25002030000020DC2500200A
:1054B000440200207A0200202DE9F047FCF7FEFDAF
:1054C0008146B9F1FF0F01D0BDE8F087FE480088A2
:1054D000801DC0F30800FD49085C012879D1020253
:1054E000FB490020FCF798FAF7480088C01DC0F37C
:1054F0000800F649085CF7490978884208D1F6485F
:10550000007800F00F00012802D14FF0FF0801E001
:105510004FF00008EE48007867287DD1B8F1000F01
:105520007BD1EB48457805EBC500062101EB400532
:10553000E7488078E949086008460068000208608A
:10554000E348C07809680844E449086008460068F0
:1055500000020860DC4800880830C0F30800DB491E
:105560000E5C3602D84800880930C0F30800085C99
:1055700006443602D44800880A30C0F30800085CAC
:1055800006443602D04800880B30C0F30800085C9F
:105590000644D24800688719D14887426FD2CC4868
:1055A00040780D286BDC4FF0FF0917F0FF0F02D198
:1055B000CC48076008E027F0FF00CA4908600846A9
:1055C000006800F5807008600020FCF7F1FA002404
:1055D0000EE046E1BC480088801D2044C0F308006E
:1055E000BA49095CA81E2044B94A1154601C84B20F
:1055F0000E2CEFDB281DB649085C001DC1B2281D2A
:10560000B34A1154B5480068010EA81E2044115435
:10561000601C84B2B14801E051E04DE00068C0F385
:105620000741A81E20441154601C84B2AB48008876
:10563000C0F30721A81E20441154601C84B2A7485F
:105640000178A81E204411546720114608700846AE
:105650004078401C4870A3480068000C8870A1483E
:105660000088000AC8700846457805EBC500062189
:1056700001EB40050021681E115401240BE018E0E5
:10568000681E9349085C095D0844C1B2681E904ACF
:105690001154601C84B2A81EA042F1DC9921681E3E
:1056A0008B4A11542A468A490020FCF7DDFA01F0A2
:1056B0005CB84FF00009FAE74FF0FF09F7E7672001
:1056C00083490870002048704FF48056300C887071
:1056D000300AC8700846457805EBC500062101EB85
:1056E00040057B4880787D490860084600680002D4
:1056F00008607748C0780968084478490860084617
:10570000006800020860704800880830C0F3080094
:105710006E490E5C36026C4800880930C0F3080000
:10572000085C06443602684800880A30C0F3080066
:10573000085C06443602644800880B30C0F3080059
:10574000085C0644654800688719654887427DD231
:105750005F4840780D2879DC4FF0FF0917F0FF0F04
:1057600002D16048076008E027F0FF005D4908604B
:105770000846006800F5807008600020FCF718FA01
:1057800000240DE050480088801D2044C0F308002C
:105790004E49095CA81E20444D4A1154601C84B235
:1057A0000E2CEFDB281D4A49085C001DC1B2281DE4
:1057B000474A115449480068010EA81E204411545C
:1057C000601C84B245480068C0F30741A81E20440D
:1057D0001154601C84B241480088C0F30721A81E00
:1057E00020441154601C84B23C480178A81E204417
:1057F000115467201146087008464078401C4870D4
:1058000038480068000C887036480088000AC87064
:105810000846457805EBC500062101EB400500214F
:10582000681E115401240AE0681E2949085C095DBC
:105830000844C1B2681E264A1154601C84B2A81ED6
:10584000A042F1DC9921681E214A00E006E01154D3
:105850002A461F490020FCF707FA28E74FF0000905
:1058600025E719480088801DC0F308001749085C27
:1058700002287CD1420216498004FCF7CDF8124878
:105880000088C01DC0F308001049085C1149097860
:10589000884208D11048007800F00F00012802D19A
:1058A0004FF0FF0801E04FF0000809480078672832
:1058B0007ED1B8F1000F7CD10548457805EBC500D5
:1058C000062101EB40050FE030000020DC25002020
:1058D000BC0400202201002021010020180100202A
:1058E000FFFF010024010020FE488078FE49086087
:1058F0000846006800020860FA48C0780968084451
:10590000F94908600846006800020860F748008806
:105910000830C0F30800F6490E5C3602F3480088F0
:105920000930C0F30800085C06443602EF480088DE
:105930000A30C0F30800085C06443602EB480088D1
:105940000B30C0F30800085C0644E748006887197C
:10595000E84887427DD2E3484078342879DC4FF02C
:10596000FF0917F0FF0F03D1E348076009E05CE18E
:1059700027F0FF00E04908600846006800F58070E5
:1059800008604FF40020FCF713F900240DE0D7481D
:105990000088801D2044C0F30800D549095CA81E7A
:1059A0002044D04A1154601C84B20E2CEFDB01E07D
:1059B00065E061E0CC480068010EA81E2044C94A99
:1059C0001154601C84B2C8480068C0F30741A81E87
:1059D00020441154601C84B2C3480088C0F30721DE
:1059E000A81E20441154601C84B2BF480178A81E30
:1059F0002044115467201146087008464078401C26
:105A00004870BD480068000C8870BB480088000AD8
:105A1000C8700846457805EBC500062101EB400536
:105A20000021A81E115401240AE0A81EAD49085CFB
:105A3000095D0844C1B2A81EAA4A1154601C84B270
:105A4000A81EA042F1DC9921681EA64A1154002428
:105A50000BE00EE0A34A111904F500204FF4807208
:105A6000FCF702F904F5807084B2B4F5806FF1DBC5
:105A70001DE64FF000091AE64FF0FF0917E6672010
:105A800098490870002048704FF40126300C887047
:105A9000300AC8700846457805EBC500062101EBC1
:105AA00040059048807890490860084600680002E8
:105AB00008608C48C078096808448B49086008462B
:105AC000006800020860894800880830C0F30800B8
:105AD00087490E5C3602854800880930C0F308000B
